:10000000E5C0000004C1000002C1000000C1000002
:10001000FEC00000FCC00000FAC00000F8C00000F4
:10002000F6C00000F4C00000F2C00000F0C0000004
:1000300025C40000ECC00000EAC00000E8C00000D9
:10004000E6C00000E4C00000E2C00000E0C0000024
:10005000DEC00000DCC00000DAC00000D8C0000034
:10006000D6C000000C943A240C948C24D0C000001C
:10007000CEC00000CCC00000CAC00000C8C0000054
:10008000C6C00000C4C00000C2C00000C0C0000064
:100090000C94D0240C942225BAC000000C94832A1E
:1000A000B6C00000B4C00000B2C00000B0C0000084
:1000B000AEC00000ACC00000AAC00000A8C0000094
:1000C000A6C00000A4C00000A2C000000C946625D9
:1000D0000C94B8259CC000000C94FC250C944E2672
:1000E00096C00000A118A118A118D818E018F5189A
:1000F000A118A118D818E018A52A152B152B152B17
:10010000152B152B152B152BA52A152B152B152B60
:10011000152B152B152B152BA72A152B152B152B4E
:10012000152B152B152B152B152B152B152B152BCF
:10013000152B152B152B152BA72A152B152B152B2E
:10014000152B152B152B152B152B152B152B152BAF
:10015000152B152B152B152B112B152B152B152BA3
:10016000152B152B152B152BDC2A152B152B152BC9
:10017000152B152B152B152B152B152B152B152B7F
:10018000152B152B152B152BD02A152B152B152BB5
:10019000152B152B152B152BF42A0E94560C80912C
:1001A0003B13823008F0A4D20E941E19F6CFCF93E1
:1001B000DF931F92CDB7DEB7CE0101960E941E16C7
:1001C00049810E9413180E946A18F6CF11241FBE9D
:1001D000CFEFD1E2DEBFCDBF00E00CBF19E0A0E061
:1001E000B2E0ECEEF3E600E00BBF02C007900D9228
:1001F000A631B107D9F725E1A6E1B9E001C01D920A
:10020000A235B207E1F70E94581C0C94F431F8CEE5
:1002100064E670E080E090E00E94BD0F0E949222B0
:10022000882361F01F928F938FE692E09F938F93C4
:100230000E94D62E0F900F900F900F906CEA76E2EE
:1002400080E090E00E94BD0FE3CF0F93CF93DF9348
:10025000C82FD92F4FEF5FEFBA01809146159091CB
:100260004715D8D5E6E3F5E1C483D583DF93CF9373
:1002700087E892E09F938F930E94D62E00E020E0C3
:1002800030E0A90160E070E080914615909147153B
:1002900047D40F900F900F900F90DF91CF910F9157
:1002A0000895E2E2F9E0A6E2B9E0B183A083138207
:1002B0001282E6EEF2E1F0932109E0932009138225
:1002C00012821182108280EC99E013969C938E9397
:1002D0001297ED93FC9390931D0980931C099093C2
:1002E0001F0980931E0980E090E89093170980937E
:1002F00016090895CF93DF93EC01A2E2B9E001C0A3
:10030000DF01ED91FC911197EC17FD07C8F31296F0
:100310008D919C9113979D01280F391FC217D30708
:1003200049F42A813B81820F931F13969C938E93ED
:100330001297ED018A819B819E01280F391FE217D8
:10034000F307C1F42091200930912109E217F30746
:1003500071F022813381820F931F9B838A83ED91F9
:10036000FC911197808191819983888305C039839D
:10037000288302C0F983E883CA17DB0711F0CD9305
:10038000DC93DF91CF910895EF92FF920F931F932B
:10039000CF93DF938C010E94A10D80912009909151
:1003A0002109892B09F47DDF8091160990911709A5
:1003B00080239123892B09F076C00115110549F09E
:1003C000C80104960817190718F000E010E001C0F2
:1003D0008C010115110509F469C080911E099091E5
:1003E0001F098017910708F464C0C0912209D091B9
:1003F0002309E2E2F9E002C0FE01EC018A819B815F
:100400008017910720F4888199810097A9F780913E
:10041000200990912109C817D90709F44DC0E0803F
:10042000F18084E0E80EF11C8881998191838083BA
:100430002A813B81201B310B2930310548F0CE0148
:10044000800F911FFC01338322831B830A8352DFB9
:100450002A813B8180911E0990911F09821B930B79
:1004600090931F0980931E0940911C0950911D090A
:100470008417950720F490931D0980931C0980919F
:10048000160990911709282B392B3B832A8319824F
:10049000188280911A0990911B09019690931B096B
:1004A00080931A090BC0E12CF12C08C0E12CF12C2F
:1004B00005C0E12CF12C02C0E12CF12C0E94E10ED0
:1004C000E114F10411F40E942A19C701DF91CF91C0
:1004D0001F910F91FF90EF9008950F931F93CF936B
:1004E000DF93009791F1EC0124974A815B81209181
:1004F000160930911709BA0162237323672B29F17A
:1005000068817981672B09F520953095242335235F
:100510003B832A830E94A10D8A819B8120911E0921
:1005200030911F09820F931F90931F0980931E091A
:10053000CE01E0DE809118099091190901969093FF
:100540001909809318090E94E10EDF91CF911F9144
:100550000F910895FC010396928381834FEF5FEF23
:10056000BA01438354836583768390878783928718
:10057000818710820895FC011386128608950F93D7
:100580001F93CF93DF93EB01088119812A813B816F
:100590000F3F4FEF14072407340721F4FC01A18516
:1005A000B28511C0DC01139601C0DF011496ED91F4
:1005B000FC91159740815181628173810417150761
:1005C0002607370790F71496ED91FC911597FD8358
:1005D000EC83D783C683BF83AE831596DC93CE931B
:1005E00014979B878A87FC0120812F5F2083DF91EE
:1005F000CF911F910F910895CF93DF93FC01A285B6
:10060000B385C481D581868197819F838E83C6817E
:10061000D781848195819D838C8311968D919C9146
:100620001297E817F90731F48681978112969C9307
:100630008E931197138612868C9181508C938C9196
:10064000DF91CF910895A89590EC88E10FB6F894CA
:10065000A895809360000FBE909360000895FC0100
:100660006083319770833197108231971082319770
:1006700020E82083319710823197108231971082C1
:10068000779740833197508386970895DCDFA09158
:10069000A913B091AA13CD91CDBFDD91DEBFFF911B
:1006A000EF91DF91CF91BF91AF919F918F917F910A
:1006B0006F915F914F913F912F911F910F91FF90FB
:1006C000EF90DF90CF90BF90AF909F908F907F90F2
:1006D0006F905F904F903F902F901F900F900CBEA7
:1006E0000F900BBE0F900FBE0F90089581E00895FC
:1006F0000F920FB6F8940F920BB60F920CB60F92A2
:100700001F9211242F923F924F925F926F927F928D
:100710008F929F92AF92BF92CF92DF92EF92FF9211
:100720000F931F932F933F934F935F936F937F93F9
:100730008F939F93AF93BF93CF93DF93EF93FF93E9
:10074000A091A913B091AA130DB60D920EB60D92F9
:100750000E94D80FA091A913B091AA13CD91CDBF3B
:10076000DD91DEBFFF91EF91DF91CF91BF91AF910E
:100770009F918F917F916F915F914F913F912F91B9
:100780001F910F91FF90EF90DF90CF90BF90AF90AF
:100790009F908F907F906F905F904F903F902F90A1
:1007A0001F900F900CBE0F900BBE0F900FBE0F90BE
:1007B00008950F920FB6F8940F920BB60F920CB6E5
:1007C0000F921F9211242F923F924F925F926F923D
:1007D0007F928F929F92AF92BF92CF92DF92EF92D1
:1007E000FF920F931F932F933F934F935F936F93BA
:1007F0007F938F939F93AF93BF93CF93DF93EF93A9
:10080000FF93A091A913B091AA130DB60D920EB645
:100810000D9213BE0E94B50D81110E94D80FA091B8
:10082000A913B091AA13CD91CDBFDD91DEBFFF9189
:10083000EF91DF91CF91BF91AF919F918F917F9178
:100840006F915F914F913F912F911F910F91FF9069
:10085000EF90DF90CF90BF90AF909F908F907F9060
:100860006F905F904F903F902F901F900F900CBE15
:100870000F900BBE0F900FBE0F9008959ADF189542
:10088000DC0153962C915397222341F05A96ED9117
:10089000FC915B9790818AE0891B089580E0089520
:1008A0000FB6F8940F92FC01868D811102C081E091
:1008B00001C080E00F900FBE08950FB6F8940F921C
:1008C000FC01268D878D281302C081E001C080E0E5
:1008D0000F900FBE08950F931F93CF93DF93EC01FA
:1008E000042F1E8D48A141110CC088819981892B4C
:1008F00009F042C08C819D810E9470121D821C8271
:1009000042C0011117C050E08A819B810E94772E5E
:1009100028A18A819B81820F911D9B838A832C81D0
:100920003D818217930750F1888199819B838A8347
:1009300080E029C050E08E819F810E94772E88A19F
:1009400090E09195819591092E813F81280F391F63
:100950003F832E83488159812417350730F42C8139
:100960003D81820F931F9F838E83023049F41123B0
:1009700049F0115080E007C080E005C080E003C06E
:1009800080E001C080E01F5F1E8FDF91CF911F913B
:100990000F910895FC0140A14423A9F050E0268165
:1009A0003781240F351F378326838481958128174B
:1009B000390720F08081918197838683CB016681FE
:1009C00077810C94772E08951F93CF93DF93EC01DA
:1009D0000FB6F8940F921AA10BC08B89882351F09F
:1009E000CE0143960E94961081110E94D21111509F
:1009F00011169CF38FEF8AA30F900FBE0FB6F894D9
:100A00000F9219A10BC08885882351F0CE0108965A
:100A10000E94961081110E94D211115011169CF360
:100A20008FEF89A30F900FBEDF91CF911F91089593
:100A3000CF93DF93EC010FB6F8940F92E881F98120
:100A40008F8D28A190E030E0829FA001839F500D00
:100A5000929F500D11244E0F5F1F5D834C831E8E9D
:100A6000FB83EA830197289FA001299F500D389F9F
:100A7000500D1124CF01840F951F9F838E838FEF1C
:100A800089A38AA361110BC08885882371F0CE01E8
:100A900008960E949610882341F02ADE06C0CE01F7
:100AA000089658DDCE01439655DD0F900FBE81E0CC
:100AB000DF91CF9108950F931F93F801611103C047
:100AC0001183008302C051834083878F60A361E05C
:100AD000CF01AEDF1F910F910895DF92EF92FF9249
:100AE0000F931F93CF93DF93F82EE62ED42E869F7D
:100AF000C0011124839648DCEC01009741F08C0181
:100B00002D2DAC014D5D5F4F6E2D8F2DD4DFCE01AD
:100B1000DF91CF911F910F91FF90EF90DF9008959B
:100B2000CF92DF92EF92FF920F931F93CF93DF93B9
:100B3000CDB7DEB729970FB6F894DEBF0FBECDBF95
:100B40007C016B012E833F834887598710E00FB6E5
:100B5000F8940F92F701968D878D981710F0023058
:100B6000B1F4402FB601C701B6DEF701938999238E
:100B700041F0C70143960E949610882321F0B8DD0A
:100B800002C08111B5DD0F900FBE81E04CC08E8197
:100B90009F81A885B985892B8A2B8B2B21F40F90F7
:100BA0000FBE80E040C0111105C0CE0101960E9429
:100BB0005B1111E00F900FBEC4D70FB6F8940F92DF
:100BC000F70181A18F3F09F411A2F70182A18F3FA4
:100BD00009F412A20F900FBEBE016A5F7F4FCE01D3
:100BE00001960E946C11811119C0C70166DE88232D
:100BF00081F04E815F8168857985C70108960E94E2
:100C00003D10C701E1DE0E94E10E8111A0CF70DD31
:100C10009ECFC701D9DE0E94E10E99CFC701D4DE75
:100C20000E94E10E80E029960FB6F894DEBF0FBE59
:100C3000CDBFDF91CF911F910F91FF90EF90DF908B
:100C4000CF9008950F93009769F0FC0115821482EC
:100C500011821082168200E020E030E0A90160E0FD
:100C600070E05EDF0F910895CF93DF93482F60E02F
:100C700081E033DFEC01E6DFCE01DF91CF91089513
:100C8000EF92FF920F931F93CF93DF938A01FC01A2
:100C9000568D378D531710F02230F9F4422F78011A
:100CA000EC011AA18E8DCE0116DE1F3F81F48B89D7
:100CB0008823A9F0CE0143960E949610882389F0DC
:100CC000E114F10481F081E0F70180830DC0FF247D
:100CD000F394F10EFAA281E007C080E005C081E044
:100CE00003C081E001C081E0DF91CF911F910F919E
:100CF000FF90EF900895CF92DF92EF92FF920F93C3
:100D00001F93CF93DF93CDB7DEB729970FB6F89433
:100D1000DEBF0FBECDBF8C016B012E833F834887A2
:100D20005987E12C0FB6F8940F92F801F68CFF204A
:100D300099F0B601C8012EDEFA94F801F68E80858E
:100D4000882331F0C80108960E9496108111D0DCEA
:100D50000F900FBE81E04FC08E819F81A885B9851D
:100D6000892B8A2B8B2B21F40F900FBE80E043C080
:100D7000E11006C0CE0101960E945B11EE24E394BF
:100D80000F900FBEDED60FB6F8940F92F80181A136
:100D90008F3F09F411A2F80182A18F3F09F412A23A
:100DA0000F900FBEBE016A5F7F4FCE0101960E9479
:100DB0006C11811117C0C80173DD882379F04E8151
:100DC0005F8168857985C80143960E943D10C801FE
:100DD000FBDDF7D78111A6CF8BDCA4CFC801F4DDF2
:100DE000F0D7A0CFC801F0DDECD7C80159DD8823CA
:100DF00009F498CF80E029960FB6F894DEBF0FBEB5
:100E0000CDBFDF91CF911F910F91FF90EF90DF90B9
:100E1000CF900895EF92FF920F931F93CF93DF939C
:100E2000CDB7DEB729970FB6F894DEBF0FBECDBFA2
:100E30008C014E835F8368877987E12CF12C0FB694
:100E4000F8940F92F801868D8823C9F08150868F1F
:100E500080819181892B29F40E943213F8019583B6
:100E60008483F8018085882331F0C80108960E94A8
:100E7000961081113DDC0F900FBE81E06FC08E8116
:100E80009F81A885B985892B8A2B8B2B21F40F9004
:100E90000FBE80E063C0F11006C0CE0101960E9433
:100EA0005B11FF24F3940F900FBE4BD60FB6F8944E
:100EB0000F92F80181A18F3F09F411A2F80182A1DC
:100EC0008F3F09F412A20F900FBEBE016A5F7F4FE1
:100ED000CE0101960E946C11811126C0C801E0DC90
:100EE0008823F1F0F80180819181892B51F40FB6AC
:100EF000F8940F92848195810E94E911E82E0F9059
:100F00000FBE4E815F8168857985C80143960E9436
:100F10003D10C80159DD55D7811191CFE9DB8FCF45
:100F2000C80152DD4ED78BCFC8014EDD4AD7C8016C
:100F3000B7DC882309F483CFEE2079F00FB6F8945C
:100F40000F92C8019DDC682FF801848195810E9471
:100F5000CB120F900FBE80E001C080E029960FB643
:100F6000F894DEBF0FBECDBFDF91CF911F910F91DF
:100F7000FF90EF900895CF93DF93EC010FB6F894B4
:100F80000F9289A18F3F09F419A28AA18F3F09F41A
:100F90001AA20F900FBE8E8D811104C0CE01439610
:100FA0000E945410CE0110DDDF91CF910895FC0115
:100FB0004481558122813381240F351F80819181A5
:100FC000B901681B790BCB016417750710F0841BFE
:100FD000950B08950F93FC018FE0DF011D928A9518
:100FE000E9F77587648755834483378326830687AB
:100FF0000F910895AF92BF92CF92DF92EF92FF923E
:101000000F931F93CF93DF936C015B017A01FC0177
:10101000C281D381048115810C1B1D0B4017510720
:1010200008F48A01F60184859585A801B5018C0F25
:101030009D1F0E94772E0E151F0558F4A701401B17
:10104000510BB501600F711FF601848595850E94D3
:10105000772ECE018E0D9F1DF601248135818217DA
:10106000930710F0821B930BF60193838283C701D1
:10107000DF91CF911F910F91FF90EF90DF90CF9074
:10108000BF90AF900895CF92DF92EF92FF920F93AF
:101090001F93CF93DF931F921F92CDB7DEB77C01D2
:1010A0006B015A83498321153105C1F0FC01868506
:1010B00080FD08C04217530708F49A013A83298338
:1010C00081E00FC02017310758F042E050E0BE0128
:1010D0006F5F7F4FC7018EDF81E003C080E001C0FA
:1010E00080E0882331F049815A81B601C70182DF4F
:1010F00002C080E090E00F900F90DF91CF911F91A0
:101100000F91FF90EF90DF90CF900895AF92BF9234
:10111000CF92DF92EF92FF920F931F93CF93DF93C3
:101120007C015B01E9014217530708F4EA012097AB
:1011300081F1F7010081118184819581801B910BE0
:101140006E018C179D0708F46C01F70164857585A5
:10115000600F711FA601C5010E94772ECC16DD0617
:1011600058F4AE014C195D09F70164857585C50118
:101170008C0D9D1D0E94772E0C0F1D1FF701848181
:1011800095810817190710F0081B190BF701118337
:101190000083CE01DF91CF911F910F91FF90EF90CF
:1011A000DF90CF90BF90AF9008956F927F928F9213
:1011B0009F92AF92BF92CF92DF92EF92FF920F93E6
:1011C0001F93CF93DF931F921F92CDB7DEB76C01B1
:1011D0004B015A01790101151105B1F0FC01608044
:1011E0007180A801BE016F5F7F4F90DF89819A8176
:1011F000E01AF10AA816B90630F4F601718260828D
:10120000A12CB12C01C05C019701A501B401C6015C
:101210007DDF0F900F90DF91CF911F910F91FF9085
:10122000EF90DF90CF90BF90AF909F908F907F9086
:101230006F900895CF92DF92EF92FF920F93CF932A
:10124000DF93EC016B01413011F401E001C000E0DB
:10125000C114D10419F4CC24C394D12CCE014096EE
:10126000C817D90720F421968FD87C0102C0E12C41
:10127000F12CE114F10439F09601AE01B701615F80
:101280007F4FC701A7DEC701DF91CF910F91FF907C
:10129000EF90DF90CF9008950F930FB6F8940F92D0
:1012A000FC0120853185232B71F422853385232B86
:1012B00061F4268137814481558164857585068571
:1012C00089DE81E003C080E001C080E00F900FBEA6
:1012D0000F910895FC012481358180819181820FD5
:1012E000931F42815381841B950B019782179307AB
:1012F00010F0821B930B08952F923F924F925F92B2
:101300006F927F928F929F92AF92BF92CF92DF9215
:10131000EF92FF920F931F93CF93DF93CDB7DEB77A
:101320002B970FB6F894DEBF0FBECDBF4C017B8765
:101330006A871A010E831F8328873987FC018481FD
:1013400095810197268520FF0CC02A01F2E04F0EFF
:10135000511C8415950558F41E821F821886198623
:1013600006C08417950710F02A0101C02C018E8158
:101370009F81A885B985892B8A2B8B2B09F436C0D0
:10138000CE01019682D70FB6F8940F92C401A2DF66
:101390003C018415950538F560E080E090E00E94FE
:1013A00004160E94D611F401938782870F900FBE16
:1013B000AE80BF80C884D984E12CF12C00E010E01D
:1013C000980140E050E0BA0180E00E944413F4012B
:1013D00013861286BE016A5F7F4FCE0101967CD7CD
:1013E000882389F205C00F900FBE02C0612C712CBA
:1013F0006114710419F4C4016DDF3C018201930191
:10140000A1016A857B85C4013EDE6C01892BE9F070
:10141000C401CDDDF4012681378182179307A8F03E
:1014200090D3F40180859185892B71F08085918519
:10143000E12CF12C00E020E030E0A90160E00E9406
:10144000EB13F40111861086BCD4C6012B960FB69F
:10145000F894DEBF0FBECDBFDF91CF911F910F91EA
:10146000FF90EF90DF90CF90BF90AF909F908F90C4
:101470007F906F905F904F903F902F900895AF9224
:10148000BF92CF92DF92EF92FF920F931F93CF9371
:10149000DF93EC017B015A0169018E8580FF04C056
:1014A0008A010E5F1F4F01C08A01CE0113DF9C012C
:1014B000A501B701CE01E7DD5C01892BC1F0CE01AA
:1014C00076DD2E813F818217930788F08885998584
:1014D000892B69F088859985E12CF12C00E020E0CA
:1014E00030E0A90160E00E94E21419861886C50167
:1014F000DF91CF911F910F91FF90EF90DF90CF90F0
:10150000BF90AF9008954F925F926F927F928F92AB
:101510009F92AF92BF92CF92DF92EF92FF920F9382
:101520001F93CF93DF93EC012B013A01580169011E
:101530008E8580FF05C06894882481F8912C02C0B4
:10154000812C912CA114B104C104D10439F10FB63E
:10155000F8940F92CE012BDD7C018816990640F09D
:1015600060E080E090E00E94041620D79987888789
:101570000F900FBE8E149F04A0F0E12CF12C00E020
:1015800010E0980140E050E0BA0180E00E9444136E
:1015900019861886CE010BDD7C0103C0CE0107DD64
:1015A0007C018E149F04E8F484019701A301B20129
:1015B000CE01FBDD6C01892BB1F0C3D28A859B85FE
:1015C000892B69F08A859B85E12CF12C00E020E0D5
:1015D00030E0A90160E00E94EB131B861A86F1D36C
:1015E00002C0C12CD12CC601DF91CF911F910F9168
:1015F000FF90EF90DF90CF90BF90AF909F908F9033
:101600007F906F905F904F900895E0912313F09139
:101610002413808181110CC08FEF9FEFDC01809338
:10162000ED129093EE12A093EF12B093F012089582
:10163000E0912313F09124130780F085E02D808141
:101640009181A281B3818093ED129093EE12A093C9
:10165000EF12B093F0120895CF93DF93EC018B8DCE
:101660009C8D0E946D02CE010E946D02DF91CF9190
:1016700008954F925F926F927F928F929F92AF9256
:10168000BF92CF92DF92EF92FF920F93CF93DF93AF
:101690002C015B014A013901E60165EA70E08B8D9E
:1016A0009C8D0E94802E8B8D9C8D21E0821A91084A
:1016B000880E991EA114B10489F415C0822F90E000
:1016C000F501E80FF91F3081DE01A80FB91F5D9603
:1016D0003C938081882329F02F5F01C020E02031D6
:1016E00068F31CA601C01D8E0A3008F009E00A8FBD
:1016F0000DA71EA6CE0102960E94BB02CE010E9639
:101700000E94BB02DB87CA878AE090E0A0E0B0E0DD
:10171000801B9109A109B1098E879F87A88BB98B7E
:10172000DF8BCE8B84E0FE01BF96DF011D928A9590
:10173000E9F71BAAA301B201C4010E942F039983F8
:101740008883E114F10419F0F701D183C083DF919C
:10175000CF910F91FF90EF90DF90CF90BF90AF901F
:101760009F908F907F906F905F904F900895CF9350
:10177000C0E009C02BE0C29FC0011124855C9C4ED3
:101780000E94AA02CF5FCA30A8F380E393E10E94CF
:10179000AA0285E293E10E94AA0286E193E10E94F7
:1017A000AA028BE093E10E94AA028FEF92E10E94CD
:1017B000AA0280E393E1909324138093231385E29C
:1017C00093E19093221380932113CF910895CF93A7
:1017D000DF93EC010FB6F8940F928091FE128F5FA9
:1017E0008093FE128091A9139091AA13892B51F432
:1017F000D093AA13C093A9138091FE12813091F463
:10180000B6DF10C08091F81281110CC0E091A913CD
:10181000F091AA13928D8A8D891720F0D093AA1384
:10182000C093A9138091F1128F5F8093F112EA8D1A
:101830008091F9128E1710F4E093F9128BE08E9FCD
:10184000F0011124E55CFC4E0180F281E02DFF8364
:10185000EE832681378139872887A681B7819E014B
:101860002E5F3F4F15963C932E9314973783268314
:10187000EA8D8E9FF0011124E55CFC4EFD87EC871C
:1018800080818F5F80830F900FBE8091F812882334
:1018900051F0E091A913F091AA13928D8A8D9817B7
:1018A00010F40E947803DF91CF910895CF93DF93D6
:1018B0001BC00FB6F8940F92E0911213F09113131E
:1018C000C085D185CE0102960E94FC028091FE1255
:1018D00081508093FE1280910A13815080930A13E5
:1018E0000F900FBECE01B8DE80910A138111E1CFB7
:1018F000DF91CF9108958F929F92AF92BF92CF9236
:10190000DF92EF92FF92CF93DF936B017C01C42FA4
:101910008090FA129090FB12A090FC12B090FD12F1
:101920008091A9139091AA1302960E94FC028FEF56
:10193000C816D806E806F806B1F5CC23A1F1EFEFFA
:10194000F2E1A181B281C091A913D091AA13BF8302
:10195000AE83C091A913D091AA1316968D919C9134
:101960001797998788871696CD91DC911797809164
:10197000A9139091AA1302969D838C838091A91339
:101980009091AA13029617969C938E931697A09106
:10199000A913B091AA131D96FC93EE931C97808116
:1019A0008F5F80833FC0C80CD91CEA1CFB1CE091F0
:1019B000A913F091AA13C282D382E482F582C814DB
:1019C000D904EA04FB0468F46091A9137091AA1386
:1019D00080912113909122136E5F7F4F0E94BF026E
:1019E00021C06091A9137091AA1380912313909143
:1019F00024136E5F7F4F0E94BF028091ED12909181
:101A0000EE12A091EF12B091F012C816D906EA06B4
:101A1000FB0640F4C092ED12D092EE12E092EF126B
:101A2000F092F012DF91CF91FF90EF90DF90CF9086
:101A3000BF90AF909F908F9008952F923F924F92BA
:101A40005F926F927F928F929F92AF92BF92CF924E
:101A5000DF92EF92FF920F93CF93DF933C011B0134
:101A60004A012901CA010E94C4016C01892B71F04D
:101A700084E390E00E94C401EC01892B19F0DC8E14
:101A8000CB8E06C0C6010E946D0202C0C0E0D0E04D
:101A9000209761F0A12CB12C6E019201A401B1013B
:101AA000C301E7DDCE0193DE81E001C08FEFDF915E
:101AB000CF910F91FF90EF90DF90CF90BF90AF90BC
:101AC0009F908F907F906F905F904F903F902F905E
:101AD0000895EF92FF920F930F2EFBEEEF2EF2E19F
:101AE000FF2EF02D00E020E030E040EC50E067E910
:101AF00072E08DEC90E0A1DF813011F40E94A81615
:101B00008130C9F4F8948FEF9FEFDC018093ED12E0
:101B10009093EE12A093EF12B093F01281E08093B5
:101B2000F8121092FA121092FB121092FC121092FC
:101B3000FD120E944603809106020F91FF90EF90E4
:101B400008958091EA128F5F8093EA1208950FB68C
:101B5000F8940F926091FA127091FB128091FC122E
:101B60009091FD120F900FBE0895CF92DF92EF92E9
:101B7000FF92CF93DF938091EA12811105C1C0904B
:101B8000FA12D090FB12E090FC12F090FD128FEF51
:101B9000C81AD80AE80AF80AC092FA12D092FB12C0
:101BA000E092FC12F092FD12C114D104E104F104A0
:101BB000B1F480912313909124132091211330913B
:101BC0002213309324132093231390932213809392
:101BD00021138091F2128F5F8093F21216DD8091B3
:101BE000ED129091EE12A091EF12B091F012C81682
:101BF000D906EA06FB0620F480E0B2C081E001C00D
:101C000080E0E0912313F0912413908191110CC096
:101C10004FEF5FEFBA014093ED125093EE126093D5
:101C2000EF127093F0129CC0E0912313F0912413F3
:101C30000780F085E02D0084F185E02D42815381FD
:101C400064817581C416D506E606F70648F440930C
:101C5000ED125093EE126093EF127093F01280C069
:101C6000A485B585C681D781208531853F832E83A4
:101C7000C085D185268137813D832C8311964D9176
:101C80005C9112979F012E5F3F4F4217530731F42B
:101C90004085518512965C934E9311971586148654
:101CA0009C9191509C93A08DB18D109709F1C289A0
:101CB000D389448955895F834E83C489D5894289F4
:101CC00053895D834C8311966D917C911297AF017E
:101CD000425F5F4F6417750731F444895589129646
:101CE0005C934E931197118E108E9C9191509C9302
:101CF000A28D9091F9129A1710F4A093F9129BE01B
:101D00009A9FD0011124A55CBC4E11960D90BC91F8
:101D1000A02DB783A68316964D915C911797518796
:101D200040871696CD91DC9117973D832C831796AB
:101D30003C932E931697A28D9A9FD0011124A55CF7
:101D4000BC4EB587A4879C919F5F9C93228DE091A8
:101D5000A913F091AA13928D291708F04FCF51CFF4
:101D6000E091A913F091AA13E28D9BE0E99FF001A5
:101D70001124E55CFC4E9081923008F081E0909156
:101D8000F312911116C016C08091F4129091F512C1
:101D9000A091F612B091F7120196A11DB11D80938A
:101DA000F4129093F512A093F612B093F71280E01C
:101DB00001C081E0DF91CF91FF90EF90DF90CF9055
:101DC0000895CF92DF92EF92FF92CF93DF930FB6F9
:101DD000F8940F928091EA1281508093EA128091D8
:101DE000EA128111BEC08091FE12811188C0BCC070
:101DF000E0911D13F0911E130084F185E02DA08D5C
:101E0000B18DC289D389848995899F838E83C48942
:101E1000D589828993899D838C8311962D913C91DC
:101E20001297CF010E962817390731F484899589C6
:101E300012969C938E931197118E108E8C918150D7
:101E40008C93A485B585C681D781808591859F8334
:101E50008E83C085D185868197819D838C831196E1
:101E60008D919C9112979F012E5F3F4F8217930790
:101E700031F48085918512969C938E9311971586E7
:101E800014868C9181508C93A28D8091F9128A17BF
:101E900010F4A093F9128BE08A9FD0011124A55C65
:101EA000BC4E11960D90BC91A02DB783A6831696BB
:101EB0004D915C911797518740871696CD91DC9193
:101EC00017973D832C8317963C932E931697A28DDC
:101ED0008A9FD0011124A55CBC4EB587A4878C9144
:101EE0008F5F8C93928DA091A913B091AA135A96EB
:101EF0008C91981730F081E08093F31202C0E0E0FB
:101F0000F0E080911613811173CFEF2B09F07DDB88
:101F1000C090F412D090F512E090F612F090F71203
:101F2000C114D104E104F104A1F01FDE882319F0EB
:101F300081E08093F31281E0C81AD108E108F1082A
:101F4000A1F71092F4121092F5121092F61210925C
:101F5000F7128091F312882331F00E94780381E018
:101F600003C080E001C080E00F900FBEDF91CF91F1
:101F7000FF90EF90DF90CF900895CF92DF92EF9295
:101F8000FF926B017C01672B682B692B39F0D9DD3F
:101F900040E0C701B601AFDC14DF01C080E0811171
:101FA00002C00E947803FF90EF90DF90CF900895D9
:101FB0008091EA12882321F081E08093F312089542
:101FC0001092F312E091A913F091AA1320813181AC
:101FD000E091A913F091AA13838D948D8217930732
:101FE00060F06091A9137091AA13635E7F4F809196
:101FF000A9139091AA130E9436198091F91201C079
:102000008150282F30E09BE0929FF001939FF00DCC
:102010001124E55CFC4E9081992391F39BE0929F03
:10202000A001939F500D1124DF010180F281E02D6A
:102030000480F581E02D1296FC93EE931197425C9B
:102040005C4EE417F50729F444815581FD01528364
:1020500041839BE0929FF001939FF00D1124E55C7A
:10206000FC4E0180F281E02D208531853093AA134A
:102070002093A9138093F9120895CF92DF92EF92E3
:10208000FF926A017B016091A9137091AA13625FAC
:102090007F4F0E94BF0241E0C701B6012CDCFF90D8
:1020A000EF90DF90CF900895CF93DF93FC01CB01A9
:1020B000BA01A181B281C091A913D091AA13BB8B9F
:1020C000AA8BC091A913D091AA1316964D915C9139
:1020D00017975D8B4C8B1696CD91DC91179740919D
:1020E000A9135091AA13425F5F4F5D834C834091C7
:1020F000A9135091AA13425F5F4F17965C934E93BA
:102100001697A091A913B091AA135996FC93EE9338
:10211000589730813F5F3083222319F06FEF7FEFB4
:10212000CB01422FE8DBDF91CF910895CF93DF936E
:10213000DC011796ED91FC9118970084F185E02D54
:10214000A08DB18DC289D389848995899F838E831F
:10215000C489D589828993899D838C8311968D91B9
:102160009C9112979F01225F3F4F8217930731F492
:102170008489958912969C938E931197118E108E57
:102180008C9181508C938091EA12811152C0A48568
:10219000B585C681D781808591859F838E83C085D3
:1021A000D185868197819D838C8311968D919C9199
:1021B00012979F012E5F3F4F8217930731F480855E
:1021C000918512969C938E931197158614868C9107
:1021D00081508C93A28D8091F9128A1710F4A093EC
:1021E000F9128BE08A9FD0011124A55CBC4E119698
:1021F0000D90BC91A02DB783A68316964D915C914E
:102200001797518740871696CD91DC9117973D839C
:102210002C8317963C932E931697A28D8A9FD001FC
:102220001124A55CBC4EB587A4878C918F5F8C93DD
:102230001CC046E153E1DA011196CD91DC91129771
:10224000D38BC28B8E819F81958B848B8E819F8156
:10225000DC0115963C932E9314973F832E83518F68
:10226000408FDA018C918F5F8C93928DE091A9134E
:10227000F091AA13828D891720F481E08093F312E4
:1022800001C080E0DF91CF9108950FB6F8940F92CE
:102290002091F212FC0120834091FA125091FB121E
:1022A0006091FC127091FD124183528363837483A9
:1022B0000F900FBE08952091F212FC0120834091EF
:1022C000FA125091FB126091FC127091FD12418341
:1022D00052836383748308958F929F92AF92BF92CB
:1022E000CF92DF92EF92FF920F931F93CF93DF93E2
:1022F000FB010FB6F8940F92C090FA12D090FB1227
:10230000E090FC12F090FD12DC0111960D911D91F0
:102310002D913C91149746015701801A910AA20A07
:10232000B30A40815181628173814F3FBFEF5B07E8
:102330006B077B0739F1EC01B881A091F212BA1753
:1023400059F0C016D106E206F30630F01082118271
:102350001282138281E017C084169506A606B7067E
:1023600058F4481959096A097B09408351836283EB
:102370007383A1DF80E007C0108211821282138272
:1023800081E001C080E00F900FBEDF91CF911F91DF
:102390000F91FF90EF90DF90CF90BF90AF909F9004
:1023A0008F90089581E08093F31208958091A9138E
:1023B0009091AA1308958091F812882331F08091AA
:1023C000EA12811104C082E0089581E0089580E05E
:1023D00008950F931F93CF93DF93FC01892B09F48A
:1023E00077C0828DA091A913B091AA135A969C919F
:1023F000891708F063C046855785608971897723FE
:1024000094F0A091A913B091AA135A969C914AE016
:1024100050E060E070E0491B51096109710946878D
:102420005787608B718B248535854BE0849FC00175
:102430001124855C9C4E28173907B9F5EF018F01EF
:102440000E5F1F4FC8010E94FC02E091A913F0919A
:10245000AA13E28DEA8F8091F9128E1710F4E0939F
:10246000F9128BE08E9FF0011124E55CFC4E018097
:10247000F281E02DFF83EE8326813781398728871B
:10248000A681B78115961C930E9314971783068324
:10249000EA8D8E9FF0011124E55CFC4EFD87EC87F0
:1024A00080818F5F808381E016C0A091A913B091D5
:1024B000AA135A968C91828F81E00DC095A5E09168
:1024C000A913F091AA13828D981720F080E003C021
:1024D00080E001C081E0DF91CF911F910F910895BD
:1024E0000F931F93CF93DF93FC01892B09F449C00D
:1024F00086A5815086A7228D95A5291709F443C08A
:10250000811143C0EF018F010E5F1F4FC8010E9470
:10251000FC02EDA5EA8F8AE090E0A0E0B0E08E1B1F
:102520009109A109B1098E879F87A88BB98B8091EA
:10253000F9128E1710F4E093F9128BE08E9FF001E0
:102540001124E55CFC4E0180F281E02DFF83EE83D7
:102550002681378139872887A681B78115961C93F4
:102560000E93149717830683EA8D8E9FF001112432
:10257000E55CFC4EFD87EC8780818F5F808381E086
:1025800005C080E003C080E001C080E0DF91CF9112
:102590001F910F9108950F931F93CF93DF93FC0129
:1025A000892B09F45AC085A5861708F4862F928DC9
:1025B000891709F452C026A5213009F04EC0828F38
:1025C0004685578560897189772364F04AE050E039
:1025D00060E070E0481B510961097109468757871F
:1025E000608B718B248535854BE0949FC00111244D
:1025F000855C9C4E2817390781F5EF018F010E5F2E
:102600001F4FC8010E94FC02EA8D8091F9128E17BB
:1026100010F4E093F9128BE08E9FF0011124E55C39
:10262000FC4E0180F281E02DFF83EE83268137810D
:1026300039872887A681B78115961C930E93149726
:1026400017830683EA8D8E9FF0011124E55CFC4E12
:10265000FD87EC8780818F5F8083DF91CF911F9111
:102660000F9108958091A9139091AA13892B39F0A5
:10267000E091A913F091AA1386A58F5F86A7809198
:10268000A9139091AA1308954F925F926F927F922F
:10269000AF92BF92CF92DF92EF92FF920F931F9370
:1026A000CF93DF93280139010FB6F8940F92E09190
:1026B000A913F091AA13C82FD0E0EC0FFD1F83A936
:1026C000823071F1E091A913F091AA13CE01880F25
:1026D000991F880F991FE80FF91F87A590A9A1A935
:1026E000B2A94095509560957095482359236A2367
:1026F0007B2347A750AB61AB72ABE091A913F0917C
:10270000AA13EC0FFD1F81E083ABA114B104C10437
:10271000D10431F041E0C601B501EDD80E94780343
:102720000F900FBE0FB6F8940F92E114F104A1F0D0
:10273000E091A913F091AA13CE01880F991F880F79
:10274000991FE80FF91F87A590A9A1A9B2A9F701C0
:1027500080839183A283B383E091A913F091AA139C
:10276000EC0FFD1F83A98230E9F4E091A913F091E9
:10277000AA13CE01880F991F880F991FE80FF91F20
:1027800087A590A9A1A9B2A940945094609470948F
:10279000482259226A227B2247A650AA61AA72AA1D
:1027A00081E001C080E02091A9133091AA13C20FEB
:1027B000D31F1BAA0F900FBEDF91CF911F910F91D6
:1027C000FF90EF90DF90CF90BF90AF907F906F9091
:1027D0005F904F9008958F929F92AF92BF92EF9229
:1027E000FF920F93CF93DF93DC010FB6F8940F9213
:1027F000E114F10489F0E62FF0E0EE0FFF1FEE0F79
:10280000FF1FE80FF91F87A490A8A1A8B2A8F7019D
:1028100080829182A282B38270E0FD01E60FF71FF1
:1028200083A992E093AB023001F118F4013031F04A
:102830004DC0033079F10430D1F148C0660F771FE5
:10284000660F771FFD01E60FF71F87A490A8A1A8C8
:10285000B2A8BA01A901482959296A297B2947A7A1
:1028600050AB61AB72AB01E034C0660F771F660FEF
:10287000771FFD01E60FF71F47A550A961A972A9AF
:102880004F5F5F4F6F4F7F4F47A750AB61AB72AB4E
:1028900001E01FC0660F771F660F771FFD01E60F6F
:1028A000F71F27A730AB41AB52AB01E012C082301B
:1028B00079F0660F771F660F771FFD01E60FF71F90
:1028C00027A730AB41AB52AB01E003C001E001C030
:1028D00000E0813009F069C01C96ED91FC911D97D4
:1028E0001696CD91DC91179718968D919C9119971A
:1028F0009F838E831896CD91DC91199716968D91B2
:102900009C9117979D838C83818192819D012E5F7D
:102910003F4F8217930731F418968D919C91199728
:10292000928381831D961C921E921C9780818150F8
:1029300080835A96EC915A978091F9128E1710F471
:10294000E093F9128BE08E9FF0011124E55CFC4EC0
:102950000180F281E02D1796FC93EE931697468145
:10296000578119965C934E931897C681D7813D8302
:102970002C83378326835A96EC915A978E9FF001C9
:102980001124E55CFC4E1D96FC93EE931C97808110
:102990008F5F80835A969C91E091A913F091AA13BE
:1029A000828D891710F40E9478030F900FBE802F3C
:1029B000DF91CF910F91FF90EF90BF90AF909F90DC
:1029C0008F9008958F929F92AF92BF92CF92DF9295
:1029D000EF92FF920F93CF93DF93DC01E114F104A8
:1029E00089F0E62FF0E0EE0FFF1FEE0FFF1FE80F5C
:1029F000F91F87A490A8A1A8B2A8F70180829182AC
:102A0000A282B38270E0FD01E60FF71F93A982E076
:102A100083AB023001F118F4013031F04DC00330C6
:102A200079F10430D1F148C0660F771F660F771F28
:102A3000FD01E60FF71F87A490A8A1A8B2A8BA01CC
:102A4000A901482959296A297B2947A750AB61ABBD
:102A500072AB81E034C0660F771F660F771FFD01F0
:102A6000E60FF71F47A550A961A972A94F5F5F4FF5
:102A70006F4F7F4F47A750AB61AB72AB81E01FC078
:102A8000660F771F660F771FFD01E60FF71F27A759
:102A900030AB41AB52AB81E012C0923079F0660F9F
:102AA000771F660F771FFD01E60FF71F27A730ABD3
:102AB00041AB52AB81E003C081E001C080E09130C6
:102AC00009F096C09091EA1291115FC01C96ED91A9
:102AD000FC911D971696CD91DC91179718962D9124
:102AE0003C9119973F832E831896CD91DC911997CD
:102AF00016962D913C9117973D832C8341815281ED
:102B00009D012E5F3F4F4217530731F418964D91A8
:102B10005C911997528341831D961C921E921C97BB
:102B20009081915090835A96EC915A979091F91216
:102B30009E1710F4E093F9129BE09E9FF001112480
:102B4000E55CFC4E0180F281E02D1796FC93EE933C
:102B500016974681578119965C934E931897C681B4
:102B6000D7813D832C83378326835A96EC915A97DD
:102B70009E9FF0011124E55CFC4E1D96FC93EE93A4
:102B80001C9790819F5F908321C066E173E1FB01F8
:102B9000C181D2815396DC93CE9352972E813F818F
:102BA00055963C932E9354974E815F819D01225FF1
:102BB0003F4FFA01358324833F832E8359967C93BC
:102BC0006E935897FB0190819F5F90835A962C914A
:102BD000E091A913F091AA13928D921748F4C114B1
:102BE000D10419F091E0F601908391E09093F312F3
:102BF000DF91CF910F91FF90EF90DF90CF90BF903A
:102C0000AF909F908F900895009721F48091A91321
:102C10009091AA130FB6F8940F9270E0FC01E60FA2
:102C2000F71F23A9223031F4FC01E60FF71F13AA86
:102C300081E001C080E00F900FBE0895DC01E091BB
:102C4000B513F091B613808191E0811190E09C93CF
:102C5000911108C00780F085E02D6081718182812B
:102C60009381089560E070E0CB010895CF92DF92E8
:102C7000EF92FF920F931F93FC014283538364836F
:102C80007583938782870417150726073707C0F0D7
:102C90000C191D092E093F0986859785A089B189E0
:102CA000081719072A073B0700F5BF016E5F7F4F22
:102CB0008091B3139091B4130E94BF0280E018C0BA
:102CC0000C151D052E053F0528F44C155D056E05F8
:102CD0007F0568F4BF016E5F7F4F8091B5139091BF
:102CE000B6130E94BF0280E003C081E001C081E012
:102CF0001F910F91FF90EF90DF90CF9008950FB646
:102D0000F8940F928091B1139091B213892BE9F44A
:102D100082EC93E10E94AA0287EB93E10E94AA024F
:102D200082EC93E19093B6138093B51387EB93E114
:102D30009093B4138093B31340E067E08AE00E945D
:102D40006D059093B2138093B1130F900FBE089549
:102D5000EF92FF920F93D3DF8091B1139091B21352
:102D6000892B91F00F2EFFEAEF2EF3E1FF2EF02DCD
:102D700003E020E030E040EC50E06CE972E087EDE9
:102D800090E00E941D0D01C080E00F91FF90EF9038
:102D900008958F929F92AF92BF92CF92DF92EF925F
:102DA000FF920F931F93CF93DF93CDB7DEB7279793
:102DB0000FB6F894DEBF0FBECDBFE091B113F09116
:102DC000B213309781F169832A833B834C835D83FF
:102DD0009F838E836630F4F4EEDA823069F400E08B
:102DE000A7019601BE016F5F7F4F8091B113909153
:102DF000B2130E94900518C000E020E030E0A90165
:102E0000BE016F5F7F4F8091B1139091B2130E940A
:102E100090050AC020E0A801BE016F5F7F4FCF017F
:102E20000E94400601C080E027960FB6F894DEBFEE
:102E30000FBECDBFDF91CF911F910F91FF90EF900B
:102E4000DF90CF90BF90AF909F908F9008958F921A
:102E50009F92AF92BF92CF92DF92EF92FF920F9329
:102E60001F93CF93DF933BC00780F085E02D8080D8
:102E70009180A280B380C085D1858E010E5F1F4FE7
:102E8000C8010E94FC02EC89FD89CE0119958E894A
:102E900082FF25C08E859F85A889B989880D991DD7
:102EA000AA1DBB1D88169906AA06BB0670F48A8364
:102EB0009B83AC83BD83DB87CA87B8018091B51340
:102EC0009091B6130E94BF020AC0C12CD12C76018A
:102ED00000E010E0A501940160E0CE015ADFE0912E
:102EE000B513F091B61380818111BECF8091B313D9
:102EF0009091B4139093B6138093B513F093B413D9
:102F0000E093B313DF91CF911F910F91FF90EF905A
:102F1000DF90CF90BF90AF909F908F900895CF9209
:102F2000DF92EF92FF92CF93DF93EC010E94A70D07
:102F30006B017C018091AB139091AC13A091AD1308
:102F4000B091AE13C816D906EA06FB0620F47FDF5F
:102F500081E0888301C01882C092AB13D092AC1379
:102F6000E092AD13F092AE13C701B601DF91CF919D
:102F7000FF90EF90DF90CF9008954F925F926F9205
:102F80007F928F929F92AF92BF92CF92DF92EF92F9
:102F9000FF920F931F93CF93DF934B015C012901A5
:102FA0003A01E091B513F091B6130780F085E02D5A
:102FB000C085D185CE0102960E94FC028E8982FFD7
:102FC0001BC04E855F8568897989480D591D6A1D2A
:102FD0007B1D7501640193018201CE0147DE8823C8
:102FE00069F0C12CD12C760100E010E0A50194011C
:102FF00060E0CE01CEDE02C08E7F8E8BEC89FD8933
:10300000CE011995DF91CF911F910F91FF90EF9015
:10301000DF90CF90BF90AF909F908F907F906F90F8
:103020005F904F9008958F929F92AF92BF92CF92F0
:10303000DF92EF92FF921F93CF93DF931F92CDB752
:10304000DEB76B017C01142F0E94A10DCE01019609
:1030500066DF4B015C01898181112DC011110DC00A
:103060008C149D04AE04BF0440F00E94E10EA50143
:103070009401C701B60181DF20C0112341F0E09126
:10308000B313F091B413808111E0811110E0B70106
:10309000A601481959096A097B09212F8091B113AA
:1030A0009091B2130E94BB070E94E10E811105C0EE
:1030B0000E94780302C00E94E10E0F90DF91CF9131
:1030C0001F91FF90EF90DF90CF90BF90AF909F90B7
:1030D0008F900895AF92BF92CF92DF92EF92FF92BE
:1030E0000F931F93CF93DF93CDB7DEB728970FB61B
:1030F000F894DEBF0FBECDBF82C0898188230CF457
:103100007EC0AE80BF80D5011C968D919C911D978D
:10311000892B21F0C50102960E94FC02CE0108967F
:10312000FEDE8B019C01E9810E2E000CFF0BEA30C4
:10313000F10508F064C08827EE58FF4F8F4F0C94BC
:103140004A2DF50186898160868BCA80DB80EC8000
:10315000FD8046855785608971894C0D5D1D6E1D0A
:103160007F1DC50183DD882309F449C0D50154962C
:10317000ED91FC915597C5011995F501868982FF5E
:103180003EC04A815B816C817D8186859785A0895F
:10319000B1899A01AB01280F391F4A1F5B1FC12C4F
:1031A000D12C760100E010E060E0C501F2DD27C01F
:1031B000D50156968C9156978E7F56968C931FC04C
:1031C000F50186898160868B4A815B816C817D8176
:1031D00046875787608B718B400F511F621F731F8B
:1031E00068017901C50142DD0AC0F501868981FDCA
:1031F00004C0C5010E946D0202C08E7F868B20E054
:1032000030E0A901BE016F5F7F4F8091B1139091B3
:10321000B2130E947B06811170CF28960FB6F894E6
:10322000DEBF0FBECDBFDF91CF911F910F91FF90F9
:10323000EF90DF90CF90BF90AF900895089584B144
:10324000806884B985B1806885B9089583B1806844
:1032500083B90895F4DF2FEF80E792E0215080409A
:103260009040E1F700C00000F1DFF5CFE8DF2FEF7D
:1032700087EA91E6215080409040E1F700C00000CD
:10328000E5DFF5CFF4D3282F30E02115310579F0B3
:103290002330310561F01F928F9384EA92E09F936F
:1032A0008F930E94D62E0F900F900F900F9064E690
:1032B00070E080E090E00E94BD0FEED3282F30E058
:1032C0002115310579F02330310561F01F928F937C
:1032D0008EEB92E09F938F930E94D62E0F900F90CB
:1032E0000F900F9064E670E080E090E00E94BD0FC8
:1032F0004FEF5FEFBA0180914615909147150E94FC
:103300000A07F0D3C6E3D5E19B838A8310D4888370
:1033100099839F938F938B818F938A818F9389ED6C
:1033200092E09F938F930E94D62E2091401530916A
:1033300041158A819B810F900F900F900F900F90F5
:103340000F9082179307B0F48CEF92E00E94E92E61
:1033500064E680E00E94C12268E270E080E090E0D4
:103360000E94BD0F88E193E00E94E92E6CE980E0A5
:103370000E94C12200E020E030E0A90160E070E09E
:1033800080914615909147150E94900568E476E279
:1033900080E090E00E94BD0F75CF68EC70E080E0A7
:1033A00090E00E94BD0F0E94B728882361F01F9211
:1033B0008F9383E393E09F938F930E94D62E0F9079
:1033C0000F900F900F9068E476E280E090E00E940A
:1033D000BD0FE3CF0F93CF93DF9300D01F92CDB7F4
:1033E000DEB74FEF5FEFBA01809146159091471518
:1033F0000E940A07CE0101960E94C92881111BC0B4
:1034000069817A818B819C8198D27F936F9389E4C3
:1034100093E09F938F930E94D62E69817A818B814E
:103420009C818BD270933D1560933C150F900F904B
:103430000F900F9006C0833021F482E593E00E9444
:10344000E92E209144153091451580913C159091BD
:103450003D158217930740F464E681E00E94C12283
:103460008FE593E00E94E92E209144153091451597
:1034700080913C1590913D152817390740F46CE96F
:1034800081E00E94C12288E793E00E94E92E00E0DB
:1034900020E030E0A90160E070E080914615909155
:1034A00047150E9490050F900F900F900F90DF919D
:1034B000CF910F9108950F931F93CF93DF93CDB7C3
:1034C000DEB764970FB6F894DEBF0FBECDBF81E0C4
:1034D0000E940528A4D420D79F938F9383E993E07B
:1034E0009F938F930E94D62E18D616D79F938F93B3
:1034F00086EA93E09F938F930E94D62E8E010F5FF2
:103500001F4FC8019ED408D71F930F939F938F938B
:103510008FEB93E09F938F930E94D62EC801ADD47A
:10352000FBD69F938F931F930F9383ED93E09F930D
:103530008F930E94D62EA80168EE73E089E094E094
:10354000CAD6EAD69F938F931F930F9388EE93E08A
:103550009F938F9389E094E09F938F938AE194E007
:103560009F938F930E94D62EBBD4D6D69F938F93D2
:1035700080E594E09F938F930E94D62E0FB6F89427
:10358000DEBF0FBECDBF81E0A5D5C6D69F938F937A
:103590008FE594E09F938F930E94D62E84EF91E065
:1035A000A4D5BAD69F938F9381E08F9384EF8F93A6
:1035B00080E894E09F938F930E94D62E0FB6F894E4
:1035C000DEBF0FBECDBF1AE080E090D4082FA4D696
:1035D0009F938F931F921F9380EA94E09F938F9302
:1035E0000E94D62E0F900F900F900F900F900F907B
:1035F000083041F066E371E080E090E00E94BD0F8A
:10360000115011F7083029F480EC94E00E94E92E63
:1036100007C087ED94E00E94E92E0E947803FDCF59
:1036200064960FB6F894DEBF0FBECDBFDF91CF9189
:103630001F910F91089581E0E4D362E070E080E093
:1036400090E00E94BD0F80E0DCD366E970E080E08E
:1036500090E00E94BD0F8ED32EDF66E970E080E01F
:1036600090E00E94BD0FE3EEF3E198E0918381E0EA
:103670008083EDECF3E19183808360E177E280E089
:1036800090E00E94BD0F4FEF5FEFBA0180914615A9
:10369000909147150E940A078BEE94E00E94E92E54
:1036A000A6E3B5E112968C91129713969C9113970D
:1036B000E3EEF3E1928383838C9111969C911197B1
:1036C0009483858314968C91149715969C911597E5
:1036D0009683878316968C91169717969C91908760
:1036E0008187BF0180E02BD48D3029F489EF94E0ED
:1036F0000E94E92E5DC08E3009F056C089EF94E03B
:103700000E94E92E0FEF1FEF980146E150E06DECAB
:1037100073E180913415909135150E94830ACDECA8
:10372000D3E1998188811F929F931F928F9388E0A4
:1037300095E09F938F930E94D62E89810F900F90D2
:103740000F900F900F900F90883091F58A8190E044
:10375000982F88272B81820F911DAEE3B5E111963A
:103760009C938E938C8190E0982F88272D81820FD7
:10377000911D13969C938E9312978E8190E0982FB3
:1037800088272F81820F911D15969C938E931497F5
:10379000888590E0982F88272985820F911D17969C
:1037A0009C938E93169704C089E395E00E94E92EBE
:1037B00000E020E030E0A90160E070E08091461573
:1037C000909147150E94900558CF81B1816881B9C9
:1037D00080E00E94B02685E00E94B72741E060E0CB
:1037E00070E08CE290E00E941A0990933515809366
:1037F0003415BC0181E0C5D2E6E3F5E115821482FF
:10380000138212821782168211821082EEE3F5E192
:103810001582148288EE93E0938382831782168246
:10382000118210820CD1882369F01F928F938CE44F
:1038300095E09F938F930E94D62E0F900F900F903C
:103840000F9004C08AE695E00E94E92E83E040D6FE
:1038500085E291E062D686E995E00E94E92E8AEE43
:1038600099E10E948728882369F01F928F938BEA41
:1038700095E09F938F930E94D62E0F900F900F90FC
:103880000F9004C089EC95E00E94E92E0E94A228C6
:10389000882361F01F928F9382EE95E09F938F9320
:1038A0000E94D62E0F900F900F900F9082C6089511
:1038B0008CDFE12CF12C03E020E030E048E851E01F
:1038C00064E076E08BE19BE10E941D0D01E020E0C9
:1038D00030E040EC50E06EE076E082E499E10E9456
:1038E0001D0D20E030E040EC50E06CE176E088E037
:1038F00091E00E941D0D20E030E040EC50E065E2D8
:1039000076E08DEC99E10E941D0D81E00E94340665
:103910009093471580934615009741F000E020E012
:1039200030E0A90160E070E00E94900580E396E03D
:103930000E94E92E0E94690DFFCF33D088F09F5777
:1039400090F0B92F9927B751A0F0D1F0660F771FEB
:10395000881F991F1AF0BA95C9F712C0B13081F0CB
:103960003AD0B1E0089537C0672F782F8827B85F25
:1039700039F0B93FCCF3869577956795B395D9F72C
:103980003EF490958095709561957F4F8F4F9F4F36
:10399000089557FD9058440F551F59F05F3F71F03F
:1039A0004795880F97FB991F61F09F3F79F08795A6
:1039B0000895121613061406551FF2CF4695F1DF2F
:1039C00008C0161617061806991FF1CF86957105BF
:1039D000610508940895E894BB2766277727CB01F3
:1039E00097F908956530F1F4FA0180818F7390E0C2
:1039F000982F88272181822B90930A0280930902B5
:103A00008281F0E48F9FC0011124FA012381269561
:103A10002695822B909308028093070281E0809381
:103A2000F9130895643051F080E090E49093080217
:103A30008093070290930A028093090208950F93DE
:103A40001F9302EF1CE120E034E244EF50E060E01D
:103A500087E20E94B3299093FB138093FA1321E02D
:103A6000892B09F020E0822F1F910F9108958091FA
:103A7000FA139091FB13009759F040E060E070E07A
:103A80000E94042A843031F41092F91380E00895E2
:103A900082E0089583E008958091FA139091FB13DA
:103AA000009739F064E00E94502A853021F083E0CD
:103AB000089582E0089580E0089560910902709170
:103AC0000A0280E090E00E94352C20E030E048ECD3
:103AD00052E40E949E2C20E038EF4FE756E40C940D
:103AE000C32B0895EADF20E030E040E251E40E9479
:103AF0009E2C23DFCB01089560910702709108028C
:103B000080E090E00E94352C20E030E045E253E474
:103B10000E949E2C20E038EF4FE756E40E94C32B12
:103B200020E030E040E252E40C945C2B0895E4DFA6
:103B300020E030E040E251E40E949E2C0E942E2CB6
:103B4000CB0108950F931F93CF93DF931F921F9282
:103B5000CDB7DEB78C0119822DC0E0913314EC3261
:103B600050F481E08E0F80933314F0E0EB59FB4E5C
:103B70008A81808302C0109233148A818A30D1F402
:103B80004091331450E0FA01ED59FB4E1082415040
:103B900051099E012F5F3F4F65E674E18091361415
:103BA000909137140E943F0A898181110E94780305
:103BB00010923314BE016E5F7F4FC8013BD688233D
:103BC00061F20F900F90DF91CF911F910F910895A7
:103BD0000F931F93CF93DF938C01EB0180913614E9
:103BE000909137140E944C09B8018CEF93E10E9428
:103BF000B72E209779F0ECEFF3E101900020E9F780
:103C0000319780E290E091838083BE018CEF93E155
:103C10000E94AC2EECEFF3E1DF010D900020E9F7FC
:103C200011978DE09AE011969C938E9312961C92B8
:103C300001900020E9F73197EC5FF341AE2F8CEF54
:103C400093E1AC016A2F80913814909139149DD57D
:103C5000811111C008E215E020E030E04DE250E0B3
:103C60006FEB74E180913614909137140E94830AAF
:103C70008FEB94E102C080E090E0DF91CF911F9143
:103C80000F9108952F923F924F925F926F927F9281
:103C90008F929F92AF92BF92CF92DF92EF92FF925C
:103CA0000F931F93CF93DF935C01FC0101900020E1
:103CB000E9F731976F01C81AD90A5C2C0F2EFBED7A
:103CC0008F2EF8E09F2EF02DE12CF12C4C2C37019B
:103CD000F40101811281E80109900020E9F72197A0
:103CE000C01BD10B3C2EF9E0CF16D10458F0F401E3
:103CF0002080FEE02F1206C0B801C5010E94872E69
:103D0000892B09F5442D351408F44C2F50E0B801E7
:103D1000C5010E94BE2E892B49F4F301EE0FFF1F4F
:103D2000E60DF71DE552F74F20800DC08FEFE81A22
:103D3000F80AE3E08E0E911CF1E1EF16F10439F67A
:103D40006894222424F8822DDF91CF911F910F9146
:103D5000FF90EF90DF90CF90BF90AF909F908F90AB
:103D60007F906F905F904F903F902F90089530DF3D
:103D700089CF089580913614909137140C944C0992
:103D800008958F929F92AF92CF92EF920F931F93CD
:103D9000CF93C82F8B0141E060E070E088EC90E0A9
:103DA0000E941A0990933714809336141093351497
:103DB000009334140F2EF2EA8F2EFDE19F2EF02D8A
:103DC0006894AA24A6F86894CC24C6F8E12C00E0F4
:103DD00023E040E051EE60E070E08C2F06D4909339
:103DE000391480933814E7E0F1E0808180618083AA
:103DF000CF911F910F91EF90CF90AF909F908F90A8
:103E00000895882331F0E8E0F1E080818F7E80839F
:103E10000895E8E0F1E0808180618083089560E0AA
:103E200070E081E696E0D4DEEFEBF4E10190002053
:103E3000E9F73197EF5BF44181E0759708F080E096
:103E40000895CF93DF93EC0160E070E082E796E0A5
:103E5000BFDEEFEBF4E101900020E9F7E05DF44113
:103E600039F46FEB74E1CE010E94B72E80E002C0FE
:103E7000188281E0DF91CF910895FC01019000202C
:103E8000E9F79F01215131092817390729F4BC01AD
:103E900080EA96E06CCF089589E00895FC010190D6
:103EA0000020E9F79F01215131092817390729F42A
:103EB000BC018FEA96E05BCF089589E00895FC018C
:103EC00001900020E9F79F01215231092817390795
:103ED00029F4BC018EEB96E04ACF089589E008955D
:103EE00060E070E08DEF96E042CF08950F931F934E
:103EF000E82FF0E0EE0FFF1FE952F74F608171816C
:103F000086E097E034DF811114C008E215E020E07C
:103F100030E04DE250E06FEB74E180913614909107
:103F200037140E94830A882321F08FEB94E1AADEE4
:103F300003C08FEB94E1A6DE1F910F9108950F93BC
:103F40001F93CF93DF931F92CDB7DEB7DB0111969E
:103F50009C911197953108F0B4C0992381F160E0EC
:103F600070E0272F30E0462F50E0FD01E40FF51FF1
:103F7000928192959F709A3010F0995C01C0905D8B
:103F8000F901E05BFB4E90832F5F3F4FFD01E40F93
:103F9000F51F92819F70492F50E04A30510514F06F
:103FA000995C01C0905DF901E05BFB4E90837E5F00
:103FB0006F5F11969C911197691798F201C070E09C
:103FC000E72FF0E0E05BFB4E10824C91811103C0C3
:103FD0008FE097E002C081E197E020E534E13F9374
:103FE0002F931F924F939F938F9385E197E09F9319
:103FF0008F9382E994E19F938F930E94192F60E041
:1040000070E082E994E1B3DE0FB6F894DEBF0FBE34
:10401000CDBF811159C008E215E020E030E04DE24B
:1040200050E06FEB74E180913614909137140E9448
:10403000830A882309F447C08FEB94E123DE8E3096
:1040400009F042C087E0898380913414909135143F
:10405000892BA9F1BE016F5F7F4F8FEB94E168D18F
:1040600080933A14E981F0E0E154FB4EDF010D90BA
:104070000020E9F71197AE1BBF0BAA2391F0BB27D5
:10408000CD0101979C0112F42F5F3F4F3595279585
:1040900020933B14AF014F5F5F4F64E18CE394E1E9
:1040A00073D101E010E020E030E046E150E06AE347
:1040B00074E180913414909135140E947C098EE053
:1040C00003C084E101C080E00F90DF91CF911F9188
:1040D0000F910895813019F065E277E002C06EEF2C
:1040E00077E089E297E043CE08959F938F938AE526
:1040F00097E09F938F9382E994E19F938F930E941F
:10410000192F60E070E082E994E131DE0F900F90AA
:104110000F900F900F900F9008952F923F924F9213
:104120005F926F927F928F929F92AF92BF92CF9247
:10413000DF92EF92FF920F931F93CF93DF93CDB750
:10414000DEB7A0970FB6F894DEBF0FBECDBF67E80D
:1041500077E083E997E03CDD95DD8111A3C080E243
:10416000E2E2F2E0DE01119601900D928A95E1F70C
:104170009E012F5F3F4F6901E12CF12C0F2EFFE9CB
:10418000AF2EF7E0BF2EF02D02E914E10F2EF8EB71
:104190004F2EF7E05F2EF02D0F2EFFEC8F2EF7E065
:1041A0009F2EF02D0F2EF9EE6F2EF7E07F2EF02DC3
:1041B0003E2C2F2CFF92EF92BF92AF921F930F9342
:1041C0000E94192F60E070E0C80102DD5BDD0F90F6
:1041D0000F900F900F900F900F90811163C032E0FD
:1041E0003E15E8F4F60183818F9382818F9381815C
:1041F0008F9380818F93FF92EF925F924F921F93E4
:104200000F930E94192F60E070E0C801E1DC3ADDF5
:104210000FB6F894DEBF0FBECDBF811143C02F9201
:104220003F929F928F921F930F930E94192F60E0ED
:1042300070E0C801CDDC26DD0F900F900F900F903D
:104240000F900F9081112EC02F923F927F926F920C
:104250001F930F930E94192F60E070E0C801B8DC33
:1042600011DD0F900F900F900F900F900F90811114
:1042700019C03FEFE31AF30A84E0C80ED11C98E09E
:10428000E916F10409F094CF60E070E081E098E075
:104290009FDCF8DC811106C060E070E082E198E00C
:1042A00097DCF0DCA0960FB6F894DEBF0FBECDBF52
:1042B000DF91CF911F910F91FF90EF90DF90CF9002
:1042C000BF90AF909F908F907F906F905F904F9036
:1042D0003F902F900895EF92FF920F931F93CF93EB
:1042E000DF93EC018B017A0181E0F4DE81110DC0D6
:1042F000CE01D4DD811109C0C801E1DD811105C005
:10430000C701BBDD811101C0EBDDDF91CF911F91B2
:104310000F91FF90EF90089590E0FC01EE0FFF1FCA
:104320008E0F9F1FFC01E552F74F81819281089506
:10433000DC01009729F1FB012081FC0101900020A4
:10434000E9F73197E81BF90B822F90E0E817F9079E
:10435000C8F080E008C0880F382F330F330F830F69
:104360008053890F2F5FFD01E20FF11D908130ED29
:10437000390F3A3010F49111EECFFB0120830895EC
:1043800080E0089580E008950F931F93CF93DF930B
:10439000DC01EA012097E1F1FA0101900020E9F740
:1043A0003197E41BF50B329710F532C08D01040FE5
:1043B000151F30E0AE01420F531FFA019081913476
:1043C00028F09753592F5295507F03C0592F52957B
:1043D000507F2C0F3D1FF9019181913410F09753BC
:1043E00001C09053950FF80190838F5F01C080E06A
:1043F000282F220F482F50E0FE0101900020E9F7FE
:104400003197EC1BFD0B4E175F0710F48613CECFD0
:10441000DF91CF911F910F9108958091EF14860F36
:104420008093EF149091F214913079F028F092304B
:10443000A9F0933019F108956F3F09F048C0109228
:10444000EF1481E08093F2140895663809F03FC0BC
:104450001092EE1482E08093F2140895E091EE142D
:1044600081E08E0F8093EE14F0E0E451FB4E608308
:10447000823069F583E08093F21408959091EE14F0
:1044800021E0290F2093EE14963009F581110EC01A
:10449000ECEEF4E1808190E0982F88272181820F53
:1044A000911D9093F4148093F31404C01092F414AB
:1044B0001092F3141092F214E091F014F091F114B0
:1044C000309729F08091F3149091F4141995089580
:1044D0008F929F92AF92CF92EF920F930F2EFDE0AB
:1044E0008F2EF2E29F2EF02D6894AA24A4F86894EF
:1044F000CC24C4F8E12C00E023E040E855E260E081
:1045000070E073D09093F6148093F5140F91EF90B0
:10451000CF90AF909F908F9008959093F1148093D7
:10452000F0140895CF93DF93CDB7DEB729970FB678
:10453000F894DEBF0FBECDBF89E0E2E4F2E09E0159
:104540002F5F3F4FD90101900D928A95E1F71092AC
:10455000F4141092F3148091F5149091F6140097CE
:1045600031F0422F532F69E010D180E001C082E08A
:1045700029960FB6F894DEBF0FBECDBFDF91CF9165
:10458000089565360CF064E66C390CF46CE996EF2E
:104590006902B00111246854744F811105C07093F1
:1045A000290160932801089570932B0160932A01DB
:1045B0000895EAE0F1E08081886180838FE39CE9DF
:1045C000909327018093260160E080E0DADF60E0CD
:1045D00081E0D7DFE0E2F1E08081826A8083E1E27E
:1045E000F1E080818A61808308952F923F924F92FB
:1045F0005F926F927F928F929F92AF92CF92EF9243
:10460000FF920F931F93CF93DF93CDB7DEB7F82EB2
:104610002A013B0188E090E00E94522D8C018F2DF1
:1046200090E0FC01EE0FFF1FE950FB4E1183008369
:104630000115110509F46CC0880F991FFC01E55F95
:10464000FD4F80819181D8018D939C938C2D90E0BA
:10465000880F991F880F991F0E94522D1C0186E018
:1046600090E00E94522D7C014C2DB1010E94402B04
:10467000F801F582E4828A2D90E0880F991F880F57
:10468000991F0E94522D1C0186E090E00E94522D3D
:104690007C014A2DB101F4D7D8011396FC92EE9219
:1046A000129717969C928E921697FFB6F894ED91FA
:1046B000FC91119736978081826080838D909C90C9
:1046C000C301B2010E94352C20E030E040E051E40B
:1046D0000E949E2C9B01AC0160E074E284E79BE4A5
:1046E0000E94C32B20E030E040E85FE3E5D725D906
:1046F000F40132976083D801ED91FC9111973597C1
:1047000088E98083ED91FC91349786E08083FFBE39
:10471000C801DF91CF911F910F91FF90EF90CF9043
:10472000AF909F908F907F906F905F904F903F9051
:104730002F900895CF93DF93DC01892B01F112961E
:10474000ED91FC911397938182812581981B92238F
:1047500084819817B1F0838126952823C081D18167
:10476000C20FD11D68838F5F958189238383ED916B
:10477000FC91359780818062808380E003C081E076
:1047800001C082E0DF91CF910895EF92FF920F93E5
:104790001F93CF93DF937C01009709F441C0DC01A4
:1047A0001296ED91FC91139793818281981B8581DC
:1047B00098238481891B8617A8F1662341F1842FF1
:1047C000952FDC016150462F50E04F5F5F4F480F3F
:1047D000591FE701EA81FB81938182812581981B22
:1047E00092238481981779F08C91938126952923BF
:1047F000608171818B01020F111DE80188839F5F29
:104800008581982393831196A417B50711F7D701D3
:10481000ED91FC91359780818062808380E003C0B8
:1048200081E001C082E0DF91CF911F910F91FF9055
:10483000EF9008950097D1F0DC011496ED91FC9172
:10484000159793818281981799F092818581869539
:104850008923A081B181A80FB11D8C91DB018C93BC
:104860009F5F85819823928380E0089581E0089579
:1048700083E008951F920F920FB60F9211240BB68A
:104880000F922F933F934F935F936F937F938F93E9
:104890009F93AF93BF93CF93DF93EF93FF93A09139
:1048A000F714B091F814109711F16091C6001496A6
:1048B000ED91FC911597938182812581981B92231C
:1048C0008481981761F0838126952823C081D18146
:1048D000C20FD11D68838F5F9581892383831696CC
:1048E000ED91FC911797309711F0CD011995FF913B
:1048F000EF91DF91CF91BF91AF919F918F917F9178
:104900006F915F914F913F912F910F900BBE0F9040
:104910000FBE0F901F9018951F920F920FB60F9217
:1049200011240BB60F922F938F939F93AF93BF9346
:10493000EF93FF93E091F714F091F8143097B9F0EA
:104940000280F381E02D938182819817B1F09281EA
:104950008581282F26952923A081B181A20FB11D21
:104960002C919F5F892382832093C6000BC0E1ECCA
:10497000F0E080818F7D808305C0E1ECF0E08081F4
:104980008F7D8083FF91EF91BF91AF919F918F9128
:104990002F910F900BBE0F900FBE0F901F90189588
:1049A0001F920F920FB60F9211240BB60F922F93F6
:1049B0003F934F935F936F937F938F939F93AF93A7
:1049C000BF93CF93DF93EF93FF93A091F914B0912E
:1049D000FA14109711F16091CE001496ED91FC91AC
:1049E0001597938182812581981B92238481981742
:1049F00061F0838126952823C081D181C20FD11D0A
:104A000068838F5F9581892383831696ED91FC914E
:104A10001797309711F0CD011995FF91EF91DF9124
:104A2000CF91BF91AF919F918F917F916F915F9146
:104A30004F913F912F910F900BBE0F900FBE0F9093
:104A40001F9018951F920F920FB60F9211240BB65C
:104A50000F922F938F939F93AF93BF93EF93FF93F7
:104A6000E091F914F091FA143097B9F00280F381D3
:104A7000E02D938182819817B1F092818581282F52
:104A800026952923A081B181A20FB11D2C919F5F92
:104A9000892382832093CE000BC0E9ECF0E0808173
:104AA0008F7D808305C0E9ECF0E080818F7D80837D
:104AB000FF91EF91BF91AF919F918F912F910F90A7
:104AC0000BBE0F900FBE0F901F9018951F920F9264
:104AD0000FB60F9211240BB60F922F933F934F9363
:104AE0005F936F937F938F939F93AF93BF93CF9376
:104AF000DF93EF93FF93A091FB14B091FC141097F8
:104B000011F16091D6001496ED91FC911597938167
:104B100082812581981B92238481981761F083817B
:104B200026952823C081D181C20FD11D68838F5F54
:104B30009581892383831696ED91FC911797309781
:104B400011F0CD011995FF91EF91DF91CF91BF91B8
:104B5000AF919F918F917F916F915F914F913F9115
:104B60002F910F900BBE0F900FBE0F901F901895B6
:104B70001F920F920FB60F9211240BB60F922F9324
:104B80008F939F93AF93BF93EF93FF93E091FB14A9
:104B9000F091FC143097B9F00280F381E02D9381FD
:104BA00082819817B1F092818581282F269529233B
:104BB000A081B181A20FB11D2C919F5F89238283B7
:104BC0002093D6000BC0E1EDF0E080818F7D8083E3
:104BD00005C0E1EDF0E080818F7D8083FF91EF9152
:104BE000BF91AF919F918F912F910F900BBE0F901E
:104BF0000FBE0F901F9018951F920F920FB60F9235
:104C000011240BB60F922F933F934F935F936F93A3
:104C10007F938F939F93AF93BF93CF93DF93EF9344
:104C2000FF93A091FD14B091FE14109711F16091C3
:104C300036011496ED91FC9115979381828125811F
:104C4000981B92238481981761F0838126952823ED
:104C5000C081D181C20FD11D68838F5F9581892367
:104C600083831696ED91FC911797309711F0CD0143
:104C70001995FF91EF91DF91CF91BF91AF919F91E6
:104C80008F917F916F915F914F913F912F910F90F5
:104C90000BBE0F900FBE0F901F9018951F920F9292
:104CA0000FB60F9211240BB60F922F938F939F93F1
:104CB000AF93BF93EF93FF93E091FD14F091FE1437
:104CC0003097B9F00280F381E02D938182819817AB
:104CD000B1F092818581282F26952923A081B18169
:104CE000A20FB11D2C919F5F8923828320933601EF
:104CF0000BC0E1E3F1E080818F7D808305C0E1E3BB
:104D0000F1E080818F7D8083FF91EF91BF91AF9122
:104D10009F918F912F910F900BBE0F900FBE0F9010
:104D20001F901895CF93DF931F92CDB7DEB7BE01CA
:104D30006F5F7F4F8091FF14909100157BDD811193
:104D4000F6CF898190E00F90DF91CF910895682F81
:104D50008091FF1490910015EDDC80E090E00895C3
:104D60008F929F92AF92CF92EF920F93812C912CC2
:104D70006894AA24A7F86894CC24C7F8E12C00E032
:104D800023E040E051EE60E070E02FDC90930015EE
:104D90008093FF14ECE4F5E183E192E0918380835A
:104DA000938382830F91EF90CF90AF909F908F90DD
:104DB000089590E0FC01EE0FFF1FE80FF91FEE0FC2
:104DC000FF1FEF5FFA4E238121111FC09C01220FAC
:104DD000331FF901E80FF91FEE0FFF1FEF5FFA4EC7
:104DE000A081B1814C91F901E80FF91FEE0FFF1F6F
:104DF000EF5FFA4E81E090E0028002C0880F991FB9
:104E00000A94E2F7842B8C930895FC01EE0FFF1FA8
:104E1000DF01A80FB91FAA0FBB1FAF5FBA4E0D90DD
:104E2000BC91A02D2C91E80FF91FEE0FFF1FEF5F33
:104E3000FA4E81E090E0028002C0880F991F0A9428
:104E4000E2F7809582238C93089590E0FC01EE0FA9
:104E5000FF1FE80FF91FEE0FFF1FEF5FFA4E2381D0
:104E6000211120C09C01220F331FF901E80FF91F07
:104E7000EE0FFF1FEF5FFA4EA081B1814C91F90157
:104E8000E80FF91FEE0FFF1FEF5FFA4E81E090E091
:104E9000028002C0880F991F0A94E2F7809584234C
:104EA0008C930895FC01EE0FFF1FDF01A80FB91FBF
:104EB000AA0FBB1FAF5FBA4E0D90BC91A02D2C91D5
:104EC000E80FF91FEE0FFF1FEF5FFA4E81E090E051
:104ED000028002C0880F991F0A94E2F7822B8C93FC
:104EE0000895CC24C394D12C6894BB24B2F8C1E0BB
:104EF000D5E110E08C81813081F018F1823061F5CC
:104F0000E881F9812081C6010A8002C0880F991FBB
:104F10000A94E2F7822780831FC08D818F5F8A30D9
:104F200010F48D8319C01D82E881F9812081C601AA
:104F30000A8002C0880F991F0A94E2F782278083B3
:104F40000BC00D81002329F0812F7FDF01500D83DD
:104F500003C0BC82812F2DDF1F5F2696143051F6CF
:104F600065E070E080E090E00E94BD0FC0CFEF925E
:104F7000FF920F931F93CF93DF93082F80E487B99D
:104F8000C1E0D5E10F2EF8E2EF2EF12CF02DF982E1
:104F9000E88286E08A831B8214E01C8380E009DFBC
:104FA00080E887B9FF82EE8287E0888719861A87B2
:104FB00081E0FFDE80E283BB84E390E09D878C8705
:104FC00085E08E871F86188B82E0F3DE80E1809378
:104FD000010182E091E09B8B8A8B1C8B1D8A1E8BCA
:104FE00083E0E7DEE12CF12C20E030E040EC50E003
:104FF0006EE079E081E797E20E941D0DDF91CF918D
:105000001F910F91FF90EF900895CF93DF9390E061
:10501000FC01EE0FFF1FDF01A80FB91FAA0FBB1F76
:10502000AF5FBA4ECD91DC911197488121E030E01D
:1050300012960C90129702C0220F331F0A94E2F7C7
:1050400024272883FD0181E08483DF91CF91089597
:10505000E0912115F0912215309709F019950895E6
:105060006450623008F03BC020912015223079F066
:1050700018F4213031F030C0233081F02430A1F019
:105080002BC022E02093201561E00AC20895FA01A6
:10509000808180931D1582E0DBCF089524E020936A
:1050A000201564E0FDC10895FA01818190E0982FF8
:1050B00088272081822B90931C1580931B15838158
:1050C00090E0982F88272281822B90931A15809345
:1050D000191581E0BDCF089580E0BACF08951092F0
:1050E000201586E0B5CF0895209123153091241521
:1050F0002115310541F0462FBC01C90185D182300F
:1051000021F080E0089587E0089585E008950F93E9
:105110001F93909322158093211500E318E220E05D
:1051200034E244EF50E060E089E21DD19093241511
:1051300080932315892B11F080E001C088E01F9136
:105140000F910895CF93DF931F921F92CDB7DEB7D3
:1051500080EA898383E08A831092201562E0CE0181
:105160000196C2DF0F900F90DF91CF910895CF93FA
:10517000DF931F92CDB7DEB784EB898383E0809302
:10518000201561E0CE010196AFDF0F90DF91CF9146
:1051900008952F923F924F925F926F927F928F92DB
:1051A0009F92AF92BF92CF92DF92EF92FF920F93B6
:1051B0001F93CF93DF93C0911915D0911A15CF3F4C
:1051C0002FEFD20741F060911B1570911C156F3FB6
:1051D000EFEF7E0759F44FEF5FEF6FE77FE7FC01DA
:1051E000408351836283738383E099C01C0180E014
:1051F00090E03BD32B013C01BE0180E090E035D331
:105200004B015C0180911E1590E0019624E6289FD9
:10521000B001299F700D112480911F15803269F013
:105220008033A1F08031E1F40F2EC12CD12CF8ECA9
:10523000EF2EF1E4FF2EF02D1BC00F2EC12CD12C30
:10524000F6EDEF2EF3E4FF2EF02D12C00F2EC12C41
:10525000F0E5DF2EFAE1EF2EF6E4FF2EF02D08C088
:105260000F2EC12CD12CF0E8EF2EFFE3FF2EF02DF6
:10527000072E000C880B990BFAD2A70196015ED37A
:1052800020E030E04CEC53E47ED26B017C0125E859
:105290003BEE41ED5FE3C501B40150D39B01AC018E
:1052A000C301B20109D2A70196016DD2162FD72FE3
:1052B000C82F092F2DE33AE047E15FE3C301B201B4
:1052C0003DD32B013C0126EF38E24CE55FE3C501FD
:1052D000B40134D39B01AC01C301B201EDD1A701EC
:1052E000960151D2C62ED72EE82EF92E262F372F13
:1052F000482F592F612F7D2F8C2F902F1BD31816DD
:1053000024F01C2DDD2DCE2D0F2D412F5D2F6C2F68
:10531000702FF101408351836283738380E0DF91BA
:10532000CF911F910F91FF90EF90DF90CF90BF90A2
:10533000AF909F908F907F906F905F904F903F9035
:105340002F9008958091331581110CC08CE08093CB
:10535000B8008FEF8093BB0084E08093BC0081E0B5
:10536000809333150895AF92BF92CF92DF92EF9260
:10537000FF920F931F93CF93DF93A82EB62E690150
:105380007A0184E090E08ED3EC01892B61F1A88250
:1053900081E0B81212C0C701B60120EA36E841E048
:1053A00050E056D3DA01C9014097A109B109B69579
:1053B000A79597958795898311C0C701B60120E805
:1053C0003AE146E050E044D3DA01C9014097A1092F
:1053D000B109B695A7959795879589831B830A830D
:1053E0008C2F9D2F02C080E090E0DF91CF911F9124
:1053F0000F91FF90EF90DF90CF90BF90AF90089506
:105400008091BC0081700895FF920F931F93CF93FA
:10541000DF930097D1F14A30D0F5F42E8B01EC01E7
:10542000EFDF811136C08091261590912715C8179E
:10543000D90741F087DF89818093B800D093271581
:10544000C093261581E08F0D809328158881880FE1
:1054500080932915FF2089F0F801AAE2B5E14FEF0A
:105460004F0D642F70E0CB010196B801680F791FD2
:1054700081918D93E617F707D9F788EF8093210282
:1054800085EA8093BC0084E005C086E003C087E025
:1054900001C082E0DF91CF911F910F91FF9008959D
:1054A0001F93CF93DF93009729F16B3028F5162FC8
:1054B000EC01A6DF811122C080912615909127155D
:1054C000C817D90741F03EDF89818093B800D09397
:1054D0002715C0932615109328158881880F8160A1
:1054E0008093291588EF8093210285EA8093BC0080
:1054F00085E005C086E003C087E001C082E0DF915F
:10550000CF911F9108951F920F920FB60F92112401
:105510000BB60F922F933F934F935F936F937F93AD
:105520008F939F93AF93BF93EF93FF93E091B90055
:105530008E2F90E0FC013897E135F10508F075C039
:105540008827E458FF4F8F4FA5C210922515E09190
:10555000251580912815E81770F481E08E0F80934F
:105560002515F0E0E75DFA4E80818093BB0085E869
:105570008093BC0072C084E98093BC0080912615A2
:1055800090912715DC011296ED91FC9113973097BD
:1055900009F463C020E040E050E064E019955DC08C
:1055A000E091251581E08E0F809325158091BB0039
:1055B000F0E0E75DFA4E80838091B900803411F409
:1055C000109225152091251530E08091281590E046
:1055D00001972817390724F485EC8093BC003DC05F
:1055E00085E88093BC0039C08091BB00E09125150F
:1055F000F0E0E75DFA4E808384E98093BC008091FF
:10560000261590912715DC011296ED91FC911397C8
:10561000309719F12091281549E255E165E0199577
:105620001CC085EA8093BC0018C08091B9008093AB
:10563000210284E08093BC0080912615909127156B
:10564000DC011296ED91FC911397309731F020E038
:1056500040E050E0609121021995FF91EF91BF91D8
:10566000AF919F918F917F916F915F914F913F91FA
:105670002F910F900BBE0F900FBE0F901F9018959B
:10568000FC01411101C02FD3842F90E09C012150D7
:10569000310982239323892B09F025D3413808F05F
:1056A00022D3128213824483440F41504583718375
:1056B000608380E090E008955058BB27AA270ED061
:1056C00028C119D130F01ED120F031F49F3F11F4E0
:1056D0001EF40EC10EF4E095E7FB04C1E92F0E9411
:1056E000C91C78F3BA17620773078407950720F07F
:1056F00079F4A6F50C94EB1C0EF4E0950B2EBA2F62
:10570000A02D0B01B90190010C01CA01A0011124C7
:10571000FF27591B99F0593F50F4503E68F11A1673
:10572000F040A22F232F342F4427585FF3CF469504
:1057300037952795A795F0405395C9F77EF41F1626
:10574000BA0B620B730B840BBAF09150A1F0FF0FF0
:10575000BB1F661F771F881FC2F70EC0BA0F621FDC
:10576000731F841F48F4879577956795B795F795CC
:105770009E3F08F0B1CF9395880F08F09927EE0F60
:105780009795879508950DD0C4C0BCD048F0B3D08C
:1057900038F021F45F3F21F0A5C051110C94EC1CAE
:1057A000A7C00E94C91C88F39923B9F35523A1F31C
:1057B000951B550BBB27AA2762177307840738F080
:1057C0009F5F5F4F220F331F441FAA1FA9F334D0DE
:1057D0000E2E3AF0E0E831D091505040E695001C92
:1057E000CAF72AD0FE2F28D0660F771F881FBB1F4D
:1057F000261737074807AB07B0E809F0BB0B802D29
:10580000BF01FF2793585F4F32F09E3F510570F064
:1058100069C00C94EC1C5F3FE4F3983ED4F386958A
:1058200077956795B795F7959F5FC9F7880F911D95
:105830009695879597F90895E1E0660F771F881F81
:10584000BB1F621773078407BA0720F0621B730B34
:10585000840BBA0BEE1F88F7E09508950E949D1CFB
:105860006894B1110C94EC1C0895E89409C097FB5E
:105870003EF490958095709561957F4F8F4F9F4F27
:105880009923A9F0F92F96E9BB279395F69587956B
:1058900077956795B795F111F8CFFAF4BB0F11F42E
:1058A00060FF1BC06F5F7F4F8F4F9F4F16C08823D5
:1058B00011F096E911C0772321F09EE8872F762F0B
:1058C00005C0662371F096E8862F70E060E02AF04C
:1058D0009A95660F771F881FDAF7880F9695879538
:1058E00097F9089597F99F6780E870E060E0089560
:1058F0009FEF80EC089500240A94161617061806E8
:105900000906089500240A941216130614060506C3
:105910000895092E0394000C11F4882352F0BB0F54
:1059200040F4BF2B11F460FF04C06F5F7F4F8F4FB7
:105930009F4F089569D008F48FEF08950CD0E9CFF8
:10594000DADF28F0DFDF18F0952309F0CBCFD0CFD6
:1059500011240C94EC1C0E94C91C90F3959FC1F378
:10596000950F50E0551F629FF001729FBB27F00D0D
:10597000B11D639FAA27F00DB11DAA1F649F662762
:10598000B00DA11D661F829F2227B00DA11D621FB1
:10599000739FB00DA11D621F839FA00D611D221F6B
:1059A000749F3327A00D611D231F849F600D211D4F
:1059B000822F762F6A2F11249F57504092F0E9F0E2
:1059C00088234AF0EE0FFF1FBB1F661F771F881F3B
:1059D00091505040A9F79E3F510578F083CF0C9429
:1059E000EC1C5F3FE4F3983ED4F38695779567957A
:1059F000B795F795E7959F5FC1F7FE2B880F911D2F
:105A00009695879597F90895990F0008550FAA0B59
:105A1000E0E8FEEF16161706E807F907C0F01216C1
:105A20001306E407F50798F0621B730B840B950BC4
:105A300039F40A2661F0232B242B252B21F4089519
:105A40000A2609F4A140A6958FEF811D811D0895B6
:105A5000A1E21A2EAA1BBB1BFD010DC0AA1FBB1F72
:105A6000EE1FFF1FA217B307E407F50720F0A21BE4
:105A7000B30BE40BF50B661F771F881F991F1A9451
:105A800069F760957095809590959B01AC01BD017B
:105A9000CF010895EE0FFF1F881F8BBF0790F6916F
:105AA000E02D19940F931F93CF93DF9382309105CC
:105AB00010F482E090E0E0914A15F0914B1520E05F
:105AC00030E0A0E0B0E0309719F1408151810281CF
:105AD000138148175907C8F08417950769F4109780
