S0120000342E53656D65737465722E7372656368
S1130000E5C0000004C1000002C1000000C10000FE
S1130010FEC00000FCC00000FAC00000F8C00000F0
S1130020F6C00000F4C00000F2C00000F0C0000000
S113003020C40000ECC00000EAC00000E8C00000DA
S1130040E6C00000E4C00000E2C00000E0C0000020
S1130050DEC00000DCC00000DAC00000D8C0000030
S1130060D6C000000C94B8230C940A24D0C000001D
S1130070CEC00000CCC00000CAC00000C8C0000050
S1130080C6C00000C4C00000C2C00000C0C0000060
S11300900C944E240C94A024BAC000000C94012AA1
S11300A0B6C00000B4C00000B2C00000B0C0000080
S11300B0AEC00000ACC00000AAC00000A8C0000090
S11300C0A6C00000A4C00000A2C000000C94E42458
S11300D00C9436259CC000000C947A250C94CC25F5
S11300E096C0000001190119011938194019551950
S11300F00119011938194019232A932A932A932A9A
S1130100932A932A932A932A232A932A932A932A73
S1130110932A932A932A932A252A932A932A932A61
S1130120932A932A932A932A932A932A932A932AE3
S1130130932A932A932A932A252A932A932A932A41
S1130140932A932A932A932A932A932A932A932AC3
S1130150932A932A932A932A8F2A932A932A932AB7
S1130160932A932A932A932A5A2A932A932A932ADC
S1130170932A932A932A932A932A932A932A932A93
S1130180932A932A932A932A4E2A932A932A932AC8
S1130190932A932A932A932A722A0E94510C8091BB
S11301A08512823008F09FD20E947E19F6CFCF9339
S11301B0DF931F92CDB7DEB7CE0101960E947E1663
S11301C049810E9473180E94CA18F6CF11241FBED9
S11301D0CFEFD1E2DEBFCDBF00E00CBF18E0A0E05E
S11301E0B2E0E8EEF2E600E00BBF02C007900D9229
S11301F0A036B107D9F724E1A0E6B8E001C01D920A
S1130200A638B207E1F70E940A1C0C947231F8CEAA
S113021066E371E080E090E00E941D100E94442299
S113022090E00097A9F39F938F938FE692E09F93BA
S11302308F930E94542E0F900F900F900F90E8CF41
S11302400F93CF93DF93C82FD92F4FEF5FEFBA01EE
S113025080917A1490917B14D8D5EAE6F4E1C483B2
S1130260D583DF93CF9387E892E09F938F930E9487
S1130270542E00E020E030E0A90160E070E08091BD
S11302807A1490917B1447D40F900F900F900F9095
S1130290DF91CF910F910895ECE6F8E0A0E7B8E084
S11302A0B183A08313821282E0E3F2E1F0936B083E
S11302B0E0936A08138212821182108280EC99E022
S11302C013969C938E931297ED93FC9390936708E7
S11302D080936608909369088093680880E090E8AA
S11302E090936108809360080895CF93DF93EC01A5
S11302F0ACE6B8E001C0DF01ED91FC911197EC1779
S1130300FD07C8F312968D919C9113979D01280FB8
S1130310391FC217D30749F42A813B81820F931FE7
S113032013969C938E931297ED018A819B819E0173
S1130330280F391FE217F307C1F420916A0830919E
S11303406B08E217F30771F022813381820F931F48
S11303509B838A83ED91FC9111978081918199838C
S1130360888305C03983288302C0F983E883CA17C8
S1130370DB0711F0CD93DC93DF91CF910895EF92D9
S1130380FF920F931F93CF93DF938C010E949C0DD8
S113039080916A0890916B08892B09F47DDF809124
S11303A060089091610880239123892B09F076C01D
S11303B00115110549F0C80104960817190718F02A
S11303C000E010E001C08C010115110509F469C0B9
S11303D080916808909169088017910708F464C0B7
S11303E0C0916C08D0916D08ECE6F8E002C0FE0103
S11303F0EC018A819B818017910720F4888199817F
S11304000097A9F780916A0890916B08C817D907DB
S113041009F44DC0E080F18084E0E80EF11C88818D
S11304209981918380832A813B81201B310B293060
S1130430310548F0CE01800F911FFC0133832283E4
S11304401B830A8352DF2A813B8180916808909143
S11304506908821B930B9093690880936808409104
S11304606608509167088417950720F490936708ED
S1130470809366088091600890916108282B392B3D
S11304803B832A83198218828091640890916508BD
S1130490019690936508809364080BC0E12CF12CBD
S11304A008C0E12CF12C05C0E12CF12C02C0E12C98
S11304B0F12C0E94DC0EE114F10411F40E948A195B
S11304C0C701DF91CF911F910F91FF90EF90089595
S11304D00F931F93CF93DF93009791F1EC0124972F
S11304E04A815B812091600830916108BA016223DE
S11304F07323672B29F168817981672B09F520958E
S11305003095242335233B832A830E949C0D8A81C2
S11305109B812091680830916908820F931F909302
S1130520690880936808CE01E0DE809162089091AA
S11305306308019690936308809362080E94DC0E1E
S1130540DF91CF911F910F910895FC01039692833F
S113055081834FEF5FEFBA014383548365837683CE
S1130560908787839287818710820895FC01138680
S1130570128608950F931F93CF93DF93EB010881A5
S113058019812A813B810F3F4FEF14072407340759
S113059021F4FC01A185B28511C0DC01139601C0D0
S11305A0DF011496ED91FC91159740815181628190
S11305B07381041715072607370790F71496ED91F2
S11305C0FC911597FD83EC83D783C683BF83AE83E9
S11305D01596DC93CE9314979B878A87FC01208120
S11305E02F5F2083DF91CF911F910F910895CF93B7
S11305F0DF93FC01A285B385C481D581868197816F
S11306009F838E83C681D781848195819D838C83CA
S113061011968D919C911297E817F90731F4868110
S1130620978112969C938E931197138612868C91C0
S113063081508C938C91DF91CF910895A89590EC83
S113064088E10FB6F894A895809360000FBE90934C
S113065060000895FC0160833197708331971082A4
S113066031971082319720E8208331971082319797
S11306701082319710827797408331975083869701
S11306800895DCDFA091F312B091F412CD91CDBFA7
S1130690DD91DEBFFF91EF91DF91CF91BF91AF91DB
S11306A09F918F917F916F915F914F913F912F9186
S11306B01F910F91FF90EF90DF90CF90BF90AF907C
S11306C09F908F907F906F905F904F903F902F906E
S11306D01F900F900CBE0F900BBE0F900FBE0F908B
S11306E0089581E008950F920FB6F8940F920BB617
S11306F00F920CB60F921F9211242F923F924F9299
S11307005F926F927F928F929F92AF92BF92CF929D
S1130710DF92EF92FF920F931F932F933F934F9388
S11307205F936F937F938F939F93AF93BF93CF9375
S1130730DF93EF93FF93A091F312B091F4120DB6EF
S11307400D920EB60D920E943810A091F312B09142
S1130750F412CD91CDBFDD91DEBFFF91EF91DF911A
S1130760CF91BF91AF919F918F917F916F915F9145
S11307704F913F912F911F910F91FF90EF90DF9038
S1130780CF90BF90AF909F908F907F906F905F902D
S11307904F903F902F901F900F900CBE0F900BBE68
S11307A00F900FBE0F9008950F920FB6F8940F920A
S11307B00BB60F920CB60F921F9211242F923F92F8
S11307C04F925F926F927F928F929F92AF92BF925D
S11307D0CF92DF92EF92FF920F931F932F933F9349
S11307E04F935F936F937F938F939F93AF93BF9335
S11307F0CF93DF93EF93FF93A091F312B091F41290
S11308000DB60D920EB60D9213BE0E94B00D81115D
S11308100E943810A091F312B091F412CD91CDBF83
S1130820DD91DEBFFF91EF91DF91CF91BF91AF9149
S11308309F918F917F916F915F914F913F912F91F4
S11308401F910F91FF90EF90DF90CF90BF90AF90EA
S11308509F908F907F906F905F904F903F902F90DC
S11308601F900F900CBE0F900BBE0F900FBE0F90F9
S113087008959ADF1895DC0153962C9153972223FF
S113088041F05A96ED91FC915B9790818AE0891B27
S1130890089580E008950FB6F8940F92FC01868DB8
S11308A0811102C081E001C080E00F900FBE089565
S11308B00FB6F8940F92FC01268D878D281302C081
S11308C081E001C080E00F900FBE08950F931F9345
S11308D0CF93DF93EC01042F1E8D48A141110CC06E
S11308E088819981892B09F042C08C819D810E9465
S11308F0D0121D821C8242C0011117C050E08A81AF
S11309009B810E94F52D28A18A819B81820F911DD4
S11309109B838A832C813D818217930750F18881C0
S113092099819B838A8380E029C050E08E819F81D6
S11309300E94F52D88A190E09195819591092E81D1
S11309403F81280F391F3F832E8348815981241703
S1130950350730F42C813D81820F931F9F838E8352
S1130960023049F4112349F0115080E007C080E0BF
S113097005C080E003C080E001C080E01F5F1E8FDF
S1130980DF91CF911F910F910895FC0140A1442361
S1130990A9F050E026813781240F351F3783268341
S11309A0848195812817390720F08081918197836C
S11309B08683CB01668177810C94F52D08951F936E
S11309C0CF93DF93EC010FB6F8940F921AA10BC0EA
S11309D08B89882351F0CE0143960E94F610811131
S11309E00E943212115011169CF38FEF8AA30F90BC
S11309F00FBE0FB6F8940F9219A10BC088858823F7
S1130A0051F0CE0108960E94F61081110E94321214
S1130A10115011169CF38FEF89A30F900FBEDF9135
S1130A20CF911F910895CF93DF93EC010FB6F89403
S1130A300F92E881F9818F8D28A190E030E0829FA8
S1130A40A001839F500D929F500D11244E0F5F1FE4
S1130A505D834C831E8EFB83EA830197289FA0014C
S1130A60299F500D389F500D1124CF01840F951FDD
S1130A709F838E838FEF89A38AA361110BC088851E
S1130A80882371F0CE0108960E94F610882341F065
S1130A902ADE06C0CE01089658DDCE01439655DD08
S1130AA00F900FBE81E0DF91CF9108950F931F93B4
S1130AB0F801611103C01183008302C05183408394
S1130AC0878F60A361E0CF01AEDF1F910F9108957E
S1130AD0DF92EF92FF920F931F93CF93DF93F82E41
S1130AE0E62ED42E869FC0011124839648DCEC01A7
S1130AF0009741F08C012D2DAC014D5D5F4F6E2DA3
S1130B008F2DD4DFCE01DF91CF911F910F91FF90F4
S1130B10EF90DF900895CF92DF92EF92FF920F93C0
S1130B201F93CF93DF93CDB7DEB729970FB6F89411
S1130B30DEBF0FBECDBF7C016B012E833F83488790
S1130B40598710E00FB6F8940F92F701968D878DB0
S1130B50981710F00230B1F4402FB601C701B6DE89
S1130B60F7019389992341F0C70143960E94F61037
S1130B70882321F0B8DD02C08111B5DD0F900FBECE
S1130B8081E04CC08E819F81A885B985892B8A2BF1
S1130B908B2B21F40F900FBE80E040C0111105C0D3
S1130BA0CE0101960E94BB1111E00F900FBEC4D775
S1130BB00FB6F8940F92F70181A18F3F09F411A2A7
S1130BC0F70182A18F3F09F412A20F900FBEBE015C
S1130BD06A5F7F4FCE0101960E94CC11811119C02A
S1130BE0C70166DE882381F04E815F81688579853F
S1130BF0C70108960E949D10C701E1DE0E94DC0E29
S1130C008111A0CF70DD9ECFC701D9DE0E94DC0E1A
S1130C1099CFC701D4DE0E94DC0E80E029960FB67E
S1130C20F894DEBF0FBECDBFDF91CF911F910F911E
S1130C30FF90EF90DF90CF9008950F93009769F0A5
S1130C40FC011582148211821082168200E020E0D9
S1130C5030E0A90160E070E05EDF0F910895CF936A
S1130C60DF93482F60E081E033DFEC01E6DFCE0163
S1130C70DF91CF910895EF92FF920F931F93CF933B
S1130C80DF938A01FC01568D378D531710F0223003
S1130C90F9F4422F7801EC011AA18E8DCE0116DEF3
S1130CA01F3F81F48B898823A9F0CE0143960E94CB
S1130CB0F610882389F0E114F10481F081E0F70152
S1130CC080830DC0FF24F394F10EFAA281E007C0E3
S1130CD080E005C081E003C081E001C081E0DF91D4
S1130CE0CF911F910F91FF90EF900895CF92DF92D3
S1130CF0EF92FF920F931F93CF93DF93CDB7DEB79D
S1130D0029970FB6F894DEBF0FBECDBF8C016B01DF
S1130D102E833F8348875987E12C0FB6F8940F92AE
S1130D20F801F68CFF2099F0B601C8012EDEFA9482
S1130D30F801F68E8085882331F0C80108960E9458
S1130D40F6108111D0DC0F900FBE81E04FC08E8170
S1130D509F81A885B985892B8A2B8B2B21F40F9031
S1130D600FBE80E043C0E11006C0CE0101960E9490
S1130D70BB11EE24E3940F900FBEDED60FB6F894A9
S1130D800F92F80181A18F3F09F411A2F80182A109
S1130D908F3F09F412A20F900FBEBE016A5F7F4F0E
S1130DA0CE0101960E94CC11811117C0C80173DDD8
S1130DB0882379F04E815F8168857985C8014396DF
S1130DC00E949D10C801FBDDF7D78111A6CF8BDCF3
S1130DD0A4CFC801F4DDF0D7A0CFC801F0DDECD773
S1130DE0C80159DD882309F498CF80E029960FB60D
S1130DF0F894DEBF0FBECDBFDF91CF911F910F914D
S1130E00FF90EF90DF90CF900895EF92FF920F93B1
S1130E101F93CF93DF93CDB7DEB729970FB6F8941E
S1130E20DEBF0FBECDBF8C014E835F836887798799
S1130E30E12CF12C0FB6F8940F92F801868D8823DB
S1130E40C9F08150868F80819181892B29F40E9479
S1130E509213F80195838483F8018085882331F007
S1130E60C80108960E94F61081113DDC0F900FBE58
S1130E7081E06FC08E819F81A885B985892B8A2BDB
S1130E808B2B21F40F900FBE80E063C0F11006C0DD
S1130E90CE0101960E94BB11FF24F3940F900FBE64
S1130EA04BD60FB6F8940F92F80181A18F3F09F445
S1130EB011A2F80182A18F3F09F412A20F900FBE74
S1130EC0BE016A5F7F4FCE0101960E94CC11811151
S1130ED026C0C801E0DC8823F1F0F801808191810B
S1130EE0892B51F40FB6F8940F92848195810E9456
S1130EF04912E82E0F900FBE4E815F816885798577
S1130F00C80143960E949D10C80159DD55D781112F
S1130F1091CFE9DB8FCFC80152DD4ED78BCFC8010B
S1130F204EDD4AD7C801B7DC882309F483CFEE200D
S1130F3079F00FB6F8940F92C8019DDC682FF80180
S1130F40848195810E942B130F900FBE80E001C015
S1130F5080E029960FB6F894DEBF0FBECDBFDF91B7
S1130F60CF911F910F91FF90EF900895CF93DF934E
S1130F70EC010FB6F8940F9289A18F3F09F419A2DE
S1130F808AA18F3F09F41AA20F900FBE8E8D811192
S1130F9004C0CE0143960E94B410CE0110DDDF914F
S1130FA0CF910895FC014481558122813381240F1E
S1130FB0351F80819181B901681B790BCB016417BE
S1130FC0750710F0841B950B08950F93FC018FE0B7
S1130FD0DF011D928A95E9F77587648755834483F9
S1130FE03783268306870F910895AF92BF92CF92DD
S1130FF0DF92EF92FF920F931F93CF93DF936C01D5
S11310005B017A01FC01C281D381048115810C1B2F
S11310101D0B4017510708F48A01F6018485958554
S1131020A801B5018C0F9D1F0E94F52D0E151F05FB
S113103058F4A701401B510BB501600F711FF60155
S1131040848595850E94F52DCE018E0D9F1DF60198
S1131050248135818217930710F0821B930BF601CC
S113106093838283C701DF91CF911F910F91FF90EA
S1131070EF90DF90CF90BF90AF900895CF92DF9222
S1131080EF92FF920F931F93CF93DF931F921F92C0
S1131090CDB7DEB77C016B015A8349832115310535
S11310A0C1F0FC01868580FD08C04217530708F48F
S11310B09A013A83298381E00FC02017310758F041
S11310C042E050E0BE016F5F7F4FC7018EDF81E0D9
S11310D003C080E001C080E0882331F049815A8157
S11310E0B601C70182DF02C080E090E00F900F904C
S11310F0DF91CF911F910F91FF90EF90DF90CF90F0
S11311000895AF92BF92CF92DF92EF92FF920F9326
S11311101F93CF93DF937C015B01E90142175307CF
S113112008F4EA01209781F1F7010081118184819B
S11311309581801B910B6E018C179D0708F46C013F
S1131140F70164857585600F711FA601C5010E94B2
S1131150F52DCC16DD0658F4AE014C195D09F701E6
S113116064857585C5018C0D9D1D0E94F52D0C0FA0
S11311701D1FF701848195810817190710F0081BBA
S1131180190BF70111830083CE01DF91CF911F91D9
S11311900F91FF90EF90DF90CF90BF90AF900895A4
S11311A06F927F928F929F92AF92BF92CF92DF9273
S11311B0EF92FF920F931F93CF93DF931F921F928F
S11311C0CDB7DEB76C014B015A0179010115110548
S11311D0B1F0FC0160807180A801BE016F5F7F4F98
S11311E090DF89819A81E01AF10AA816B90630F4D1
S11311F0F60171826082A12CB12C01C05C019701BF
S1131200A501B401C6017DDF0F900F90DF91CF914E
S11312101F910F91FF90EF90DF90CF90BF90AF9010
S11312209F908F907F906F900895CF92DF92EF926E
S1131230FF920F93CF93DF93EC016B01413011F4D4
S113124001E001C000E0C114D10419F4CC24C3941A
S1131250D12CCE014096C817D90720F421968FD8F7
S11312607C0102C0E12CF12CE114F10439F0960167
S1131270AE01B701615F7F4FC701A7DEC701DF91F0
S1131280CF910F91FF90EF90DF90CF9008950F933F
S11312900FB6F8940F92FC0120853185232B71F44D
S11312A022853385232B61F426813781448155813E
S11312B064857585068589DE81E003C080E001C010
S11312C080E00F900FBE0F910895FC0124813581B9
S11312D080819181820F931F42815381841B950BDE
S11312E001978217930710F0821B930B08952F9296
S11312F03F924F925F926F927F928F929F92AF92A2
S1131300BF92CF92DF92EF92FF920F931F93CF93EE
S1131310DF93CDB7DEB72B970FB6F894DEBF0FBEC1
S1131320CDBF4C017B876A871A010E831F832887F0
S11313303987FC01848195810197268520FF0CC0A3
S11313402A01F2E04F0E511C8415950558F41E82B3
S11313501F821886198606C08417950710F02A0183
S113136001C02C018E819F81A885B985892B8A2B88
S11313708B2B09F436C0CE010196E7D70FB6F8944B
S11313800F92C401A2DF3C018415950538F560E095
S113139080E090E00E9464160E943612F401938764
S11313A082870F900FBEAE80BF80C884D984E12CA1
S11313B0F12C00E010E0980140E050E0BA0180E038
S11313C00E94A413F40113861286BE016A5F7F4F44
S11313D0CE010196E1D7882389F205C00F900FBE94
S11313E002C0612C712C6114710419F4C4016DDF05
S11313F03C0182019301A1016A857B85C4013EDE23
S11314006C01892BE9F0C401CDDDF401268137811B
S113141082179307A8F090D3F40180859185892BD6
S113142071F080859185E12CF12C00E020E030E022
S1131430A90160E00E944B14F40111861086BCD40B
S1131440C6012B960FB6F894DEBF0FBECDBFDF9159
S1131450CF911F910F91FF90EF90DF90CF90BF90AD
S1131460AF909F908F907F906F905F904F903F9040
S11314702F900895AF92BF92CF92DF92EF92FF9296
S11314800F931F93CF93DF93EC017B015A01690102
S11314908E8580FF04C08A010E5F1F4F01C08A0140
S11314A0CE0113DF9C01A501B701CE01E7DD5C018C
S11314B0892BC1F0CE0176DD2E813F8182179307FF
S11314C088F088859985892B69F088859985E12C30
S11314D0F12C00E020E030E0A90160E00E94421518
S11314E019861886C501DF91CF911F910F91FF9046
S11314F0EF90DF90CF90BF90AF9008954F925F929E
S11315006F927F928F929F92AF92BF92CF92DF920F
S1131510EF92FF920F931F93CF93DF93EC012B0174
S11315203A01580169018E8580FF05C068948824BA
S113153081F8912C02C0812C912CA114B104C10416
S1131540D10439F10FB6F8940F92CE012BDD7C0152
S11315508816990640F060E080E090E00E946416EE
S113156085D7998788870F900FBE8E149F04A0F0AB
S1131570E12CF12C00E010E0980140E050E0BA01C9
S113158080E00E94A41319861886CE010BDD7C012D
S113159003C0CE0107DD7C018E149F04E8F48401AE
S11315A09701A301B201CE01FBDD6C01892BB1F0DF
S11315B0C3D28A859B85892B69F08A859B85E12C1A
S11315C0F12C00E020E030E0A90160E00E944B141F
S11315D01B861A86F1D302C0C12CD12CC601DF911F
S11315E0CF911F910F91FF90EF90DF90CF90BF901C
S11315F0AF909F908F907F906F905F904F900895E1
S1131600E0916D12F0916E12808181110CC08FEF08
S11316109FEFDC018093371290933812A093391214
S1131620B0933A120895E0916D12F0916E12078012
S1131630F085E02D80819181A281B381809337125E
S113164090933812A0933912B0933A120895CF931D
S1131650DF93EC018B8D9C8D0E946802CE010E9469
S11316606802DF91CF9108954F925F926F927F92BB
S11316708F929F92AF92BF92CF92DF92EF92FF929E
S11316800F93CF93DF932C015B014A013901E601EB
S113169065EA70E08B8D9C8D0E94FE2D8B8D9C8D58
S11316A021E0821A9108880E991EA114B10489F4CC
S11316B015C0822F90E0F501E80FF91F3081DE019B
S11316C0A80FB91F5D963C938081882329F02F5F72
S11316D001C020E0203168F31CA601C01D8E0A3031
S11316E008F009E00A8F0DA71EA6CE0102960E94FB
S11316F0B602CE010E960E94B602DB87CA878AE044
S113170090E0A0E0B0E0801B9109A109B1098E87A7
S11317109F87A88BB98BDF8BCE8B84E0FE01BF96AD
S1131720DF011D928A95E9F71BAAA301B201C40146
S11317300E942A0399838883E114F10419F0F701C4
S1131740D183C083DF91CF910F91FF90EF90DF9011
S1131750CF90BF90AF909F908F907F906F905F904D
S11317604F900895CF93C0E009C02BE0C29FC00101
S113177011248B579D4E0E94A502CF5FCA30A8F357
S11317808AE792E10E94A5028FE692E10E94A502F7
S113179080E692E10E94A50285E592E10E94A502FD
S11317A089E492E10E94A5028AE792E190936E1285
S11317B080936D128FE692E190936C1280936B127A
S11317C0CF910895CF93DF93EC010FB6F8940F9265
S11317D0809148128F5F809348128091F312909108
S11317E0F412892B51F4D093F412C093F312809124
S11317F04812813091F4B6DF10C0809142128111F9
S11318000CC0E091F312F091F412928D8A8D891735
S113181020F0D093F412C093F31280913B128F5FA7
S113182080933B12EA8D809143128E1710F4E0935B
S113183043128BE08E9FF0011124EB57FD4E018083
S1131840F281E02DFF83EE83268137813987288753
S1131850A681B7819E012E5F3F4F15963C932E9330
S1131860149737832683EA8D8E9FF0011124EB575A
S1131870FD4EFD87EC8780818F5F80830F900FBEC4
S113188080914212882351F0E091F312F091F41206
S1131890928D8A8D981710F40E947303DF91CF9173
S11318A00895CF93DF931BC00FB6F8940F92E09185
S11318B05C12F0915D12C085D185CE0102960E9422
S11318C0F7028091481281508093481280915412FB
S11318D08150809354120F900FBECE01B8DE8091D8
S11318E054128111E1CFDF91CF9108958F929F928D
S11318F0AF92BF92CF92DF92EF92FF92CF93DF939A
S11319006B017C01C42F8090441290904512A090EA
S11319104612B09047128091F3129091F4120296FD
S11319200E94F7028FEFC816D806E806F806B1F54C
S1131930CC23A1F1E9E4F2E1A181B281C091F312D7
S1131940D091F412BF83AE83C091F312D091F412FC
S113195016968D919C911797998788871696CD91A5
S1131960DC9117978091F3129091F41202969D8363
S11319708C838091F3129091F412029617969C93A3
S11319808E931697A091F312B091F4121D96FC93C6
S1131990EE931C9780818F5F80833FC0C80CD91C55
S11319A0EA1CFB1CE091F312F091F412C282D38280
S11319B0E482F582C814D904EA04FB0468F4609153
S11319C0F3127091F41280916B1290916C126E5F0D
S11319D07F4F0E94BA0221C06091F3127091F412F9
S11319E080916D1290916E126E5F7F4F0E94BA02C9
S11319F08091371290913812A0913912B0913A1215
S1131A00C816D906EA06FB0640F4C0923712D092F3
S1131A103812E0923912F0923A12DF91CF91FF908E
S1131A20EF90DF90CF90BF90AF909F908F900895EC
S1131A302F923F924F925F926F927F928F929F92DA
S1131A40AF92BF92CF92DF92EF92FF920F93CF9318
S1131A50DF933C011B014A012901CA010E94BF0115
S1131A606C01892B71F084E390E00E94BF01EC01CA
S1131A70892B19F0DC8ECB8E06C0C6010E94680249
S1131A8002C0C0E0D0E0209761F0A12CB12C6E011F
S1131A909201A401B101C301E7DDCE0193DE81E02F
S1131AA001C08FEFDF91CF910F91FF90EF90DF9006
S1131AB0CF90BF90AF909F908F907F906F905F90EA
S1131AC04F903F902F900895EF92FF920F930F2E17
S1131AD0F5E3EF2EF2E1FF2EF02D00E020E030E000
S1131AE040EC50E067E972E08DEC90E0A1DF8130DA
S1131AF011F40E9408178130C9F4F8948FEF9FEF16
S1131B00DC018093371290933812A0933912B0936A
S1131B103A1281E0809342121092441210924512BC
S1131B2010924612109247120E94410380910602BD
S1131B300F91FF90EF900895809134128F5F8093FE
S1131B40341208950FB6F8940F9260914412709174
S1131B50451280914612909147120F900FBE08953E
S1131B60CF92DF92EF92FF92CF93DF938091341262
S1131B70811105C1C0904412D0904512E0904612E4
S1131B80F09047128FEFC81AD80AE80AF80AC092F0
S1131B904412D0924512E0924612F0924712C114B8
S1131BA0D104E104F104B1F480916D1290916E12AC
S1131BB020916B1230916C1230936E1220936D123F
S1131BC090936C1280936B1280913C128F5F809380
S1131BD03C1216DD8091371290913812A09139127F
S1131BE0B0913A12C816D906EA06FB0620F480E042
S1131BF0B2C081E001C080E0E0916D12F0916E12FC
S1131C00908191110CC04FEF5FEFBA0140933712EE
S1131C10509338126093391270933A129CC0E09139
S1131C206D12F0916E120780F085E02D0084F1852D
S1131C30E02D4281538164817581C416D506E60680
S1131C40F70648F4409337125093381260933912D0
S1131C5070933A1280C0A485B585C681D78120854A
S1131C6031853F832E83C085D185268137813D838D
S1131C702C8311964D915C9112979F012E5F3F4FDB
S1131C804217530731F44085518512965C934E9365
S1131C901197158614869C9191509C93A08DB18DBB
S1131CA0109709F1C289D389448955895F834E838A
S1131CB0C489D589428953895D834C8311966D917A
S1131CC07C911297AF01425F5F4F6417750731F43F
S1131CD04489558912965C934E931197118E108EF8
S1131CE09C9191509C93A28D909143129A1710F459
S1131CF0A09343129BE09A9FD0011124AB57BD4E91
S1131D0011960D90BC91A02DB783A68316964D9184
S1131D105C911797518740871696CD91DC91179760
S1131D203D832C8317963C932E931697A28D9A9FEE
S1131D30D0011124AB57BD4EB587A4879C919F5FFA
S1131D409C93228DE091F312F091F412928D291755
S1131D5008F04FCF51CFE091F312F091F412E28DDD
S1131D609BE0E99FF0011124EB57FD4E90819230E6
S1131D7008F081E090913D12911116C016C0809137
S1131D803E1290913F12A0914012B09141120196DF
S1131D90A11DB11D80933E1290933F12A093401257
S1131DA0B093411280E001C081E0DF91CF91FF90B8
S1131DB0EF90DF90CF900895CF92DF92EF92FF9251
S1131DC0CF93DF930FB6F8940F9280913412815021
S1131DD080933412809134128111BEC080914812D4
S1131DE0811188C0BCC0E0916712F0916812008430
S1131DF0F185E02DA08DB18DC289D389848995891F
S1131E009F838E83C489D589828993899D838C839A
S1131E1011962D913C911297CF010E9628173907F0
S1131E2031F48489958912969C938E931197118E1F
S1131E30108E8C9181508C93A485B585C681D781F1
S1131E40808591859F838E83C085D1858681978186
S1131E509D838C8311968D919C9112979F012E5F87
S1131E603F4F8217930731F48085918512969C9396
S1131E708E931197158614868C9181508C93A28D24
S1131E80809143128A1710F4A09343128BE08A9F27
S1131E90D0011124AB57BD4E11960D90BC91A02DCD
S1131EA0B783A68316964D915C9117975187408707
S1131EB01696CD91DC9117973D832C8317963C930E
S1131EC02E931697A28D8A9FD0011124AB57BD4E35
S1131ED0B587A4878C918F5F8C93928DA091F31218
S1131EE0B091F4125A968C91981730F081E0809357
S1131EF03D1202C0E0E0F0E080916012811173CFE6
S1131F00EF2B09F07DDBC0903E12D0903F12E090A1
S1131F104012F0904112C114D104E104F104A1F083
S1131F201FDE882319F081E080933D1281E0C81AF6
S1131F30D108E108F108A1F710923E1210923F1265
S1131F40109240121092411280913D12882331F078
S1131F500E94730381E003C080E001C080E00F9021
S1131F600FBEDF91CF91FF90EF90DF90CF90089557
S1131F708F929F92AF92BF92CF92DF92EF92FF9295
S1131F801F93CF93DF93EC016A017B01D5DD809031
S1131F90441290904512A0904612B0904712888146
S1131FA09981AA81BB81AC01BD014C0D5D1D6E1DE3
S1131FB07F1D88169906AA06BB0660F448175907C0
S1131FC06A077B0798F484169506A606B70680F080
S1131FD010E013C0481759076A077B0758F08416A6
S1131FE09506A606B70640F010E007C010E005C04D
S1131FF011E003C011E001C011E0488359836A83F2
S11320007B83112341F0CB01BA01681979098A094C
S11320109B0940E06BDCD0DE811102C00E94730397
S1132020812FDF91CF911F91FF90EF90DF90CF90A0
S1132030BF90AF909F908F900895CF92DF92EF92D0
S1132040FF926B017C01672B682B692B39F074DDDF
S113205040E0C701B6014ADCAFDE01C080E0811177
S113206002C00E947303FF90EF90DF90CF90089519
S113207080913412882321F081E080933D120895E9
S113208010923D12E091F312F091F412208131810B
S1132090E091F312F091F412838D948D82179307DB
S11320A060F06091F3127091F412635E7F4F80913F
S11320B0F3129091F4120E9496198091431201C078
S11320C08150282F30E09BE0929FF001939FF00D08
S11320D01124EB57FD4E9081992391F39BE0929F3D
S11320E0A001939F500D1124DF010180F281E02DA6
S11320F00480F581E02D1296FC93EE9311974857D6
S11321005D4EE417F50729F444815581FD0152839E
S113211041839BE0929FF001939FF00D1124EB57B4
S1132120FD4E0180F281E02D208531853093F4123B
S11321302093F312809343120895CF92DF92EF928B
S1132140FF926A017B016091F3127091F412625F55
S11321507F4F0E94BA0241E0C701B601C7DBFF907E
S1132160EF90DF90CF900895CF93DF93FC01CB01E4
S1132170BA01A181B281C091F312D091F412BB8B48
S1132180AA8BC091F312D091F41216964D915C91E2
S113219017975D8B4C8B1696CD91DC9117974091D8
S11321A0F3125091F412425F5F4F5D834C83409170
S11321B0F3125091F412425F5F4F17965C934E9363
S11321C01697A091F312B091F4125996FC93EE93E2
S11321D0589730813F5F3083222319F06FEF7FEFF0
S11321E0CB01422F83DBDF91CF910895CF93DF930F
S11321F0DC011796ED91FC9118970084F185E02D90
S1132200A08DB18DC289D389848995899F838E835A
S1132210C489D589828993899D838C8311968D91F4
S11322209C9112979F01225F3F4F8217930731F4CD
S11322308489958912969C938E931197118E108E92
S11322408C9181508C9380913412811152C0A48559
S1132250B585C681D781808591859F838E83C0850E
S1132260D185868197819D838C8311968D919C91D4
S113227012979F012E5F3F4F8217930731F4808599
S1132280918512969C938E931197158614868C9142
S113229081508C93A28D809143128A1710F4A093DD
S11322A043128BE08A9FD0011124AB57BD4E119687
S11322B00D90BC91A02DB783A68316964D915C9189
S11322C01797518740871696CD91DC9117973D83D8
S11322D02C8317963C932E931697A28D8A9FD00138
S11322E01124AB57BD4EB587A4878C918F5F8C9317
S11322F01CC040E652E1DA011196CD91DC911297AF
S1132300D38BC28B8E819F81958B848B8E819F8191
S1132310DC0115963C932E9314973F832E83518FA3
S1132320408FDA018C918F5F8C93928DE091F31240
S1132330F091F412828D891720F481E080933D128C
S113234001C080E0DF91CF9108950FB6F8940F9209
S113235020913C12FC01208340914412509145127B
S11323606091461270914712418352836383748350
S11323700F900FBE089520913C12FC0120834091E0
S11323804412509145126091461270914712418354
S113239052836383748308958F929F92AF92BF9206
S11323A0CF92DF92EF92FF920F931F93CF93DF931D
S11323B0FB010FB6F8940F92C0904412D0904512CE
S11323C0E0904612F0904712DC0111960D911D9198
S11323D02D913C91149746015701801A910AA20A43
S11323E0B30A40815181628173814F3FBFEF5B0724
S11323F06B077B0739F1EC01B881A0913C12BA1745
S113240059F0C016D106E206F30630F010821182AC
S11324101282138281E017C084169506A606B706B9
S113242058F4481959096A097B0940835183628326
S11324307383A1DF80E007C01082118212821382AD
S113244081E001C080E00F900FBEDF91CF911F911A
S11324500F91FF90EF90DF90CF90BF90AF909F903F
S11324608F90089581E080933D1208958091F31236
S11324709091F412089580914212882331F0809152
S11324803412811104C082E0089581E0089580E04F
S113249008950F931F93CF93DF93FC01892B09F4C5
S11324A077C0828DA091F312B091F4125A969C9148
S11324B0891708F063C04685578560897189772339
S11324C094F0A091F312B091F4125A969C914AE0C0
S11324D050E060E070E0491B5109610971094687C9
S11324E05787608B718B248535854BE0849FC001B1
S11324F011248B579D4E28173907B9F5EF018F0129
S11325000E5F1F4FC8010E94F702E091F312F09191
S1132510F412E28DEA8F809143128E1710F4E09347
S113252043128BE08E9FF0011124EB57FD4E018086
S1132530F281E02DFF83EE83268137813987288756
S1132540A681B78115961C930E931497178306835F
S1132550EA8D8E9FF0011124EB57FD4EFD87EC8729
S113256080818F5F808381E016C0A091F312B091C7
S1132570F4125A968C91828F81E00DC095A5E0915A
S1132580F312F091F412828D981720F080E003C0CA
S113259080E001C081E0DF91CF911F910F910895F8
S11325A00F931F93CF93DF93FC01892B09F449C048
S11325B086A5815086A7228D95A5291709F443C0C5
S11325C0811143C0EF018F010E5F1F4FC8010E94AC
S11325D0F702EDA5EA8F8AE090E0A0E0B0E08E1B60
S11325E09109A109B1098E879F87A88BB98B809126
S11325F043128E1710F4E09343128BE08E9FF00188
S11326001124EB57FD4E0180F281E02DFF83EE8310
S11326102681378139872887A681B78115961C932F
S11326200E93149717830683EA8D8E9FF00111246D
S1132630EB57FD4EFD87EC8780818F5F808381E0BF
S113264005C080E003C080E001C080E0DF91CF914D
S11326501F910F9108950F931F93CF93DF93FC0164
S1132660892B09F45AC085A5861708F4862F928D04
S1132670891709F452C026A5213009F04EC0828F73
S11326804685578560897189772364F04AE050E074
S113269060E070E0481B510961097109468757875A
S11326A0608B718B248535854BE0949FC001112488
S11326B08B579D4E2817390781F5EF018F010E5F67
S11326C01F4FC8010E94F702EA8D809143128E17B2
S11326D010F4E09343128BE08E9FF0011124EB572A
S11326E0FD4E0180F281E02DFF83EE832681378148
S11326F039872887A681B78115961C930E93149762
S113270017830683EA8D8E9FF0011124EB57FD4E4B
S1132710FD87EC8780818F5F8083DF91CF911F914C
S11327200F9108958091F3129091F412892B39F04E
S1132730E091F312F091F41286A58F5F86A7809141
S1132740F3129091F41208954F925F926F927F92D8
S1132750AF92BF92CF92DF92EF92FF920F931F93AB
S1132760CF93DF93280139010FB6F8940F92E091CB
S1132770F312F091F412C82FD0E0EC0FFD1F83A9DF
S1132780823071F1E091F312F091F412CE01880FCE
S1132790991F880F991FE80FF91F87A590A9A1A970
S11327A0B2A94095509560957095482359236A23A2
S11327B07B2347A750AB61AB72ABE091F312F0916E
S11327C0F412EC0FFD1F81E083ABA114B104C1042A
S11327D0D10431F041E0C601B50188D80E947303E9
S11327E00F900FBE0FB6F8940F92E114F104A1F00C
S11327F0E091F312F091F412CE01880F991F880F23
S1132800991FE80FF91F87A590A9A1A9B2A9F701FB
S113281080839183A283B383E091F312F091F41245
S1132820EC0FFD1F83A98230E9F4E091F312F091DB
S1132830F412CE01880F991F880F991FE80FF91F12
S113284087A590A9A1A9B2A94094509460947094CA
S1132850482259226A227B2247A650AA61AA72AA58
S113286081E001C080E02091F3123091F412C20F94
S1132870D31F1BAA0F900FBEDF91CF911F910F9111
S1132880FF90EF90DF90CF90BF90AF907F906F90CC
S11328905F904F9008958F929F92AF92BF92EF9264
S11328A0FF920F93CF93DF93DC010FB6F8940F924E
S11328B0E114F10489F0E62FF0E0EE0FFF1FEE0FB4
S11328C0FF1FE80FF91F87A490A8A1A8B2A8F701D9
S11328D080829182A282B38270E0FD01E60FF71F2D
S11328E083A992E093AB023001F118F4013031F086
S11328F04DC0033079F10430D1F148C0660F771F21
S1132900660F771FFD01E60FF71F87A490A8A1A803
S1132910B2A8BA01A901482959296A297B2947A7DC
S113292050AB61AB72AB01E034C0660F771F660F2A
S1132930771FFD01E60FF71F47A550A961A972A9EA
S11329404F5F5F4F6F4F7F4F47A750AB61AB72AB89
S113295001E01FC0660F771F660F771FFD01E60FAA
S1132960F71F27A730AB41AB52AB01E012C0823056
S113297079F0660F771F660F771FFD01E60FF71FCB
S113298027A730AB41AB52AB01E003C001E001C06B
S113299000E0813009F069C01C96ED91FC911D970F
S11329A01696CD91DC91179718968D919C91199755
S11329B09F838E831896CD91DC91199716968D91ED
S11329C09C9117979D838C83818192819D012E5FB9
S11329D03F4F8217930731F418968D919C91199764
S11329E0928381831D961C921E921C978081815034
S11329F080835A96EC915A97809143128E1710F463
S1132A00E09343128BE08E9FF0011124EB57FD4EAF
S1132A100180F281E02D1796FC93EE931697468180
S1132A20578119965C934E931897C681D7813D833D
S1132A302C83378326835A96EC915A978E9FF00104
S1132A401124EB57FD4E1D96FC93EE931C97808149
S1132A508F5F80835A969C91E091F312F091F41267
S1132A60828D891710F40E9473030F900FBE802F7C
S1132A70DF91CF910F91FF90EF90BF90AF909F9017
S1132A808F9008958F929F92AF92BF92CF92DF92D0
S1132A90EF92FF920F93CF93DF93DC01E114F104E3
S1132AA089F0E62FF0E0EE0FFF1FEE0FFF1FE80F97
S1132AB0F91F87A490A8A1A8B2A8F70180829182E7
S1132AC0A282B38270E0FD01E60FF71F93A982E0B2
S1132AD083AB023001F118F4013031F04DC0033002
S1132AE079F10430D1F148C0660F771F660F771F64
S1132AF0FD01E60FF71F87A490A8A1A8B2A8BA0108
S1132B00A901482959296A297B2947A750AB61ABF8
S1132B1072AB81E034C0660F771F660F771FFD012B
S1132B20E60FF71F47A550A961A972A94F5F5F4F30
S1132B306F4F7F4F47A750AB61AB72AB81E01FC0B3
S1132B40660F771F660F771FFD01E60FF71F27A794
S1132B5030AB41AB52AB81E012C0923079F0660FDA
S1132B60771F660F771FFD01E60FF71F27A730AB0E
S1132B7041AB52AB81E003C081E001C080E0913001
S1132B8009F096C09091341291115FC01C96ED919A
S1132B90FC911D971696CD91DC91179718962D915F
S1132BA03C9119973F832E831896CD91DC91199708
S1132BB016962D913C9117973D832C834181528128
S1132BC09D012E5F3F4F4217530731F418964D91E4
S1132BD05C911997528341831D961C921E921C97F7
S1132BE09081915090835A96EC915A979091431208
S1132BF09E1710F4E09343129BE09E9FF001112472
S1132C00EB57FD4E0180F281E02D1796FC93EE9375
S1132C1016974681578119965C934E931897C681EF
S1132C20D7813D832C83378326835A96EC915A9718
S1132C309E9FF0011124EB57FD4E1D96FC93EE93DD
S1132C401C9790819F5F908321C060E672E1FB0135
S1132C50C181D2815396DC93CE9352972E813F81CA
S1132C6055963C932E9354974E815F819D01225F2C
S1132C703F4FFA01358324833F832E8359967C93F7
S1132C806E935897FB0190819F5F90835A962C9185
S1132C90E091F312F091F412928D921748F4C1145A
S1132CA0D10419F091E0F601908391E090933D12E4
S1132CB0DF91CF910F91FF90EF90DF90CF90BF9075
S1132CC0AF909F908F900895009721F48091F31214
S1132CD09091F4120FB6F8940F9270E0FC01E60F95
S1132CE0F71F23A9223031F4FC01E60FF71F13AAC2
S1132CF081E001C080E00F900FBE0895DC01E091F7
S1132D00FF12F0910013808191E0811190E09C9377
S1132D10911108C00780F085E02D60817181828166
S1132D209381089560E070E0CB010895CF92DF9223
S1132D30EF92FF920F931F93FC01428353836483AA
S1132D407583938782870417150726073707C0F012
S1132D500C191D092E093F0986859785A089B1891B
S1132D60081719072A073B0700F5BF016E5F7F4F5D
S1132D708091FD129091FE120E94BA0280E018C068
S1132D800C151D052E053F0528F44C155D056E0533
S1132D907F0568F4BF016E5F7F4F8091FF129091B1
S1132DA000130E94BA0280E003C081E001C081E008
S1132DB01F910F91FF90EF90DF90CF9008950FB681
S1132DC0F8940F928091FB129091FC12892BE9F4F4
S1132DD08CE093E10E94A50281E093E10E94A502A8
S1132DE08CE093E1909300138093FF1281E093E1D0
S1132DF09093FE128093FD1240E067E08AE00E9407
S1132E0068059093FC128093FB120F900FBE0895F7
S1132E10EF92FF920F93D3DF8091FB129091FC12FB
S1132E20892B91F00F2EF9EFEF2EF2E1FF2EF02D0A
S1132E3003E020E030E040EC50E06CE972E087ED24
S1132E4090E00E94180D01C080E00F91FF90EF9078
S1132E5008958F929F92AF92BF92CF92DF92EF929A
S1132E60FF920F931F93CF93DF93CDB7DEB72797CE
S1132E700FB6F894DEBF0FBECDBFE091FB12F09108
S1132E80FC12309781F169832A833B834C835D83F1
S1132E909F838E836630F4F4EEDA823069F400E0C6
S1132EA0A7019601BE016F5F7F4F8091FB12909145
S1132EB0FC120E948B0518C000E020E030E0A9015C
S1132EC0BE016F5F7F4F8091FB129091FC120E94B4
S1132ED08B050AC020E0A801BE016F5F7F4FCF01C0
S1132EE00E943B0601C080E027960FB6F894DEBF2F
S1132EF00FBECDBFDF91CF911F910F91FF90EF9047
S1132F00DF90CF90BF90AF909F908F9008958F9255
S1132F109F92AF92BF92CF92DF92EF92FF920F9364
S1132F201F93CF93DF933BC00780F085E02D808013
S1132F309180A280B380C085D1858E010E5F1F4F22
S1132F40C8010E94F702EC89FD89CE0119958E898A
S1132F5082FF25C08E859F85A889B989880D991D12
S1132F60AA1DBB1D88169906AA06BB0670F48A839F
S1132F709B83AC83BD83DB87CA87B8018091FF1232
S1132F80909100130E94BA020AC0C12CD12C760180
S1132F9000E010E0A501940160E0CE015ADFE09169
S1132FA0FF12F091001380818111BECF8091FD1238
S1132FB09091FE12909300138093FF12F093FE12EF
S1132FC0E093FD12DF91CF911F910F91FF90EF904D
S1132FD0DF90CF90BF90AF909F908F900895CF9245
S1132FE0DF92EF92FF92CF93DF93EC010E94A20D48
S1132FF06B017C018091F5129091F612A091F71269
S1133000B091F812C816D906EA06FB0620F47FDF51
S113301081E0888301C01882C092F512D092F61222
S1133020E092F712F092F812C701B601DF91CF9146
S1133030FF90EF90DF90CF9008954F925F926F9240
S11330407F928F929F92AF92BF92CF92DF92EF9234
S1133050FF920F931F93CF93DF934B015C012901E0
S11330603A01E091FF12F09100130780F085E02D02
S1133070C085D185CE0102960E94F7028E8982FF17
S11330801BC04E855F8568897989480D591D6A1D65
S11330907B1D7501640193018201CE0147DE882303
S11330A069F0C12CD12C760100E010E0A501940157
S11330B060E0CE01CEDE02C08E7F8E8BEC89FD896E
S11330C0CE011995DF91CF911F910F91FF90EF9051
S11330D0DF90CF90BF90AF909F908F907F906F9034
S11330E05F904F9008958F929F92AF92BF92CF922C
S11330F0DF92EF92FF921F93CF93DF931F92CDB78E
S1133100DEB76B017C01142F0E949C0DCE01019649
S113311066DF4B015C01898181112DC011110DC045
S11331208C149D04AE04BF0440F00E94DC0EA50183
S11331309401C701B60181DF20C0112341F0E09161
S1133140FD12F091FE12808111E0811110E0B701AF
S1133150A601481959096A097B09212F8091FB129C
S11331609091FC120E94B6070E94DC0E811105C0EA
S11331700E94730302C00E94DC0E0F90DF91CF9176
S11331801F91FF90EF90DF90CF90BF90AF909F90F2
S11331908F900895AF92BF92CF92DF92EF92FF92F9
S11331A00F931F93CF93DF93CDB7DEB728970FB656
S11331B0F894DEBF0FBECDBF82C0898188230CF492
S11331C07EC0AE80BF80D5011C968D919C911D97C9
S11331D0892B21F0C50102960E94F702CE010896C0
S11331E0FEDE8B019C01E9810E2E000CFF0BEA3000
S11331F0F10508F064C08827EE58FF4F8F4F0C94F8
S1133200C82CF50186898160868BCA80DB80EC80BE
S1133210FD8046855785608971894C0D5D1D6E1D45
S11332207F1DC50183DD882309F449C0D501549667
S1133230ED91FC915597C5011995F501868982FF99
S11332403EC04A815B816C817D8186859785A0899A
S1133250B1899A01AB01280F391F4A1F5B1FC12C8A
S1133260D12C760100E010E060E0C501F2DD27C05A
S1133270D50156968C9156978E7F56968C931FC087
S1133280F50186898160868B4A815B816C817D81B1
S113329046875787608B718B400F511F621F731FC6
S11332A068017901C50142DD0AC0F501868981FD05
S11332B004C0C5010E94680202C08E7F868B20E094
S11332C030E0A901BE016F5F7F4F8091FB129091A6
S11332D0FC120E947606811170CF28960FB6F894DE
S11332E0DEBF0FBECDBFDF91CF911F910F91FF9035
S11332F0EF90DF90CF90BF90AF900895089584B180
S1133300806884B985B1806885B9089583B180687F
S113331083B90895F4DF2FEF80E792E021508040D5
S11333209040E1F700C00000F1DFF5CFE8DF2FEFB8
S113333087EA91E6215080409040E1F700C0000008
S1133340E5DFF5CF6CE770E080E090E00E941D10AF
S113335040D3282F30E02115310579F02330310591
S113336061F01F928F9384EA92E09F938F930E945F
S1133370542E0F900F900F900F9066E070E080E055
S113338090E00E941D103AD3282F30E0211531051A
S113339079F02330310561F01F928F938EEB92E028
S11333A09F938F930E94542E0F900F900F900F9025
S11333B066E070E080E090E00E941D104FEF5FEF48
S11333C0BA0180917A1490917B140E9405073CD332
S11333D0CAE6D4E19B838A835CD3888399839F93D1
S11333E08F938B818F938A818F9389ED92E09F9342
S11333F08F930E94542E00E020E030E0A90160E0A9
S113340070E080917A1490917B140E948B050F9048
S11334100F900F900F900F900F9094CF62EB71E08C
S113342080E090E00E941D100E94352890E00097F3
S1133430A9F39F938F938CEF92E09F938F930E94B5
S1133440542E0F900F900F900F90E8CF0F93CF93BF
S1133450DF9300D01F92CDB7DEB74FEF5FEFBA0115
S113346080917A1490917B140E940507CE010196F5
S11334700E94472881111BC069817A818B819C81BC
S11334800ED27F936F9382E193E09F938F930E9478
S1133490542E69817A818B819C8101D2709371143D
S11334A0609370140F900F900F900F9006C08330AC
S11334B021F48BE193E00E94672E00E020E030E0ED
S11334C0A90160E070E080917A1490917B140E94CD
S11334D08B050F900F900F900F90DF91CF910F916C
S11334E008950F931F93CF93DF93CDB7DEB76497FF
S11334F00FB6F894DEBF0FBECDBF81E00E948327D4
S113350040D4BCD69F938F9388E293E09F938F938C
S11335100E94542EB4D5B2D69F938F938BE393E03D
S11335209F938F930E94542E8E010F5F1F4FC801EB
S11335303AD4A4D61F930F939F938F9384E593E07B
S11335409F938F930E94542EC80149D497D69F937A
S11335508F931F930F9388E693E09F938F930E941A
S1133560542EA8016DE773E08EE993E066D686D603
S11335709F938F931F930F938DE793E09F938F9364
S11335808EE993E09F938F938FEA93E09F938F93B9
S11335900E94542E57D472D69F938F9385EE93E056
S11335A09F938F930E94542E0FB6F894DEBF0FBEE4
S11335B0CDBF81E041D562D69F938F9384EF93E092
S11335C09F938F930E94542E84EF91E040D556D65A
S11335D09F938F9381E08F9384EF8F9385E194E0A1
S11335E09F938F930E94542E0FB6F894DEBF0FBEA4
S11335F0CDBF1AE080E02CD4082F40D69F938F9340
S11336001F921F9385E394E09F938F930E94542EFF
S11336100F900F900F900F900F900F90083041F083
S113362066E371E080E090E00E941D10115011F7F4
S1133630083029F485E594E00E94672E07C08CE6E3
S113364094E00E94672E0E947303FDCF64960FB628
S1133650F894DEBF0FBECDBFDF91CF911F910F91C4
S11336600895CF93DF9300D01F92CDB7DEB781E0EA
S11336707AD362E070E080E090E00E941D1080E068
S113368072D366E970E080E090E00E941D1024D3BC
S113369028DFE7E1F3E188E0818382E080830E9410
S11336A0A20D69837A838B839C8340E15DE160E0B2
S11336B070E0CE0101960E94B80F4FEF5FEFBA01A0
S11336C080917A1490917B140E940507AAE6B4E1D4
S11336D012968C91129713969C911397E7E1F3E15C
S11336E0928383838C9111969C9111979483858303
S11336F014968C91149715969C91159796838783AD
S113370016968C91169717969C9190878187BF0186
S113371080E0C7D3B3D59F938F9380E894E09F93C1
S11337208F930E94542E00E020E030E0A90160E075
S113373070E080917A1490917B140E948B050F9015
S11337400F900F900F90B1CF81B1816881B980E063
S11337500E942E2685E00E94352741E060E070E05B
S11337608CE290E00E941509909369148093681488
S1133770BC0181E0B8D2EAE6F4E115821482138236
S1133780128217821682118210820BD1882369F06B
S11337901F928F9385E994E09F938F930E94542EF8
S11337A00F900F900F900F9004C083EB94E00E9451
S11337B0672E83E03FD680E291E061D68FED94E0FE
S11337C00E94672E86E29AE10E940528882369F008
S11337D01F928F9384EF94E09F938F930E94542EB3
S11337E00F900F900F900F9004C082E195E00E941B
S11337F0672E0E942028882361F01F928F938BE20A
S113380095E09F938F930E94542E0F900F900F90EA
S11338100F90089599DFE12CF12C03E020E030E0D3
S113382048E851E06DE475E081E39BE10E94180DE6
S113383002E020E030E040EC50E067E575E082EA29
S113384099E10E94180D20E030E040EC50E065E67C
S113385075E088E091E00E94180D20E030E040EC33
S113386050E06EE675E08EE09AE10E94180D81E06A
S11338700E942F0690937B1480937A14009741F052
S113388000E020E030E0A90160E070E00E948B05D8
S113389089E795E00E94672E0E94640DFFCF33D024
S11338A088F09F5790F0B92F9927B751A0F0D1F025
S11338B0660F771F881F991F1AF0BA95C9F712C0AF
S11338C0B13081F03AD0B1E0089537C0672F782F36
S11338D08827B85F39F0B93FCCF38695779567951B
S11338E0B395D9F73EF490958095709561957F4F87
S11338F08F4F9F4F089557FD9058440F551F59F00F
S11339005F3F71F04795880F97FB991F61F09F3FC8
S113391079F087950895121613061406551FF2CFF1
S11339204695F1DF08C0161617061806991FF1CF41
S113393086957105610508940895E894BB27662768
S11339407727CB0197F908956530F1F4FA01808166
S11339508F7390E0982F88272181822B90930A02FD
S1133960809309028281F0E48F9FC0011124FA013F
S1133970238126952695822B909308028093070233
S113398081E080932D130895643051F080E090E439
S1133990909308028093070290930A02809309028D
S11339A008950F931F9304EA1CE120E034E244EFEE
S11339B050E060E087E20E94312990932F138093B6
S11339C02E1321E0892B09F020E0822F1F910F9103
S11339D0089580912E1390912F13009759F040E091
S11339E060E070E00E948229843031F410922D133B
S11339F080E0089582E0089583E0089580912E1375
S1133A0090912F13009739F064E00E94CE298530FD
S1133A1021F083E0089582E0089580E008956091A4
S1133A20090270910A0280E090E00E94B32B20E02A
S1133A3030E048EC52E40E941C2C20E038EF4FE7C1
S1133A4056E40C94412B0895EADF20E030E040E294
S1133A5051E40E941C2C23DFCB01089560910702DE
S1133A607091080280E090E00E94B32B20E030E0E7
S1133A7045E253E40E941C2C20E038EF4FE756E463
S1133A800E94412B20E030E040E252E40C94DA2A18
S1133A900895E4DF20E030E040E251E40E941C2C71
S1133AA00E94AC2BCB0108950F931F93CF93DF9308
S1133AB01F921F92CDB7DEB78C0119822DC0E09101
S1133AC06713EC3250F481E08E0F80936713F0E0BB
S1133AD0E756FC4E8A81808302C0109267138A8164
S1133AE08A30D1F44091671350E0FA01E956FC4E54
S1133AF01082415051099E012F5F3F4F69E973E1E4
S1133B0080916A1390916B130E943A0A8981811102
S1133B100E94730310926713BE016E5F7F4FC8014A
S1133B2007D6882361F20F900F90DF91CF911F91F8
S1133B300F9108950F931F93CF93DF938C01EB01A3
S1133B4080916A1390916B130E944709B80180E336
S1133B5093E10E94352E209779F0E0E3F3E10190A0
S1133B600020E9F7319780E290E091838083BE01E1
S1133B7080E393E10E942A2EE0E3F3E1DF010D905C
S1133B800020E9F711978DE09AE011969C938E93AB
S1133B9012961C9201900020E9F73197E053F3410B
S1133BA0AE2F80E393E1AC016A2F80916C13909166
S1133BB06D1369D5811111C008E215E020E030E0F1
S1133BC04DE250E063EF73E180916A1390916B13BF
S1133BD00E947E0A83EF93E102C080E090E0DF91CF
S1133BE0CF911F910F9108952F923F924F925F9220
S1133BF06F927F928F929F92AF92BF92CF92DF92F9
S1133C00EF92FF920F931F93CF93DF935C01FC011C
S1133C1001900020E9F731976F01C81AD90A5C2C8A
S1133C200F2EF4E28F2EF8E09F2EF02DE12CF12CD4
S1133C304C2C3701F40101811281E8010990002024
S1133C40E9F72197C01BD10B3C2EF9E0CF16D10424
S1133C5058F0F4012080FEE02F1206C0B801C5011F
S1133C600E94052E892B09F5442D351408F44C2F98
S1133C7050E0B801C5010E943C2E892B49F4F301A0
S1133C80EE0FFF1FE60DF71DEC5DF74F20800DC012
S1133C908FEFE81AF80AE3E08E0E911CF1E1EF16BB
S1133CA0F10439F66894222424F8822DDF91CF910F
S1133CB01F910F91FF90EF90DF90CF90BF90AF9046
S1133CC09F908F907F906F905F904F903F902F9038
S1133CD0089530DF89CF089580916A1390916B1312
S1133CE00C94470908958F929F92AF92CF92EF92CE
S1133CF00F931F93CF93C82F8B0141E060E070E0D6
S1133D0088EC90E00E94150990936B1380936A13DA
S1133D1010936913009368130F2EF4E58F2EFDE1C1
S1133D209F2EF02D6894AA24A6F86894CC24C6F893
S1133D30E12C00E023E040E051EE60E070E08C2FE5
S1133D40D2D390936D1380936C13E7E0F1E08081FC
S1133D5080618083CF911F910F91EF90CF90AF90AE
S1133D609F908F900895882331F0E8E0F1E08081FE
S1133D708F7E80830895E8E0F1E080818061808314
S1133D80089560E070E08AEA95E0D4DEE3EFF3E1C1
S1133D9001900020E9F73197E35FF34181E07597E3
S1133DA008F080E00895CF93DF93EC0160E070E0C9
S1133DB08BEB95E0BFDEE3EFF3E101900020E9F740
S1133DC0E450F44139F463EF73E1CE010E94352EDF
S1133DD080E002C0188281E0DF91CF910895FC0158
S1133DE001900020E9F79F01215131092817390773
S1133DF029F4BC0189EE95E06CCF089589E008951B
S1133E00FC0101900020E9F79F0121513109281795
S1133E10390729F4BC0188EF95E05BCF089589E068
S1133E200895FC0101900020E9F79F012152310916
S1133E302817390729F4BC0187E096E04ACF089592
S1133E4089E0089560E070E086E496E042CF08954A
S1133E500F931F93E82FF0E0EE0FFF1FE05EF74F84
S1133E60608171818FE496E034DF811114C008E22F
S1133E7015E020E030E04DE250E063EF73E1809123
S1133E806A1390916B130E947E0A882321F083EFBA
S1133E9093E1AADE03C083EF93E1A6DE1F910F91A5
S1133EA008950F931F93CF93DF931F92CDB7DEB77F
S1133EB0DB0111969C911197953108F0B4C09923B8
S1133EC081F160E070E0272F30E0462F50E0FD01E3
S1133ED0E40FF51F928192959F709A3010F0995CCF
S1133EE001C0905DF901EC57FC4E90832F5F3F4F6A
S1133EF0FD01E40FF51F92819F70492F50E04A3075
S1133F00510514F0995C01C0905DF901EC57FC4E29
S1133F1090837E5F6F5F11969C911197691798F259
S1133F2001C070E0E72FF0E0EC57FC4E10824C919A
S1133F30811103C088E596E002C08AE596E024E892
S1133F4033E13F932F931F924F939F938F938EE56B
S1133F5096E09F938F9386EC93E19F938F930E94B7
S1133F60972E60E070E086EC93E1B3DE0FB6F89430
S1133F70DEBF0FBECDBF811159C008E215E020E0BD
S1133F8030E04DE250E063EF73E180916A13909169
S1133F906B130E947E0A882309F447C083EF93E1E0
S1133FA023DE8E3009F042C087E089838091681354
S1133FB090916913892BA9F1BE016F5F7F4F83EF45
S1133FC093E168D180936E13E981F0E0ED50FC4EEB
S1133FD0DF010D900020E9F71197AE1BBF0BAA2358
S1133FE091F0BB27CD0101979C0112F42F5F3F4F45
S1133FF03595279520936F13AF014F5F5F4F64E1B1
S113400080E793E173D101E010E020E030E046E185
S113401050E06EE673E180916813909169130E94F9
S113402077098EE003C084E101C080E00F90DF9146
S1134030CF911F910F910895813019F06EE676E0CB
S113404002C067E477E082E796E043CE08959F9349
S11340508F9383EA96E09F938F9386EC93E19F93EB
S11340608F930E94972E60E070E086EC93E131DE3E
S11340700F900F900F900F900F900F9008952F9224
S11340803F924F925F926F927F928F929F92AF92E4
S1134090BF92CF92DF92EF92FF920F931F93CF9331
S11340A0DF93CDB7DEB7A0970FB6F894DEBF0FBE8F
S11340B0CDBF60ED76E08CED96E03CDD95DD8111C1
S11340C0A3C080E2E2E2F2E0DE01119601900D92DB
S11340D08A95E1F79E012F5F3F4F6901E12CF12C96
S11340E00F2EF8EEAF2EF6E0BF2EF02D06EC13E106
S11340F00F2EF1E04F2EF7E05F2EF02D0F2EF8E19A
S11341008F2EF7E09F2EF02D0F2EF2E36F2EF7E0A7
S11341107F2EF02D3E2C2F2CFF92EF92BF92AF9268
S11341201F930F930E94972E60E070E0C80102DD98
S11341305BDD0F900F900F900F900F900F908111F7
S113414063C032E03E15E8F4F60183818F938281E7
S11341508F9381818F9380818F93FF92EF925F92EF
S11341604F921F930F930E94972E60E070E0C80156
S1134170E1DC3ADD0FB6F894DEBF0FBECDBF81118E
S113418043C02F923F929F928F921F930F930E944E
S1134190972E60E070E0C801CDDC26DD0F900F9013
S11341A00F900F900F900F9081112EC02F923F927D
S11341B07F926F921F930F930E94972E60E070E09E
S11341C0C801B8DC11DD0F900F900F900F900F9085
S11341D00F90811119C03FEFE31AF30A84E0C80E6F
S11341E0D11C98E0E916F10409F094CF60E070E086
S11341F08AE497E09FDCF8DC811106C060E070E09F
S11342008BE597E097DCF0DCA0960FB6F894DEBF60
S11342100FBECDBFDF91CF911F910F91FF90EF9013
S1134220DF90CF90BF90AF909F908F907F906F90D2
S11342305F904F903F902F900895EF92FF920F93CD
S11342401F93CF93DF93EC018B017A0181E0F4DEBD
S113425081110DC0CE01D4DD811109C0C801E1DD99
S1134260811105C0C701BBDD811101C0EBDDDF9108
S1134270CF911F910F91FF90EF90089590E0FC0172
S1134280EE0FFF1F8E0F9F1FFC01EC5DF74F818126
S113429092810895DC01009729F1FB012081FC0142
S11342A001900020E9F73197E81BF90B822F90E089
S11342B0E817F907C8F080E008C0880F382F330FDB
S11342C0330F830F8053890F2F5FFD01E20FF11D20
S11342D0908130ED390F3A3010F49111EECFFB019B
S11342E02083089580E0089580E008950F931F933C
S11342F0CF93DF93DC01EA012097E1F1FA01019009
S11343000020E9F73197E41BF50B329710F532C022
S11343108D01040F151F30E0AE01420F531FFA0147
S11343209081913428F09753592F5295507F03C0B0
S1134330592F5295507F2C0F3D1FF90191819134D3
S113434010F0975301C09053950FF80190838F5F3D
S113435001C080E0282F220F482F50E0FE01019079
S11343600020E9F73197EC1BFD0B4E175F0710F4A3
S11343708613CECFDF91CF911F910F910895809135
S11343802314860F8093231490912614913079F08E
S113439028F09230A9F0933019F108956F3F09F095
S11343A048C01092231481E080932614089566383F
S11343B009F03FC01092221482E0809326140895DD
S11343C0E091221481E08E0F80932214F0E0E05EED
S11343D0FB4E6083823069F583E080932614089550
S11343E09091221421E0290F20932214963009F58C
S11343F081110EC0E0E2F4E1808190E0982F8827DB
S11344002181820F911D909328148093271404C056
S1134410109228141092271410922614E091241458
S1134420F0912514309729F0809127149091281445
S1134430199508958F929F92AF92CF92EF920F9316
S11344400F2EFFEB8F2EF1E29F2EF02D6894AA24FD
S1134450A4F86894CC24C4F8E12C00E023E040E8FC
S113446055E260E070E03FD090932A1480932914C1
S11344700F91EF90CF90AF909F908F90089590936D
S11344802514809324140895CF93DF93CDB7DEB71A
S113449029970FB6F894DEBF0FBECDBF89E0E2E4E2
S11344A0F2E09E012F5F3F4FD90101900D928A9552
S11344B0E1F71092281410922714809129149091F6
S11344C02A14009731F0422F532F69E0DCD080E0AA
S11344D001C082E029960FB6F894DEBF0FBECDBFAF
S11344E0DF91CF9108952F923F924F925F926F92F6
S11344F07F928F929F92AF92CF92EF92FF920F93FF
S11345001F93CF93DF93CDB7DEB7F82E2A013B017B
S113451088E090E00E94D02C8C018F2D90E0FC016B
S1134520EE0FFF1FE55DFB4E11830083011511059E
S113453009F46CC0880F991FFC01E55FFD4F808171
S11345409181D8018D939C938C2D90E0880F991FB5
S1134550880F991F0E94D02C1C0186E090E00E94D5
S1134560D02C7C014C2DB1010E94BE2AF801F582A9
S1134570E4828A2D90E0880F991F880F991F0E946A
S1134580D02C1C0186E090E00E94D02C7C014A2DA6
S1134590B101F4D7D8011396FC92EE9212971796B4
S11345A09C928E921697FFB6F894ED91FC91119718
S11345B036978081826080838D909C90C301B20184
S11345C00E94B32B20E030E040E051E40E941C2C18
S11345D09B01AC0160E074E284E79BE40E94412B00
S11345E020E030E040E85FE3E5D759D9F4013297A1
S11345F06083D801ED91FC911197359788E9808308
S1134600ED91FC91349786E08083FFBEC801DF9171
S1134610CF911F910F91FF90EF90CF90AF909F900B
S11346208F907F906F905F904F903F902F90089560
S1134630CF93DF93DC01892B01F11296ED91FC916C
S11346401397938182812581981B922384819817E3
S1134650B1F0838126952823C081D181C20FD11D59
S113466068838F5F958189238383ED91FC913597CE
S113467080818062808380E003C081E001C082E0A9
S1134680DF91CF910895EF92FF920F931F93CF93F1
S1134690DF937C01009709F441C0DC011296ED918F
S11346A0FC91139793818281981B8581982384813F
S11346B0891B8617A8F1662341F1842F952FDC010D
S11346C06150462F50E04F5F5F4F480F591FE7017D
S11346D0EA81FB81938182812581981B92238481C5
S11346E0981779F08C9193812695292360817181A3
S11346F08B01020F111DE80188839F5F8581982338
S113470093831196A417B50711F7D701ED91FC9186
S1134710359780818062808380E003C081E001C09E
S113472082E0DF91CF911F910F91FF90EF90089558
S11347300097D1F0DC011496ED91FC9115979381CB
S11347408281981799F09281858186958923A08129
S1134750B181A80FB11D8C91DB018C939F5F858182
S11347609823928380E0089581E0089583E008957A
S11347701F920F920FB60F9211240BB60F922F9324
S11347803F934F935F936F937F938F939F93AF93D5
S1134790BF93CF93DF93EF93FF93A0912B14B0912A
S11347A02C14109711F16091C6001496ED91FC91B0
S11347B01597938182812581981B92238481981770
S11347C061F0838126952823C081D181C20FD11D38
S11347D068838F5F9581892383831696ED91FC917D
S11347E01797309711F0CD011995FF91EF91DF9153
S11347F0CF91BF91AF919F918F917F916F915F9175
S11348004F913F912F910F900BBE0F900FBE0F90C1
S11348101F9018951F920F920FB60F9211240BB68A
S11348200F922F938F939F93AF93BF93EF93FF9325
S1134830E0912B14F0912C143097B9F00280F3819D
S1134840E02D938182819817B1F092818581282F80
S113485026952923A081B181A20FB11D2C919F5FC0
S1134860892382832093C6000BC0E1ECF0E08081B1
S11348708F7D808305C0E1ECF0E080818F7D8083B3
S1134880FF91EF91BF91AF919F918F912F910F90D5
S11348900BBE0F900FBE0F901F9018951F920F9292
S11348A00FB60F9211240BB60F922F933F934F9391
S11348B05F936F937F938F939F93AF93BF93CF93A4
S11348C0DF93EF93FF93A0912D14B0912E141097C2
S11348D011F16091CE001496ED91FC91159793819E
S11348E082812581981B92238481981761F08381AA
S11348F026952823C081D181C20FD11D68838F5F83
S11349009581892383831696ED91FC9117973097AF
S113491011F0CD011995FF91EF91DF91CF91BF91E6
S1134920AF919F918F917F916F915F914F913F9143
S11349302F910F900BBE0F900FBE0F901F901895E4
S11349401F920F920FB60F9211240BB60F922F9352
S11349508F939F93AF93BF93EF93FF93E0912D14A5
S1134960F0912E143097B9F00280F381E02D9381F9
S113497082819817B1F092818581282F2695292369
S1134980A081B181A20FB11D2C919F5F89238283E5
S11349902093CE000BC0E9ECF0E080818F7D808312
S11349A005C0E9ECF0E080818F7D8083FF91EF9179
S11349B0BF91AF919F918F912F910F900BBE0F904C
S11349C00FBE0F901F9018951F920F920FB60F9263
S11349D011240BB60F922F933F934F935F936F93D2
S11349E07F938F939F93AF93BF93CF93DF93EF9373
S11349F0FF93A0912F14B0913014109711F160918E
S1134A00D6001496ED91FC911597938182812581AE
S1134A10981B92238481981761F08381269528231B
S1134A20C081D181C20FD11D68838F5F9581892395
S1134A3083831696ED91FC911797309711F0CD0171
S1134A401995FF91EF91DF91CF91BF91AF919F9114
S1134A508F917F916F915F914F913F912F910F9023
S1134A600BBE0F900FBE0F901F9018951F920F92C0
S1134A700FB60F9211240BB60F922F938F939F931F
S1134A80AF93BF93EF93FF93E0912F14F091301401
S1134A903097B9F00280F381E02D938182819817D9
S1134AA0B1F092818581282F26952923A081B18197
S1134AB0A20FB11D2C919F5F892382832093D6007E
S1134AC00BC0E1EDF0E080818F7D808305C0E1EDD6
S1134AD0F0E080818F7D8083FF91EF91BF91AF9152
S1134AE09F918F912F910F900BBE0F900FBE0F903F
S1134AF01F9018951F920F920FB60F9211240BB6A8
S1134B000F922F933F934F935F936F937F938F9362
S1134B109F93AF93BF93CF93DF93EF93FF93A091B2
S1134B203114B0913214109711F16091360114963A
S1134B30ED91FC911597938182812581981B922395
S1134B408481981761F0838126952823C081D181BF
S1134B50C20FD11D68838F5F958189238383169645
S1134B60ED91FC911797309711F0CD011995FF91B4
S1134B70EF91DF91CF91BF91AF919F918F917F91F1
S1134B806F915F914F913F912F910F900BBE0F90BA
S1134B900FBE0F901F9018951F920F920FB60F9291
S1134BA011240BB60F922F938F939F93AF93BF93C0
S1134BB0EF93FF93E0913114F09132143097B9F0F0
S1134BC00280F381E02D938182819817B1F0928164
S1134BD08581282F26952923A081B181A20FB11D9B
S1134BE02C919F5F89238283209336010BC0E1E3DC
S1134BF0F1E080818F7D808305C0E1E3F1E0808175
S1134C008F7D8083FF91EF91BF91AF919F918F91A1
S1134C102F910F900BBE0F900FBE0F901F90189501
S1134C20CF93DF931F92CDB7DEB7BE016F5F7F4F87
S1134C3080913314909134147BDD8111F6CF8981F6
S1134C4090E00F90DF91CF910895682F80913314F5
S1134C5090913414EDDC80E090E008958F929F925F
S1134C60AF92CF92EF920F93812C912C6894AA2447
S1134C70A7F86894CC24C7F8E12C00E023E040E0D6
S1134C8051EE60E070E02FDC909334148093331481
S1134C90E0E8F4E183E192E091838083938382836B
S1134CA00F91EF90CF90AF909F908F90089590E0E8
S1134CB0FC01EE0FFF1FE80FF91FEE0FFF1FEB5C67
S1134CC0FB4E238121111FC09C01220F331FF901C8
S1134CD0E80FF91FEE0FFF1FEB5CFB4EA081B181C3
S1134CE04C91F901E80FF91FEE0FFF1FEB5CFB4E2F
S1134CF081E090E0028002C0880F991F0A94E2F7D5
S1134D00842B8C930895FC01EE0FFF1FDF01A80F85
S1134D10B91FAA0FBB1FAB5CBB4E0D90BC91A02D5D
S1134D202C91E80FF91FEE0FFF1FEB5CFB4E81E0A7
S1134D3090E0028002C0880F991F0A94E2F78095E0
S1134D4082238C93089590E0FC01EE0FFF1FE80F7F
S1134D50F91FEE0FFF1FEB5CFB4E2381211120C0D6
S1134D609C01220F331FF901E80FF91FEE0FFF1FFB
S1134D70EB5CFB4EA081B1814C91F901E80FF91F66
S1134D80EE0FFF1FEB5CFB4E81E090E0028002C05F
S1134D90880F991F0A94E2F7809584238C930895D1
S1134DA0FC01EE0FFF1FDF01A80FB91FAA0FBB1FE5
S1134DB0AB5CBB4E0D90BC91A02D2C91E80FF91F5C
S1134DC0EE0FFF1FEB5CFB4E81E090E0028002C01F
S1134DD0880F991F0A94E2F7822B8C930895CC24B0
S1134DE0C394D12C6894BB24B2F8C5E3D4E110E099
S1134DF08C81813081F018F1823061F5E881F9818C
S1134E002081C6010A8002C0880F991F0A94E2F724
S1134E10822780831FC08D818F5F8A3010F48D8339
S1134E2019C01D82E881F9812081C6010A8002C06F
S1134E30880F991F0A94E2F7822780830BC00D81A3
S1134E40002329F0812F7FDF01500D8303C0BC8232
S1134E50812F2DDF1F5F2696143051F665E070E038
S1134E6080E090E00E941D10C0CFEF92FF920F935C
S1134E701F93CF93DF93082F80E487B9C5E3D4E170
S1134E800F2EF8E2EF2EF12CF02DF982E88286E065
S1134E908A831B8214E01C8380E009DF80E887B9E1
S1134EA0FF82EE8287E0888719861A8781E0FFDE19
S1134EB080E283BB84E390E09D878C8785E08E87C6
S1134EC01F86188B82E0F3DE80E18093010182E08B
S1134ED091E09B8B8A8B1C8B1D8A1E8B83E0E7DE03
S1134EE0E12CF12C20E030E040EC50E067E578E084
S1134EF08FEE96E20E94180DDF91CF911F910F91D2
S1134F00FF90EF900895CF93DF9390E0FC01EE0FB4
S1134F10FF1FDF01A80FB91FAA0FBB1FAB5CBB4E5D
S1134F20CD91DC911197488121E030E012960C90EC
S1134F30129702C0220F331F0A94E2F72427288312
S1134F40FD0181E08483DF91CF910895E0915514B0
S1134F50F0915614309709F0199508956450623011
S1134F6008F03BC020915414223079F018F4213019
S1134F7031F030C0233081F02430A1F02BC022E086
S1134F802093541461E00AC20895FA018081809349
S1134F90511482E0DBCF089524E02093541464E09C
S1134FA0FDC10895FA01818190E0982F882720811E
S1134FB0822B9093501480934F14838190E0982F08
S1134FC088272281822B90934E1480934D1481E084
S1134FD0BDCF089580E0BACF08951092541486E0AE
S1134FE0B5CF0895209157143091581421153105E7
S1134FF041F0462FBC01C90185D1823021F080E007
S1135000089587E0089585E008950F931F93909382
S11350105614809355140EEA17E220E034E244EF6C
S113502050E060E089E21DD19093581480935714A6
S1135030892B11F080E001C088E01F910F91089541
S1135040CF93DF931F921F92CDB7DEB780EA898397
S113505083E08A831092541462E0CE010196C2DF89
S11350600F900F90DF91CF910895CF93DF931F920C
S1135070CDB7DEB784EB898383E08093541461E079
S1135080CE010196AFDF0F90DF91CF9108952F925B
S11350903F924F925F926F927F928F929F92AF92C4
S11350A0BF92CF92DF92EF92FF920F931F93CF9311
S11350B0DF93C0914D14D0914E14CF3F2FEFD20700
S11350C041F060914F14709150146F3FEFEF7E07E1
S11350D059F44FEF5FEF6FE77FE7FC0140835183A3
S11350E06283738383E099C01C0180E090E03BD32A
S11350F02B013C01BE0180E090E035D34B015C0103
S11351008091521490E0019624E6289FB001299FD3
S1135110700D112480915314803269F08033A1F012
S11351208031E1F40F2EC12CD12CF8ECEF2EF1E4F8
S1135130FF2EF02D1BC00F2EC12CD12CF6EDEF2E1F
S1135140F3E4FF2EF02D12C00F2EC12CF0E5DF2E5C
S1135150FAE1EF2EF6E4FF2EF02D08C00F2EC12C3D
S1135160D12CF0E8EF2EFFE3FF2EF02D072E000CDC
S1135170880B990BFAD2A70196015ED320E030E0A8
S11351804CEC53E47ED26B017C0125E83BEE41ED0F
S11351905FE3C501B40150D39B01AC01C301B2016B
S11351A009D2A70196016DD2162FD72FC82F092F28
S11351B02DE33AE047E15FE3C301B2013DD32B01A4
S11351C03C0126EF38E24CE55FE3C501B40134D37A
S11351D09B01AC01C301B201EDD1A701960151D2EB
S11351E0C62ED72EE82EF92E262F372F482F592FCB
S11351F0612F7D2F8C2F902F1BD3181624F01C2D7C
S1135200DD2DCE2D0F2D412F5D2F6C2F702FF10131
S1135210408351836283738380E0DF91CF911F9138
S11352200F91FF90EF90DF90CF90BF90AF909F9041
S11352308F907F906F905F904F903F902F90089544
S11352408091671481110CC08CE08093B8008FEFBB
S11352508093BB0084E08093BC0081E0809367145A
S11352600895AF92BF92CF92DF92EF92FF920F9385
S11352701F93CF93DF93A82EB62E69017A0184E0A1
S113528090E08ED3EC01892B61F1A88281E0B81201
S113529012C0C701B60120EA36E841E050E056D317
S11352A0DA01C9014097A109B109B695A795979567
S11352B08795898311C0C701B60120E83AE146E029
S11352C050E044D3DA01C9014097A109B109B69568
S11352D0A7959795879589831B830A838C2F9D2F88
S11352E002C080E090E0DF91CF911F910F91FF9079
S11352F0EF90DF90CF90BF90AF9008958091BC0065
S113530081700895FF920F931F93CF93DF930097BB
S1135310D1F14A30D0F5F42E8B01EC01EFDF81118D
S113532036C080915A1490915B14C817D90741F084
S113533087DF89818093B800D0935B14C0935A149B
S113534081E08F0D80935C148881880F80935D14B5
S1135350FF2089F0F801AEE5B4E14FEF4F0D642F63
S113536070E0CB010196B801680F791F81918D938C
S1135370E617F707D9F788EF8093210285EA80932F
S1135380BC0084E005C086E003C087E001C082E081
S1135390DF91CF911F910F91FF9008951F93CF93A9
S11353A0DF93009729F16B3028F5162FEC01A6DF67
S11353B0811122C080915A1490915B14C817D907A7
S11353C041F03EDF89818093B800D0935B14C09391
S11353D05A1410935C148881880F816080935D1443
S11353E088EF8093210285EA8093BC0085E005C0A4
S11353F086E003C087E001C082E0DF91CF911F9176
S113540008951F920F920FB60F9211240BB60F92AC
S11354102F933F934F935F936F937F938F939F93B8
S1135420AF93BF93EF93FF93E091B9008E2F90E079
S1135430FC013897E135F10508F075C08827E45878
S1135440FF4F8F4FA5C210925914E09159148091C7
S11354505C14E81770F481E08E0F80935914F0E027
S1135460E35AFB4E80818093BB0085E88093BC00A7
S113547072C084E98093BC0080915A1490915B14AB
S1135480DC011296ED91FC911397309709F463C0F7
S113549020E040E050E064E019955DC0E0915914CB
S11354A081E08E0F809359148091BB00F0E0E35AA1
S11354B0FB4E80838091B900803411F4109259140A
S11354C02091591430E080915C1490E001972817E2
S11354D0390724F485EC8093BC003DC085E88093B3
S11354E0BC0039C08091BB00E0915914F0E0E35A4C
S11354F0FB4E808384E98093BC0080915A14909180
S11355005B14DC011296ED91FC911397309719F11D
S113551020915C144DE554E165E019951CC085EAC1
S11355208093BC0018C08091B9008093210284E06C
S11355308093BC0080915A1490915B14DC01129604
S1135540ED91FC911397309731F020E040E050E06A
S1135550609121021995FF91EF91BF91AF919F91B5
S11355608F917F916F915F914F913F912F910F9008
S11355700BBE0F900FBE0F901F901895FC014111A8
S113558001C02FD3842F90E09C0121503109822344
S11355909323892B09F025D3413808F022D31282B2
S11355A013824483440F415045837183608380E0B8
S11355B090E008955058BB27AA270ED028C119D1CE
S11355C030F01ED120F031F49F3F11F41EF40EC1CF
S11355D00EF4E095E7FB04C1E92F0E947B1C78F3ED
S11355E0BA17620773078407950720F079F4A6F5C4
S11355F00C949D1C0EF4E0950B2EBA2FA02D0B01DC
S1135600B90190010C01CA01A0011124FF27591B03
S113561099F0593F50F4503E68F11A16F040A22F09
S1135620232F342F4427585FF3CF4695379527957A
S1135630A795F0405395C9F77EF41F16BA0B620B79
S1135640730B840BBAF09150A1F0FF0FBB1F661FC0
S1135650771F881FC2F70EC0BA0F621F731F841F03
S113566048F4879577956795B795F7959E3F08F029
S1135670B1CF9395880F08F09927EE0F97958795EA
S113568008950DD0C4C0BCD048F0B3D038F021F494
S11356905F3F21F0A5C051110C949E1CA7C00E942D
S11356A07B1C88F39923B9F35523A1F3951B550B60
S11356B0BB27AA2762177307840738F09F5F5F4FE1
S11356C0220F331F441FAA1FA9F334D00E2E3AF021
S11356D0E0E831D091505040E695001CCAF72AD03A
S11356E0FE2F28D0660F771F881FBB1F261737078A
S11356F04807AB07B0E809F0BB0B802DBF01FF27BB
S113570093585F4F32F09E3F510570F069C00C947E
S11357109E1C5F3FE4F3983ED4F386957795679596
S1135720B795F7959F5FC9F7880F911D9695879553
S113573097F90895E1E0660F771F881FBB1F621772
S113574073078407BA0720F0621B730B840BBA0B30
S1135750EE1F88F7E09508950E944F1C6894B111DC
S11357600C949E1C0895E89409C097FB3EF4909510
S11357708095709561957F4F8F4F9F4F9923A9F026
S1135780F92F96E9BB279395F695879577956795B5
S1135790B795F111F8CFFAF4BB0F11F460FF1BC0F9
S11357A06F5F7F4F8F4F9F4F16C0882311F096E98C
S11357B011C0772321F09EE8872F762F05C066233A
S11357C071F096E8862F70E060E02AF09A95660FF3
S11357D0771F881FDAF7880F9695879597F90895AC
S11357E097F99F6780E870E060E008959FEF80EC90
S11357F0089500240A941616170618060906089533
S113580000240A9412161306140605060895092E98
S11358100394000C11F4882352F0BB0F40F4BF2B07
S113582011F460FF04C06F5F7F4F8F4F9F4F089547
S113583069D008F48FEF08950CD0E9CFDADF28F0AF
S1135840DFDF18F0952309F0CBCFD0CF11240C94CF
S11358509E1C0E947B1C90F3959FC1F3950F50E012
S1135860551F629FF001729FBB27F00DB11D639F0E
S1135870AA27F00DB11DAA1F649F6627B00DA11DB4
S1135880661F829F2227B00DA11D621F739FB00D5A
S1135890A11D621F839FA00D611D221F749F3327CA
S11358A0A00D611D231F849F600D211D822F762F63
S11358B06A2F11249F57504092F0E9F088234AF050
S11358C0EE0FFF1FBB1F661F771F881F91505040AC
S11358D0A9F79E3F510578F083CF0C949E1C5F3F3F
S11358E0E4F3983ED4F3869577956795B795F79545
S11358F0E7959F5FC1F7FE2B880F911D96958795BD
S113590097F90895990F0008550FAA0BE0E8FEEFE8
S113591016161706E807F907C0F012161306E4076F
S1135920F50798F0621B730B840B950B39F40A2668
S113593061F0232B242B252B21F408950A2609F446
S1135940A140A6958FEF811D811D0895A1E21A2E15
S1135950AA1BBB1BFD010DC0AA1FBB1FEE1FFF1F0F
S1135960A217B307E407F50720F0A21BB30BE40B5F
S1135970F50B661F771F881F991F1A9469F76095A6
S11359807095809590959B01AC01BD01CF01089560
S1135990EE0FFF1F881F8BBF0790F691E02D19941F
S11359A00F931F93CF93DF938230910510F482E01D
S11359B090E0E0917E14F0917F1420E030E0A0E0CC
S11359C0B0E0309719F14081518102811381481769
S11359D05907C8F08417950769F4109731F01296A7
S11359E00C93129713961C9327C000937E14109364
S11359F07F1422C02115310519F04217530718F4FA
S1135A009A01BD01EF01DF01F801DBCF211531055A
S1135A10F9F0281B390B2430310580F48A819B81ED
S1135A206115710521F0FB019383828304C0909377
S1135A307F1480937E14FE01329644C0FE01E20F6F
S1135A40F31F8193919322503109398328833AC0FB
S1135A5020917C1430917D14232B41F42091020277
S1135A603091030230937D1420937C142091000222
S1135A70309101022115310541F42DB73EB7409113
S1135A80040250910502241B350BE0917C14F09123
S1135A907D14E217F307A0F42E1B3F0B28173907D8
S1135AA078F0AC014E5F5F4F2417350748F04E0F76
S1135AB05F1F50937D1440937C148193919302C093
S1135AC0E0E0F0E0CF01DF91CF911F910F910895B5
S1135AD0CF93DF93009709F481C0FC0132971382BE
S1135AE01282A0917E14B0917F14109781F42081CA
S1135AF03181820F931F20917C1430917D142817DB
S1135B00390751F5F0937D14E0937C1467C0ED01DF
S1135B1020E030E0CE17DF0740F44A815B819E012C
S1135B2041155105F1F0EA01F5CFD383C2834081D9
S1135B305181840F951FC817D90759F48881998119
S1135B40840F951F0296918380838A819B8193831E
S1135B5082832115310529F4F0937F14E0937E1498
S1135B603DC0E901FB83EA8349915991C40FD51FD4
S1135B70EC17FD0761F480819181840F951F0296D3
S1135B80E90199838883828193819B838A83E0E0FE
S1135B90F0E012968D919C911397009719F0FD01F6
S1135BA0DC01F7CF8D919C9111979D012E5F3F4FA2
S1135BB0820F931F20917C1430917D14281739078C
S1135BC069F4309729F410927F1410927E1402C065
S1135BD013821282B0937D14A0937C14DF91CF9131
S1135BE0089581E090E0F8947DC3FB01DC0102C0DC
S1135BF001900D9241505040D8F70895DC0101C046
S1135C006D9341505040E0F70895FB0151915523A5
S1135C10B1F0BF01DC01052E4D91442369F010D091
S1135C20D9F7CD010190002049F04D91411108D0E0
S1135C30C9F3FB014111EECF81E090E00197089593
S1135C40402539F0403229F440294B57465E08F08C
S1135C5018940895FB01DC010D900020E9F71197D9
S1135C6001900D920020E1F70895FB01DC01019001
S1135C700D920020E1F70895FB01DC0141505040F2
S1135C8088F08D9181341CF08B350CF4805E619129
S1135C9061341CF06B350CF4605E861B611171F38A
S1135CA0990B0895881BFCCFCF93DF93CDB7DEB754
S1135CB0AE014A5F5F4FFA0161917191AF0180912A
S1135CC082149091831461D0DF91CF9108950F9342
S1135CD01F93CF93DF93E0918214F0918314238177
S1135CE021FF1BC08C01D0E0C0E0F80181918F013D
