S0120000342E53656D65737465722E7372656368
S1130000E5C0000004C1000002C1000000C10000FE
S1130010FEC00000FCC00000FAC00000F8C00000F0
S1130020F6C00000F4C00000F2C00000F0C0000000
S11300300AC40000ECC00000EAC00000E8C00000F0
S1130040E6C00000E4C00000E2C00000E0C0000020
S1130050DEC00000DCC00000DAC00000D8C0000030
S1130060D6C000000C9439210C948B21D0C0000020
S1130070CEC00000CCC00000CAC00000C8C0000050
S1130080C6C00000C4C00000C2C00000C0C0000060
S11300900C94CF210C942122BAC000000C94822726
S11300A0B6C00000B4C00000B2C00000B0C0000080
S11300B0AEC00000ACC00000AAC00000A8C0000090
S11300C0A6C00000A4C00000A2C000000C946522D9
S11300D00C94B7229CC000000C94FB220C944D237A
S11300E096C00000861886188618BD18C518DA1838
S11300F086188618BD18C518A4271428142814288F
S11301001428142814281428A4271428142814287C
S11301101428142814281428A6271428142814286A
S113012014281428142814281428142814281428EB
S11301301428142814281428A6271428142814284A
S113014014281428142814281428142814281428CB
S113015014281428142814281028142814281428BF
S11301601428142814281428DB27142814281428E5
S1130170142814281428142814281428142814289B
S11301801428142814281428CF27142814281428D1
S11301901428142814281428F3270E943B0C809157
S11301A0AF11823008F089D20E940319F6CFCF93A1
S11301B0DF931F92CDB7DEB7CE0101960E940316DE
S11301C049810E94F8170E944F18F6CF11241FBED0
S11301D0CFEFD1E2DEBFCDBF00E00CBF15E0A0E061
S11301E0B2E0E4ECFDE500E00BBF02C007900D9225
S11301F0A639B107D9F723E1A6E9B5E001C01D92FC
S1130200A63CB207E1F70E94E11A0C94E02EF8CE66
S113021062E370E080E090E00E94A20F0E94911FD0
S11302206CEA76E280E090E00E94A20FF1CF0F9397
S1130230CF93DF93EC014FEF5FEFBA018091BA13D4
S11302409091BB13CCD5D093AF13C093AE1300E001
S113025020E030E0A90160E070E08091BA13909151
S1130260BB1343D4DF91CF910F910895E2EAF5E0F7
S1130270A6EAB5E0B183A08313821282EAE5F1E134
S1130280F093A105E093A0051382128211821082DB
S113029084EB9BE013969C938E931297ED93FC93BF
S11302A090939D0580939C0590939F0580939E0554
S11302B080E090E890939705809396050895CF93F6
S11302C0DF93EC01A2EAB5E001C0DF01ED91FC91FE
S11302D01197EC17FD07C8F312968D919C91139713
S11302E09D01280F391FC217D30749F42A813B8186
S11302F0820F931F13969C938E931297ED018A811C
S11303009B819E01280F391FE217F307C1F4209146
S1130310A0053091A105E217F30771F02281338122
S1130320820F931F9B838A83ED91FC9111978081A7
S113033091819983888305C03983288302C0F98316
S1130340E883CA17DB0711F0CD93DC93DF91CF91DB
S11303500895EF92FF920F931F93CF93DF938C0135
S11303600E94860D8091A0059091A105892B09F426
S11303707DDF809196059091970580239123892BA9
S113038009F076C00115110549F0C8010496081753
S1130390190718F000E010E001C08C0101151105E7
S11303A009F469C080919E0590919F05801791077B
S11303B008F464C0C091A205D091A305E2EAF5E077
S11303C002C0FE01EC018A819B818017910720F411
S11303D0888199810097A9F78091A0059091A10542
S11303E0C817D90709F44DC0E080F18084E0E80E15
S11303F0F11C88819981918380832A813B81201B10
S1130400310B2930310548F0CE01800F911FFC01DA
S1130410338322831B830A8352DF2A813B818091A9
S11304209E0590919F05821B930B90939F0580934B
S11304309E0540919C0550919D058417950720F4D5
S113044090939D0580939C058091960590919705C6
S1130450282B392B3B832A831982188280919A0591
S113046090919B05019690939B0580939A050BC0F0
S1130470E12CF12C08C0E12CF12C05C0E12CF12C6D
S113048002C0E12CF12C0E94C60EE114F10411F417
S11304900E940F19C701DF91CF911F910F91FF9017
S11304A0EF9008950F931F93CF93DF93009791F1EB
S11304B0EC0124974A815B81209196053091970540
S11304C0BA0162237323672B29F168817981672B31
S11304D009F520953095242335233B832A830E94F4
S11304E0860D8A819B8120919E0530919F05820F04
S11304F0931F90939F0580939E05CE01E0DE80912B
S11305009805909199050196909399058093980583
S11305100E94C60EDF91CF911F910F910895FC01A7
S11305200396928381834FEF5FEFBA014383548331
S11305306583768390878783928781871082089565
S1130540FC011386128608950F931F93CF93DF93B4
S1130550EB01088119812A813B810F3F4FEF14077A
S11305602407340721F4FC01A185B28511C0DC0104
S1130570139601C0DF011496ED91FC91159740810B
S1130580518162817381041715072607370790F795
S11305901496ED91FC911597FD83EC83D783C68364
S11305A0BF83AE831596DC93CE9314979B878A877B
S11305B0FC0120812F5F2083DF91CF911F910F9148
S11305C00895CF93DF93FC01A285B385C481D581BF
S11305D0868197819F838E83C681D781848195810B
S11305E09D838C8311968D919C911297E817F9073E
S11305F031F48681978112969C938E93119713867A
S113060012868C9181508C938C91DF91CF910895B7
S1130610A89590EC88E10FB6F894A89580936000B3
S11306200FBE909360000895FC016083319770833E
S11306303197108231971082319720E820833197C7
S113064010823197108231971082779740833197C7
S1130650508386970895DCDFA0911D12B0911E127D
S1130660CD91CDBFDD91DEBFFF91EF91DF91CF91B1
S1130670BF91AF919F918F917F916F915F914F91B6
S11306803F912F911F910F91FF90EF90DF90CF90AA
S1130690BF90AF909F908F907F906F905F904F909E
S11306A03F902F901F900F900CBE0F900BBE0F9099
S11306B00FBE0F90089581E008950F920FB6F8943D
S11306C00F920BB60F920CB60F921F9211242F9219
S11306D03F924F925F926F927F928F929F92AF92CE
S11306E0BF92CF92DF92EF92FF920F931F932F93BB
S11306F03F934F935F936F937F938F939F93AF93A6
S1130700BF93CF93DF93EF93FF93A0911D12B0910A
S11307101E120DB60D920EB60D920E94BD0FA09141
S11307201D12B0911E12CD91CDBFDD91DEBFFF91A0
S1130730EF91DF91CF91BF91AF919F918F917F9175
S11307406F915F914F913F912F911F910F91FF9066
S1130750EF90DF90CF90BF90AF909F908F907F905D
S11307606F905F904F903F902F901F900F900CBE12
S11307700F900BBE0F900FBE0F9008950F920FB6FF
S1130780F8940F920BB60F920CB60F921F9211248D
S11307902F923F924F925F926F927F928F929F928D
S11307A0AF92BF92CF92DF92EF92FF920F931F937B
S11307B02F933F934F935F936F937F938F939F9365
S11307C0AF93BF93CF93DF93EF93FF93A0911D1249
S11307D0B0911E120DB60D920EB60D9213BE0E946C
S11307E09A0D81110E94BD0FA0911D12B0911E128D
S11307F0CD91CDBFDD91DEBFFF91EF91DF91CF9120
S1130800BF91AF919F918F917F916F915F914F9124
S11308103F912F911F910F91FF90EF90DF90CF9018
S1130820BF90AF909F908F907F906F905F904F900C
S11308303F902F901F900F900CBE0F900BBE0F9007
S11308400FBE0F9008959ADF1895DC0153962C91F2
S11308505397222341F05A96ED91FC915B97908136
S11308608AE0891B089580E008950FB6F8940F92EA
S1130870FC01868D811102C081E001C080E00F90EF
S11308800FBE08950FB6F8940F92FC01268D878D44
S1130890281302C081E001C080E00F900FBE0895CC
S11308A00F931F93CF93DF93EC01042F1E8D48A168
S11308B041110CC088819981892B09F042C08C8137
S11308C09D810E9455121D821C8242C0011117C0D5
S11308D050E08A819B810E94762B28A18A819B818A
S11308E0820F911D9B838A832C813D8182179307FC
S11308F050F1888199819B838A8380E029C050E0EC
S11309008E819F810E94762B88A190E0919581959C
S113091091092E813F81280F391F3F832E834881FF
S113092059812417350730F42C813D81820F931FA0
S11309309F838E83023049F4112349F0115080E0E3
S113094007C080E005C080E003C080E001C080E013
S11309501F5F1E8FDF91CF911F910F910895FC01AE
S113096040A14423A9F050E026813781240F351F8C
S113097037832683848195812817390720F0808165
S1130980918197838683CB01668177810C94762B42
S113099008951F93CF93DF93EC010FB6F8940F9251
S11309A01AA10BC08B89882351F0CE0143960E9473
S11309B07B1081110E94B711115011169CF38FEF17
S11309C08AA30F900FBE0FB6F8940F9219A10BC013
S11309D08885882351F0CE0108960E947B108111EE
S11309E00E94B711115011169CF38FEF89A30F9039
S11309F00FBEDF91CF911F910895CF93DF93EC0148
S1130A000FB6F8940F92E881F9818F8D28A190E0B8
S1130A1030E0829FA001839F500D929F500D1124BE
S1130A204E0F5F1F5D834C831E8EFB83EA83019709
S1130A30289FA001299F500D389F500D1124CF01EC
S1130A40840F951F9F838E838FEF89A38AA36111DF
S1130A500BC08885882371F0CE0108960E947B1014
S1130A60882341F02ADE06C0CE01089658DDCE0167
S1130A70439655DD0F900FBE81E0DF91CF9108952D
S1130A800F931F93F801611103C01183008302C007
S1130A9051834083878F60A361E0CF01AEDF1F9154
S1130AA00F910895DF92EF92FF920F931F93CF93CC
S1130AB0DF93F82EE62ED42E869FC0011124839650
S1130AC048DCEC01009741F08C012D2DAC014D5D0B
S1130AD05F4F6E2D8F2DD4DFCE01DF91CF911F910B
S1130AE00F91FF90EF90DF900895CF92DF92EF92F5
S1130AF0FF920F931F93CF93DF93CDB7DEB7299760
S1130B000FB6F894DEBF0FBECDBF7C016B012E8300
S1130B103F834887598710E00FB6F8940F92F70186
S1130B20968D878D981710F00230B1F4402FB601DE
S1130B30C701B6DEF7019389992341F0C7014396B3
S1130B400E947B10882321F0B8DD02C08111B5DD3D
S1130B500F900FBE81E04CC08E819F81A885B9851E
S1130B60892B8A2B8B2B21F40F900FBE80E040C081
S1130B70111105C0CE0101960E94401111E00F90A1
S1130B800FBEC4D70FB6F8940F92F70181A18F3F1F
S1130B9009F411A2F70182A18F3F09F412A20F9068
S1130BA00FBEBE016A5F7F4FCE0101960E945111B4
S1130BB0811119C0C70166DE882381F04E815F81EF
S1130BC068857985C70108960E942210C701E1DE75
S1130BD00E94C60E8111A0CF70DD9ECFC701D9DE61
S1130BE00E94C60E99CFC701D4DE0E94C60E80E0D3
S1130BF029960FB6F894DEBF0FBECDBFDF91CF911B
S1130C001F910F91FF90EF90DF90CF9008950F9375
S1130C10009769F0FC0115821482118210821682F9
S1130C2000E020E030E0A90160E070E05EDF0F91B9
S1130C300895CF93DF93482F60E081E033DFEC0128
S1130C40E6DFCE01DF91CF910895EF92FF920F93EB
S1130C501F93CF93DF938A01FC01568D378D531771
S1130C6010F02230F9F4422F7801EC011AA18E8D94
S1130C70CE0116DE1F3F81F48B898823A9F0CE01B3
S1130C8043960E947B10882389F0E114F10481F0DB
S1130C9081E0F70180830DC0FF24F394F10EFAA2E2
S1130CA081E007C080E005C081E003C081E001C0AD
S1130CB081E0DF91CF911F910F91FF90EF90089504
S1130CC0CF92DF92EF92FF920F931F93CF93DF9314
S1130CD0CDB7DEB729970FB6F894DEBF0FBECDBFF0
S1130CE08C016B012E833F8348875987E12C0FB613
S1130CF0F8940F92F801F68CFF2099F0B601C80120
S1130D002EDEFA94F801F68E8085882331F0C8012E
S1130D1008960E947B108111D0DC0F900FBE81E0F9
S1130D204FC08E819F81A885B985892B8A2B8B2BF7
S1130D3021F40F900FBE80E043C0E11006C0CE0145
S1130D4001960E944011EE24E3940F900FBEDED66C
S1130D500FB6F8940F92F80181A18F3F09F411A204
S1130D60F80182A18F3F09F412A20F900FBEBE01B9
S1130D706A5F7F4FCE0101960E945111811117C005
S1130D80C80173DD882379F04E815F816885798598
S1130D90C80143960E942210C801FBDDF7D78111D8
S1130DA0A6CF8BDCA4CFC801F4DDF0D7A0CFC80157
S1130DB0F0DDECD7C80159DD882309F498CF80E031
S1130DC029960FB6F894DEBF0FBECDBFDF91CF9149
S1130DD01F910F91FF90EF90DF90CF900895EF92C5
S1130DE0FF920F931F93CF93DF93CDB7DEB729976D
S1130DF00FB6F894DEBF0FBECDBF8C014E835F8368
S1130E0068877987E12CF12C0FB6F8940F92F801DA
S1130E10868D8823C9F08150868F80819181892BAA
S1130E2029F40E941713F80195838483F8018085BF
S1130E30882331F0C80108960E947B1081113DDCA3
S1130E400F900FBE81E06FC08E819F81A885B98508
S1130E50892B8A2B8B2B21F40F900FBE80E063C06B
S1130E60F11006C0CE0101960E944011FF24F394B4
S1130E700F900FBE4BD60FB6F8940F92F80181A1D4
S1130E808F3F09F411A2F80182A18F3F09F412A245
S1130E900F900FBEBE016A5F7F4FCE0101960E9484
S1130EA05111811126C0C801E0DC8823F1F0F8015A
S1130EB080819181892B51F40FB6F8940F9284812B
S1130EC095810E94CE11E82E0F900FBE4E815F8156
S1130ED068857985C80143960E942210C80159DDAE
S1130EE055D7811191CFE9DB8FCFC80152DD4ED7A1
S1130EF08BCFC8014EDD4AD7C801B7DC882309F47B
S1130F0083CFEE2079F00FB6F8940F92C8019DDCE0
S1130F10682FF801848195810E94B0120F900FBE52
S1130F2080E001C080E029960FB6F894DEBF0FBEC2
S1130F30CDBFDF91CF911F910F91FF90EF90089556
S1130F40CF93DF93EC010FB6F8940F9289A18F3FF2
S1130F5009F419A28AA18F3F09F41AA20F900FBEB7
S1130F608E8D811104C0CE0143960E943910CE01AA
S1130F7010DDDF91CF910895FC01448155812281D8
S1130F803381240F351F80819181B901681B790B4E
S1130F90CB016417750710F0841B950B08950F930C
S1130FA0FC018FE0DF011D928A95E9F7758764875C
S1130FB0558344833783268306870F910895AF9220
S1130FC0BF92CF92DF92EF92FF920F931F93CF9332
S1130FD0DF936C015B017A01FC01C281D38104813E
S1130FE015810C1B1D0B4017510708F48A01F601EB
S1130FF084859585A801B5018C0F9D1F0E94762BD1
S11310000E151F0558F4A701401B510BB501600FC5
S1131010711FF601848595850E94762BCE018E0D75
S11310209F1DF601248135818217930710F0821BDE
S1131030930BF60193838283C701DF91CF911F91B4
S11310400F91FF90EF90DF90CF90BF90AF900895F5
S1131050CF92DF92EF92FF920F931F93CF93DF9380
S11310601F921F92CDB7DEB77C016B015A8349836F
S113107021153105C1F0FC01868580FD08C04217A9
S1131080530708F49A013A83298381E00FC020179B
S1131090310758F042E050E0BE016F5F7F4FC70157
S11310A08EDF81E003C080E001C080E0882331F05E
S11310B049815A81B601C70182DF02C080E090E015
S11310C00F900F90DF91CF911F910F91FF90EF90B0
S11310D0DF90CF900895AF92BF92CF92DF92EF92BC
S11310E0FF920F931F93CF93DF937C015B01E90180
S11310F04217530708F4EA01209781F1F7010081B0
S1131100118184819581801B910B6E018C179D0741
S113111008F46C01F70164857585600F711FA601E1
S1131120C5010E94762BCC16DD0658F4AE014C198D
S11311305D09F70164857585C5018C0D9D1D0E94AF
S1131140762B0C0F1D1FF701848195810817190751
S113115010F0081B190BF70111830083CE01DF91F6
S1131160CF911F910F91FF90EF90DF90CF90BF90A0
S1131170AF9008956F927F928F929F92AF92BF9299
S1131180CF92DF92EF92FF920F931F93CF93DF934F
S11311901F921F92CDB7DEB76C014B015A01790142
S11311A001151105B1F0FC0160807180A801BE0138
S11311B06F5F7F4F90DF89819A81E01AF10AA81648
S11311C0B90630F4F60171826082A12CB12C01C001
S11311D05C019701A501B401C6017DDF0F900F905A
S11311E0DF91CF911F910F91FF90EF90DF90CF90FF
S11311F0BF90AF909F908F907F906F900895CF9203
S1131200DF92EF92FF920F93CF93DF93EC016B0188
S1131210413011F401E001C000E0C114D10419F41B
S1131220CC24C394D12CCE014096C817D90720F4FE
S113123021968FD87C0102C0E12CF12CE114F10439
S113124039F09601AE01B701615F7F4FC701A7DE98
S1131250C701DF91CF910F91FF90EF90DF90CF9076
S113126008950F930FB6F8940F92FC0120853185F1
S1131270232B71F422853385232B61F42681378156
S11312804481558164857585068589DE81E003C0C6
S113129080E001C080E00F900FBE0F910895FC0123
S11312A02481358180819181820F931F42815381F2
S11312B0841B950B01978217930710F0821B930BE5
S11312C008952F923F924F925F926F927F928F92E6
S11312D09F92AF92BF92CF92DF92EF92FF920F93C1
S11312E01F93CF93DF93CDB7DEB72B970FB6F89448
S11312F0DEBF0FBECDBF4C017B876A871A010E8308
S11313001F8328873987FC0184819581019726856D
S113131020FF0CC02A01F2E04F0E511C84159505E4
S113132058F41E821F821886198606C084179507F2
S113133010F02A0101C02C018E819F81A885B985F6
S1131340892B8A2B8B2B09F436C0CE01019682D7C8
S11313500FB6F8940F92C401A2DF3C0184159505E1
S113136038F560E080E090E00E94E9150E94BB112E
S1131370F401938782870F900FBEAE80BF80C8842C
S1131380D984E12CF12C00E010E0980140E050E019
S1131390BA0180E00E942913F40113861286BE016B
S11313A06A5F7F4FCE0101967CD7882389F205C0FE
S11313B00F900FBE02C0612C712C6114710419F4DA
S11313C0C4016DDF3C0182019301A1016A857B8523
S11313D0C4013EDE6C01892BE9F0C401CDDDF401CA
S11313E02681378182179307A8F090D3F401808572
S11313F09185892B71F080859185E12CF12C00E099
S113140020E030E0A90160E00E94D013F4011186CD
S11314101086BCD4C6012B960FB6F894DEBF0FBE5F
S1131420CDBFDF91CF911F910F91FF90EF90DF908F
S1131430CF90BF90AF909F908F907F906F905F9070
S11314404F903F902F900895AF92BF92CF92DF922A
S1131450EF92FF920F931F93CF93DF93EC017B01E5
S11314605A0169018E8580FF04C08A010E5F1F4FF7
S113147001C08A01CE0113DF9C01A501B701CE0191
S1131480E7DD5C01892BC1F0CE0176DD2E813F8141
S11314908217930788F088859985892B69F0888558
S11314A09985E12CF12C00E020E030E0A90160E016
S11314B00E94C71419861886C501DF91CF911F9128
S11314C00F91FF90EF90DF90CF90BF90AF90089571
S11314D04F925F926F927F928F929F92AF92BF9240
S11314E0CF92DF92EF92FF920F931F93CF93DF93EC
S11314F0EC012B013A01580169018E8580FF05C07A
S11315006894882481F8912C02C0812C912CA11418
S1131510B104C104D10439F10FB6F8940F92CE018D
S11315202BDD7C018816990640F060E080E090E0B5
S11315300E94E91520D7998788870F900FBE8E14D3
S11315409F04A0F0E12CF12C00E010E0980140E0B1
S113155050E0BA0180E00E94291319861886CE0152
S11315600BDD7C0103C0CE0107DD7C018E149F04DA
S1131570E8F484019701A301B201CE01FBDD6C0103
S1131580892BB1F0C3D28A859B85892B69F08A8522
S11315909B85E12CF12C00E020E030E0A90160E023
S11315A00E94D0131B861A86F1D302C0C12CD12C01
S11315B0C601DF91CF911F910F91FF90EF90DF90C3
S11315C0CF90BF90AF909F908F907F906F905F90DF
S11315D04F900895E0919711F091981180818111B5
S11315E00CC08FEF9FEFDC01809361119093621127
S11315F0A0936311B09364110895E0919711F09151
S113160098110780F085E02D80819181A281B381BA
S11316108093611190936211A0936311B09364114C
S11316200895CF93DF93EC018B8D9C8D0E94520221
S1131630CE010E945202DF91CF9108954F925F92A2
S11316406F927F928F929F92AF92BF92CF92DF92CE
S1131650EF92FF920F93CF93DF932C015B014A012A
S11316603901E60165EA70E08B8D9C8D0E947F2B29
S11316708B8D9C8D21E0821A9108880E991EA114ED
S1131680B10489F415C0822F90E0F501E80FF91F29
S11316903081DE01A80FB91F5D963C9380818823B9
S11316A029F02F5F01C020E0203168F31CA601C09F
S11316B01D8E0A3008F009E00A8F0DA71EA6CE0180
S11316C002960E94A002CE010E960E94A002DB8721
S11316D0CA878AE090E0A0E0B0E0801B9109A109EC
S11316E0B1098E879F87A88BB98BDF8BCE8B84E063
S11316F0FE01BF96DF011D928A95E9F71BAAA3019B
S1131700B201C4010E94140399838883E114F10493
S113171019F0F701D183C083DF91CF910F91FF902E
S1131720EF90DF90CF90BF90AF909F908F907F907D
S11317306F905F904F900895CF93C0E009C02BE065
S1131740C29FC001112481559E4E0E948F02CF5F1B
S1131750CA30A8F384EA91E10E948F0289E991E1F9
S11317600E948F028AE891E10E948F028FE791E143
S11317700E948F0283E791E10E948F0284EA91E143
S1131780909398118093971189E991E19093961120
S113179080939511CF910895CF93DF93EC010FB609
S11317A0F8940F92809172118F5F809372118091DF
S11317B01D1290911E12892B51F4D0931E12C093C6
S11317C01D1280917211813091F4B6DF10C08091A6
S11317D06C1181110CC0E0911D12F0911E12928DBA
S11317E08A8D891720F0D0931E12C0931D12809108
S11317F065118F5F80936511EA8D80916D118E174D
S113180010F4E0936D118BE08E9FF0011124E155EB
S1131810FE4E0180F281E02DFF83EE832681378125
S113182039872887A681B7819E012E5F3F4F159681
S11318303C932E93149737832683EA8D8E9FF00171
S11318401124E155FE4EFD87EC8780818F5F8083F4
S11318500F900FBE80916C11882351F0E0911D12FE
S1131860F0911E12928D8A8D981710F40E945D03D8
S1131870DF91CF910895CF93DF931BC00FB6F894F7
S11318800F92E0918611F0918711C085D185CE0128
S113189002960E94E102809172118150809372112C
S11318A080917E11815080937E110F900FBECE01E6
S11318B0B8DE80917E118111E1CFDF91CF9108953F
S11318C08F929F92AF92BF92CF92DF92EF92FF924C
S11318D0CF93DF936B017C01C42F80906E119090A5
S11318E06F11A0907011B090711180911D129091A0
S11318F01E1202960E94E1028FEFC816D806E8066F
S1131900F806B1F5CC23A1F1E3E7F1E1A181B281BD
S1131910C0911D12D0911E12BF83AE83C0911D12BF
S1131920D0911E1216968D919C911797998788874E
S11319301696CD91DC91179780911D1290911E12ED
S113194002969D838C8380911D1290911E120296A3
S113195017969C938E931697A0911D12B0911E1208
S11319601D96FC93EE931C9780818F5F80833FC00C
S1131970C80CD91CEA1CFB1CE0911D12F0911E122C
S1131980C282D382E482F582C814D904EA04FB0437
S113199068F460911D1270911E12809195119091BE
S11319A096116E5F7F4F0E94A40221C060911D12A8
S11319B070911E1280919711909198116E5F7F4FD4
S11319C00E94A4028091611190916211A09163110F
S11319D0B0916411C816D906EA06FB0640F4C09219
S11319E06111D0926211E0926311F0926411DF915F
S11319F0CF91FF90EF90DF90CF90BF90AF909F90EA
S1131A008F9008952F923F924F925F926F927F92A0
S1131A108F929F92AF92BF92CF92DF92EF92FF92FA
S1131A200F93CF93DF933C011B014A012901CA01A3
S1131A300E94A9016C01892B71F084E390E00E945B
S1131A40A901EC01892B19F0DC8ECB8E06C0C601EE
S1131A500E94520202C0C0E0D0E0209761F0A12CA5
S1131A60B12C6E019201A401B101C301E7DDCE01E5
S1131A7093DE81E001C08FEFDF91CF910F91FF9052
S1131A80EF90DF90CF90BF90AF909F908F907F901A
S1131A906F905F904F903F902F900895EF92FF9238
S1131AA00F930F2EFFE5EF2EF1E1FF2EF02D00E056
S1131AB020E030E040EC50E06FE472E08DEC90E028
S1131AC0A1DF813011F40E948D168130C9F4F8949D
S1131AD08FEF9FEFDC018093611190936211A093CB
S1131AE06311B093641181E080936C1110926E11B4
S1131AF010926F1110927011109271110E942B03A9
S1131B00809106020F91FF90EF90089580915E11ED
S1131B108F5F80935E1108950FB6F8940F926091D1
S1131B206E1170916F1180917011909171110F90DD
S1131B300FBE0895CF92DF92EF92FF92CF93DF937F
S1131B4080915E11811105C1C0906E11D0906F110A
S1131B50E0907011F09071118FEFC81AD80AE80A5A
S1131B60F80AC0926E11D0926F11E0927011F09247
S1131B707111C114D104E104F104B1F480919711FD
S1131B80909198112091951130919611309398115C
S1131B9020939711909396118093951180916611DB
S1131BA08F5F8093661116DD8091611190916211AF
S1131BB0A0916311B0916411C816D906EA06FB0618
S1131BC020F480E0B2C081E001C080E0E091971190
S1131BD0F0919811908191110CC04FEF5FEFBA0111
S1131BE04093611150936211609363117093641177
S1131BF09CC0E0919711F09198110780F085E02D39
S1131C000084F185E02D4281538164817581C4167D
S1131C10D506E606F70648F4409361115093621125
S1131C20609363117093641180C0A485B585C681E7
S1131C30D781208531853F832E83C085D185268138
S1131C4037813D832C8311964D915C9112979F01AE
S1131C502E5F3F4F4217530731F44085518512964A
S1131C605C934E931197158614869C9191509C9386
S1131C70A08DB18D109709F1C289D3894489558902
S1131C805F834E83C489D589428953895D834C839C
S1131C9011966D917C911297AF01425F5F4F64176B
S1131CA0750731F44489558912965C934E931197C4
S1131CB0118E108E9C9191509C93A28D90916D11D8
S1131CC09A1710F4A0936D119BE09A9FD0011124F0
S1131CD0A155BE4E11960D90BC91A02DB783A6833D
S1131CE016964D915C911797518740871696CD9122
S1131CF0DC9117973D832C8317963C932E9316976C
S1131D00A28D9A9FD0011124A155BE4EB587A487F8
S1131D109C919F5F9C93228DE0911D12F0911E1265
S1131D20928D291708F04FCF51CFE0911D12F091F9
S1131D301E12E28D9BE0E99FF0011124E155FE4E55
S1131D409081923008F081E090916711911116C052
S1131D5016C08091681190916911A0916A11B09197
S1131D606B110196A11DB11D8093681190936911A7
S1131D70A0936A11B0936B1180E001C081E0DF9100
S1131D80CF91FF90EF90DF90CF900895CF92DF92A4
S1131D90EF92FF92CF93DF930FB6F8940F92809156
S1131DA05E11815080935E1180915E118111BEC0DD
S1131DB080917211811188C0BCC0E0919111F091A1
S1131DC092110084F185E02DA08DB18DC289D38953
S1131DD0848995899F838E83C489D58982899389CF
S1131DE09D838C8311962D913C911297CF010E9671
S1131DF02817390731F48489958912969C938E9318
S1131E001197118E108E8C9181508C93A485B58579
S1131E10C681D781808591859F838E83C085D18536
S1131E20868197819D838C8311968D919C911297C5
S1131E309F012E5F3F4F8217930731F48085918570
S1131E4012969C938E931197158614868C918150CB
S1131E508C93A28D80916D118A1710F4A0936D114B
S1131E608BE08A9FD0011124A155BE4E11960D908E
S1131E70BC91A02DB783A68316964D915C911797BC
S1131E80518740871696CD91DC9117973D832C831B
S1131E9017963C932E931697A28D8A9FD0011124F6
S1131EA0A155BE4EB587A4878C918F5F8C93928D7C
S1131EB0A0911D12B0911E125A968C91981730F071
S1131EC081E08093671102C0E0E0F0E080918A1124
S1131ED0811173CFEF2B09F07DDBC0906811D09096
S1131EE06911E0906A11F0906B11C114D104E104FE
S1131EF0F104A1F01FDE882319F081E080936711BB
S1131F0081E0C81AD108E108F108A1F7109268111C
S1131F101092691110926A1110926B1180916711DD
S1131F20882331F00E945D0381E003C080E001C09A
S1131F3080E00F900FBEDF91CF91FF90EF90DF9084
S1131F40CF900895CF92DF92EF92FF926B017C01C4
S1131F50672B682B692B39F0D9DD40E0C701B60146
S1131F60AFDC14DF01C080E0811102C00E945D0378
S1131F70FF90EF90DF90CF90089580915E118823B9
S1131F8021F081E080936711089510926711E09128
S1131F901D12F0911E1220813181E0911D12F091E9
S1131FA01E12838D948D8217930760F060911D1229
S1131FB070911E12635E7F4F80911D1290911E12CC
S1131FC00E941B1980916D1101C08150282F30E0AF
S1131FD09BE0929FF001939FF00D1124E155FE4E7A
S1131FE09081992391F39BE0929FA001939F500DC0
S1131FF01124DF010180F281E02D0480F581E02DC0
S11320001296FC93EE9311974E545E4EE417F50727
S113201029F444815581FD01528341839BE0929FC1
S1132020F001939FF00D1124E155FE4E0180F281E1
S1132030E02D2085318530931E1220931D1280934C
S11320406D110895CF92DF92EF92FF926A017B01A6
S113205060911D1270911E12625F7F4F0E94A40254
S113206041E0C701B6012CDCFF90EF90DF90CF90E8
S11320700895CF93DF93FC01CB01BA01A181B28112
S1132080C0911D12D0911E12BB8BAA8BC0911D1240
S1132090D0911E1216964D915C9117975D8B4C8BC7
S11320A01696CD91DC91179740911D1250911E12F6
S11320B0425F5F4F5D834C8340911D1250911E120D
S11320C0425F5F4F17965C934E931697A0911D1233
S11320D0B0911E125996FC93EE93589730813F5F4E
S11320E03083222319F06FEF7FEFCB01422FE8DB1F
S11320F0DF91CF910895CF93DF93DC011796ED9193
S1132100FC9118970084F185E02DA08DB18DC289D2
S1132110D389848995899F838E83C489D58982894B
S113212093899D838C8311968D919C9112979F0125
S1132130225F3F4F8217930731F484899589129661
S11321409C938E931197118E108E8C9181508C9349
S113215080915E11811152C0A485B585C681D78155
S1132160808591859F838E83C085D1858681978163
S11321709D838C8311968D919C9112979F012E5F64
S11321803F4F8217930731F48085918512969C9373
S11321908E931197158614868C9181508C93A28D01
S11321A080916D118A1710F4A0936D118BE08A9FB2
S11321B0D0011124A155BE4E11960D90BC91A02DB5
S11321C0B783A68316964D915C91179751874087E4
S11321D01696CD91DC9117973D832C8317963C93EB
S11321E02E931697A28D8A9FD0011124A155BE4E1D
S11321F0B587A4878C918F5F8C931CC04AE851E10A
S1132200DA011196CD91DC911297D38BC28B8E811A
S11322109F81958B848B8E819F81DC0115963C93E5
S11322202E9314973F832E83518F408FDA018C9124
S11322308F5F8C93928DE0911D12F0911E12828D0E
S1132240891720F481E08093671101C080E0DF9159
S1132250CF9108950FB6F8940F9220916611FC0166
S1132260208340916E1150916F11609170117091A3
S1132270711141835283638374830F900FBE089559
S113228020916611FC01208340916E1150916F11D1
S113229060917011709171114183528363837483CF
S11322A008958F929F92AF92BF92CF92DF92EF9256
S11322B0FF920F931F93CF93DF93FB010FB6F89414
S11322C00F92C0906E11D0906F11E0907011F09049
S11322D07111DC0111960D911D912D913C91149772
S11322E046015701801A910AA20AB30A408151811A
S11322F0628173814F3FBFEF5B076B077B0739F147
S1132300EC01B881A0916611BA1759F0C016D10634
S1132310E206F30630F0108211821282138281E009
S113232017C084169506A606B70658F44819590925
S11323306A097B094083518362837383A1DF80E050
S113234007C0108211821282138281E001C080E0F2
S11323500F900FBEDF91CF911F910F91FF90EF90DF
S1132360DF90CF90BF90AF909F908F90089581E0C1
S113237080936711089580911D1290911E12089503
S113238080916C11882331F080915E11811104C019
S113239082E0089581E0089580E008950F931F93EB
S11323A0CF93DF93FC01892B09F477C0828DA09130
S11323B01D12B0911E125A969C91891708F063C0A1
S11323C04685578560897189772394F0A0911D1201
S11323D0B0911E125A969C914AE050E060E070E081
S11323E0491B51096109710946875787608B718BB5
S11323F0248535854BE0849FC001112481559E4E70
S113240028173907B9F5EF018F010E5F1F4FC80177
S11324100E94E102E0911D12F0911E12E28DEA8FFA
S113242080916D118E1710F4E0936D118BE08E9FE7
S1132430F0011124E155FE4E0180F281E02DFF836D
S1132440EE832681378139872887A681B78115963F
S11324501C930E93149717830683EA8D8E9FF001C5
S11324601124E155FE4EFD87EC8780818F5F8083C8
S113247081E016C0A0911D12B0911E125A968C9143
S1132480828F81E00DC095A5E0911D12F0911E127E
S1132490828D981720F080E003C080E001C081E0C5
S11324A0DF91CF911F910F9108950F931F93CF93B5
S11324B0DF93FC01892B09F449C086A5815086A7C6
S11324C0228D95A5291709F443C0811143C0EF015A
S11324D08F010E5F1F4FC8010E94E102EDA5EA8F34
S11324E08AE090E0A0E0B0E08E1B9109A109B10957
S11324F08E879F87A88BB98B80916D118E1710F4EE
S1132500E0936D118BE08E9FF0011124E155FE4E96
S11325100180F281E02DFF83EE83268137813987A4
S11325202887A681B78115961C930E931497178359
S11325300683EA8D8E9FF0011124E155FE4EFD873E
S1132540EC8780818F5F808381E005C080E003C0D9
S113255080E001C080E0DF91CF911F910F91089539
S11325600F931F93CF93DF93FC01892B09F45AC077
S113257085A5861708F4862F928D891709F452C011
S113258026A5213009F04EC0828F46855785608983
S11325907189772364F04AE050E060E070E0481B02
S11325A051096109710946875787608B718B2485AE
S11325B035854BE0949FC001112481559E4E281708
S11325C0390781F5EF018F010E5F1F4FC8010E948B
S11325D0E102EA8D80916D118E1710F4E0936D1174
S11325E08BE08E9FF0011124E155FE4E0180F281B3
S11325F0E02DFF83EE832681378139872887A681E2
S1132600B78115961C930E93149717830683EA8D4E
S11326108E9FF0011124E155FE4EFD87EC878081E9
S11326208F5F8083DF91CF911F910F9108958091E7
S11326301D1290911E12892B39F0E0911D12F09118
S11326401E1286A58F5F86A780911D1290911E127F
S113265008954F925F926F927F92AF92BF92CF9202
S1132660DF92EF92FF920F931F93CF93DF93280192
S113267039010FB6F8940F92E0911D12F0911E12D9
S1132680C82FD0E0EC0FFD1F83A9823071F1E091D7
S11326901D12F0911E12CE01880F991F880F991FE9
S11326A0E80FF91F87A590A9A1A9B2A94095509553
S11326B060957095482359236A237B2347A750AB21
S11326C061AB72ABE0911D12F0911E12EC0FFD1F75
S11326D081E083ABA114B104C104D10431F041E021
S11326E0C601B501EDD80E945D030F900FBE0FB671
S11326F0F8940F92E114F104A1F0E0911D12F0910D
S11327001E12CE01880F991F880F991FE80FF91F19
S113271087A590A9A1A9B2A9F70180839183A28377
S1132720B383E0911D12F0911E12EC0FFD1F83A9DB
S11327308230E9F4E0911D12F0911E12CE01880F4F
S1132740991F880F991FE80FF91F87A590A9A1A9C0
S1132750B2A94094509460947094482259226A22F9
S11327607B2247A650AA61AA72AA81E001C080E038
S113277020911D1230911E12C20FD31F1BAA0F905D
S11327800FBEDF91CF911F910F91FF90EF90DF90DB
S1132790CF90BF90AF907F906F905F904F900895CF
S11327A08F929F92AF92BF92EF92FF920F93CF932B
S11327B0DF93DC010FB6F8940F92E114F10489F071
S11327C0E62FF0E0EE0FFF1FEE0FFF1FE80FF91FDB
S11327D087A490A8A1A8B2A8F70180829182A282BE
S11327E0B38270E0FD01E60FF71F83A992E093AB7B
S11327F0023001F118F4013031F04DC0033079F1A9
S11328000430D1F148C0660F771F660F771FFD01B2
S1132810E60FF71F87A490A8A1A8B2A8BA01A9013E
S1132820482959296A297B2947A750AB61AB72AB68
S113283001E034C0660F771F660F771FFD01E60FB6
S1132840F71F47A550A961A972A94F5F5F4F6F4F4A
S11328507F4F47A750AB61AB72AB01E01FC0660F5F
S1132860771F660F771FFD01E60FF71F27A730AB11
S113287041AB52AB01E012C0823079F0660F771F92
S1132880660F771FFD01E60FF71F27A730AB41AB9B
S113289052AB01E003C001E001C000E0813009F067
S11328A069C01C96ED91FC911D971696CD91DC9113
S11328B0179718968D919C9119979F838E831896DC
S11328C0CD91DC91199716968D919C9117979D83C4
S11328D08C83818192819D012E5F3F4F82179307E4
S11328E031F418968D919C911997928381831D964A
S11328F01C921E921C978081815080835A96EC9181
S11329005A9780916D118E1710F4E0936D118BE03E
S11329108E9FF0011124E155FE4E0180F281E02DDD
S11329201796FC93EE9316974681578119965C93FC
S11329304E931897C681D7813D832C833783268392
S11329405A96EC915A978E9FF0011124E155FE4E50
S11329501D96FC93EE931C9780818F5F80835A961B
S11329609C91E0911D12F0911E12828D891710F432
S11329700E945D030F900FBE802FDF91CF910F91C6
S1132980FF90EF90BF90AF909F908F9008958F929B
S11329909F92AF92BF92CF92DF92EF92FF920F93EA
S11329A0CF93DF93DC01E114F10489F0E62FF0E02A
S11329B0EE0FFF1FEE0FFF1FE80FF91F87A490A86B
S11329C0A1A8B2A8F70180829182A282B38270E0AA
S11329D0FD01E60FF71F93A982E083AB023001F1FA
S11329E018F4013031F04DC0033079F10430D1F1E5
S11329F048C0660F771F660F771FFD01E60FF71FAC
S1132A0087A490A8A1A8B2A8BA01A9014829592964
S1132A106A297B2947A750AB61AB72AB81E034C014
S1132A20660F771F660F771FFD01E60FF71F47A597
S1132A3050A961A972A94F5F5F4F6F4F7F4F47A79E
S1132A4050AB61AB72AB81E01FC0660F771F660F9E
S1132A50771FFD01E60FF71F27A730AB41AB52AB41
S1132A6081E012C0923079F0660F771F660F771FEE
S1132A70FD01E60FF71F27A730AB41AB52AB81E056
S1132A8003C081E001C080E0913009F096C09091CC
S1132A905E1191115FC01C96ED91FC911D971696E5
S1132AA0CD91DC91179718962D913C9119973F83FE
S1132AB02E831896CD91DC91199716962D913C9101
S1132AC017973D832C83418152819D012E5F3F4F97
S1132AD04217530731F418964D915C91199752831C
S1132AE041831D961C921E921C9790819150908355
S1132AF05A96EC915A9790916D119E1710F4E093A9
S1132B006D119BE09E9FF0011124E155FE4E018062
S1132B10F281E02D1796FC93EE9316974681578128
S1132B2019965C934E931897C681D7813D832C8365
S1132B30378326835A96EC915A979E9FF00111246D
S1132B40E155FE4E1D96FC93EE931C9790819F5F7A
S1132B50908321C06AE871E1FB01C181D28153965F
S1132B60DC93CE9352972E813F8155963C932E93BE
S1132B7054974E815F819D01225F3F4FFA01358357
S1132B8024833F832E8359967C936E935897FB013D
S1132B9090819F5F90835A962C91E0911D12F09141
S1132BA01E12928D921748F4C114D10419F091E0C9
S1132BB0F601908391E090936711DF91CF910F918B
S1132BC0FF90EF90DF90CF90BF90AF909F908F9049
S1132BD00895009721F480911D1290911E120FB652
S1132BE0F8940F9270E0FC01E60FF71F23A922303E
S1132BF031F4FC01E60FF71F13AA81E001C080E065
S1132C000F900FBE0895DC01E0912912F0912A1271
S1132C10808191E0811190E09C93911108C007801C
S1132C20F085E02D6081718182819381089560E057
S1132C3070E0CB010895CF92DF92EF92FF920F9351
S1132C401F93FC0142835383648375839387828734
S1132C500417150726073707C0F00C191D092E099C
S1132C603F0986859785A089B189081719072A071E
S1132C703B0700F5BF016E5F7F4F80912712909153
S1132C8028120E94A40280E018C00C151D052E0510
S1132C903F0528F44C155D056E057F0568F4BF01FA
S1132CA06E5F7F4F8091291290912A120E94A40294
S1132CB080E003C081E001C081E01F910F91FF908B
S1132CC0EF90DF90CF9008950FB6F8940F92809113
S1132CD0251290912612892BE9F486E392E10E9451
S1132CE08F028BE292E10E948F0286E392E190933D
S1132CF02A12809329128BE292E1909328128093F6
S1132D00271240E067E08AE00E9452059093261261
S1132D10809325120F900FBE0895EF92FF920F93A8
S1132D20D3DF8091251290912612892B91F00F2EDA
S1132D30F3E2EF2EF2E1FF2EF02D03E020E030E08D
S1132D4040EC50E064E572E087ED90E00E94020DF3
S1132D5001C080E00F91FF90EF9008958F929F92B1
S1132D60AF92BF92CF92DF92EF92FF920F931F9395
S1132D70CF93DF93CDB7DEB727970FB6F894DEBFB6
S1132D800FBECDBFE0912512F0912612309781F14C
S1132D9069832A833B834C835D839F838E83663060
S1132DA0F4F4EEDA823069F400E0A7019601BE0182
S1132DB06F5F7F4F80912512909126120E947505B6
S1132DC018C000E020E030E0A901BE016F5F7F4F32
S1132DD080912512909126120E9475050AC020E068
S1132DE0A801BE016F5F7F4FCF010E94250601C07D
S1132DF080E027960FB6F894DEBF0FBECDBFDF91FB
S1132E00CF911F910F91FF90EF90DF90CF90BF90E3
S1132E10AF909F908F9008958F929F92AF92BF92A0
S1132E20CF92DF92EF92FF920F931F93CF93DF9392
S1132E303BC00780F085E02D80809180A280B38024
S1132E40C085D1858E010E5F1F4FC8010E94E1022B
S1132E50EC89FD89CE0119958E8982FF25C08E8566
S1132E609F85A889B989880D991DAA1DBB1D88163F
S1132E709906AA06BB0670F48A839B83AC83BD8340
S1132E80DB87CA87B8018091291290912A120E9487
S1132E90A4020AC0C12CD12C760100E010E0A501E7
S1132EA0940160E0CE015ADFE0912912F0912A12D8
S1132EB080818111BECF8091271290912812909326
S1132EC02A1280932912F0932812E0932712DF919B
S1132ED0CF911F910F91FF90EF90DF90CF90BF9013
S1132EE0AF909F908F900895CF92DF92EF92FF92D0
S1132EF0CF93DF93EC010E948C0D6B017C018091D8
S1132F001F1290912012A0912112B0912212C81682
S1132F10D906EA06FB0620F47FDF81E0888301C03E
S1132F201882C0921F12D0922012E0922112F092C5
S1132F302212C701B601DF91CF91FF90EF90DF908D
S1132F40CF9008954F925F926F927F928F929F924B
S1132F50AF92BF92CF92DF92EF92FF920F931F93A3
S1132F60CF93DF934B015C0129013A01E0912912CF
S1132F70F0912A120780F085E02DC085D185CE011D
S1132F8002960E94E1028E8982FF1BC04E855F85F6
S1132F9068897989480D591D6A1D7B1D7501640175
S1132FA093018201CE0147DE882369F0C12CD12C24
S1132FB0760100E010E0A501940160E0CE01CEDED0
S1132FC002C08E7F8E8BEC89FD89CE011995DF912D
S1132FD0CF911F910F91FF90EF90DF90CF90BF9012
S1132FE0AF909F908F907F906F905F904F900895D7
S1132FF08F929F92AF92BF92CF92DF92EF92FF9205
S11330001F93CF93DF931F92CDB7DEB76B017C0183
S1133010142F0E94860DCE01019666DF4B015C01E0
S1133020898181112DC011110DC08C149D04AE0431
S1133030BF0440F00E94C60EA5019401C701B60169
S113304081DF20C0112341F0E0912712F091281272
S1133050808111E0811110E0B701A60148195909D6
S11330606A097B09212F80912512909126120E94D2
S1133070A0070E94C60E811105C00E945D0302C014
S11330800E94C60E0F90DF91CF911F91FF90EF9099
S1133090DF90CF90BF90AF909F908F900895AF92A4
S11330A0BF92CF92DF92EF92FF920F931F93CF9331
S11330B0DF93CDB7DEB728970FB6F894DEBF0FBE07
S11330C0CDBF82C0898188230CF47EC0AE80BF80CE
S11330D0D5011C968D919C911D97892B21F0C501DA
S11330E002960E94E102CE010896FEDE8B019C014D
S11330F0E9810E2E000CFF0BEA30F10508F064C0E4
S11331008827EE58FF4F8F4F0C94492AF501868982
S11331108160868BCA80DB80EC80FD804685578584
S1133120608971894C0D5D1D6E1D7F1DC50183DD98
S1133130882309F449C0D5015496ED91FC91559723
S1133140C5011995F501868982FF3EC04A815B81DC
S11331506C817D8186859785A089B1899A01AB01AF
S1133160280F391F4A1F5B1FC12CD12C760100E0A8
S113317010E060E0C501F2DD27C0D50156968C91C0
S113318056978E7F56968C931FC0F5018689816071
S1133190868B4A815B816C817D8146875787608BF2
S11331A0718B400F511F621F731F68017901C501A4
S11331B042DD0AC0F501868981FD04C0C5010E9473
S11331C0520202C08E7F868B20E030E0A901BE014E
S11331D06F5F7F4F80912512909126120E946006A6
S11331E0811170CF28960FB6F894DEBF0FBECDBF05
S11331F0DF91CF911F910F91FF90EF90DF90CF90CF
S1133200BF90AF900895089584B1806884B985B162
S1133210806885B9089583B1806883B90895F4DF1F
S11332202FEF80E792E0215080409040E1F700C00A
S11332300000F1DFF5CFE8DF2FEF87EA91E62150B8
S113324080409040E1F700C00000E5DFF5CF4FEF8C
S11332505FEFBA018091BA139091BB130E94EF06FD
S11332602091B4133091B5138091AC139091AD13A8
S11332708217930760F464E680E082D662E370E02C
S113328080E090E00E94A20F6CE980E079D600E033
S113329020E030E0A90160E070E08091BA139091E1
S11332A0BB130E94750568E476E280E090E00E941A
S11332B0A20FCDCF62E370E080E090E00E94A20F05
S11332C06AD26AE070E080E090E00E94A20F78D2B7
S11332D06FE070E080E090E00E94A20F4FEF5FEF9C
S11332E0BA018091BA139091BB130E94EF068ED25B
S11332F0CAEAD3E19B838A83AED29983888300E0B0
S113330020E030E0A90160E070E08091BA13909170
S1133310BB130E9475056CEA76E280E090E00E949F
S1133320A20FC8CF66E470E080E090E00E94A20F94
S11333300E94B6256CEA76E280E090E00E94A20F3B
S1133340F1CF0F93CF93DF9300D01F92CDB7DEB7A9
S11333504FEF5FEFBA018091BA139091BB130E94B3
S1133360EF06CE0101960E94C825811109C069812A
S11333707A818B819C8175D17093B1136093B01362
S11333802091B8133091B9138091B0139091B11377
S11333908217930718F464E681E0F2D52091B813FC
S11333A03091B9138091B0139091B1132817390754
S11333B018F46CE981E0E4D500E020E030E0A901F4
S11333C060E070E08091BA139091BB130E94750580
S11333D00F900F900F900F90DF91CF910F91089560
S11333E0CF93DF9381E00E940425CAE080E0ABD351
S11333F0D82F883041F066E371E080E090E00E94CD
S1133400A20FC15099F7D83019F00E945D03FDCF87
S1133410DF91CF91089581E088D362E070E080E08D
S113342090E00E94A20F80E080D366E970E080E023
S113343090E00E94A20F32D3D3DFE7E5F2E198E0F7
S1133440918381E08083E1E4F2E19183808360E110
S113345077E280E090E00E94A20F4FEF5FEFBA01A5
S11334608091BA139091BB130E94EF06AAEAB3E1CC
S113347012968C91129713969C911397E7E5F2E1BB
S1133480928383838C9111969C9111979483858365
S113349014968C91149715969C911597968387830F
S11334A016968C91169717969C9190878187BF01E9
S11334B080E072D38D3009F448C08E3009F041C0E9
S11334C00FEF1FEF980146E150E061E472E1809153
S11334D0A8139091A9130E94680A8091421288301F
S11334E0A1F5E1E4F2E1828190E0982F882723811D
S11334F0820F911DA2EBB3E111969C938E9384816C
S113350090E0982F88272581820F911D13969C9314
S11335108E931297868190E0982F88272781820FB7
S1133520911D15969C938E931497808590E0982F07
S113353088272185820F911D17969C938E93169749
S113354004C08CE592E00E94D52B00E020E030E03E
S1133550A90160E070E08091BA139091BB130E94BE
S1133560750575CF81B1816881B980E00E94AF2370
S113357085E00E94B62441E060E070E08CE290E0D7
S11335800E94FF089093A9138093A813BC0181E0C3
S11335908CD2EAEAF3E11582148213821282178232
S11335A0168211821082DFD083E091D487E191E00A
S11335B0B3D481EA99E10E9486250E94A125F8C42A
S11335C00895D0DFE12CF12C03E020E030E048E85E
S11335D051E06FE672E08BE09AE10E94020D01E097
S11335E020E030E040EC50E069E772E08AE599E1E0
S11335F00E94020D20E030E040EC50E067E872E009
S113360088E091E00E94020D20E030E040EC50E0C0
S113361060E972E082E999E10E94020D02E020E093
S113362030E048E851E06BE972E087E299E10E94FA
S1133630020D81E00E9419069093BB138093BA1384
S1133640009741F000E020E030E0A90160E070E084
S11336500E9475058FEA92E00E94D52B0E944E0DC0
S1133660FFCF33D088F09F5790F0B92F9927B751E7
S1133670A0F0D1F0660F771F881F991F1AF0BA9532
S1133680C9F712C0B13081F03AD0B1E0089537C023
S1133690672F782F8827B85F39F0B93FCCF3869528
S11336A077956795B395D9F73EF490958095709585
S11336B061957F4F8F4F9F4F089557FD9058440F4A
S11336C0551F59F05F3F71F04795880F97FB991F7D
S11336D061F09F3F79F0879508951216130614063A
S11336E0551FF2CF4695F1DF08C0161617061806C7
S11336F0991FF1CF86957105610508940895E894A2
S1133700BB2766277727CB0197F908956530F1F435
S1133710FA0180818F7390E0982F88272181822B72
S113372090930A02809309028281F0E48F9FC00182
S11337301124FA01238126952695822B9093080261
S11337408093070281E080936D120895643051F0F4
S113375080E090E4909308028093070290930A0219
S11337608093090208950F931F9306E81BE120E05C
S113377034E244EF50E060E087E20E94B226909386
S11337806F1280936E1221E0892B09F020E0822FC2
S11337901F910F91089580916E1290916F1200976E
S11337A059F040E060E070E00E940327843031F477
S11337B010926D1280E0089582E0089583E00895E8
S11337C080916E1290916F12009739F064E00E941C
S11337D04F27853021F083E0089582E0089580E04A
S11337E008956091090270910A0280E090E00E94BD
S11337F0342920E030E048EC52E40E949D2920E086
S113380038EF4FE756E40C94C2280895EADF20E02D
S113381030E040E251E40E949D2923DFCB0108956A
S1133820609107027091080280E090E00E943429C0
S113383020E030E045E253E40E949D2920E038EF87
S11338404FE756E40E94C22820E030E040E252E410
S11338500C945B280895E4DF20E030E040E251E47A
S11338600E949D290E942D29CB0108950F931F9337
S1133870CF93DF931F921F92CDB7DEB78C011982CD
S11338802DC0E091A712EC3250F481E08E0F8093AA
S1133890A712F0E0E752FD4E8A81808302C01092A5
S11338A0A7128A818A30D1F44091A71250E0FA011C
S11338B0E952FD4E1082415051099E012F5F3F4F46
S11338C069ED72E18091AA129091AB120E94240AD0
S11338D0898181110E945D031092A712BE016E5F5F
S11338E07F4FC801A6D4882361F20F900F90DF9117
S11338F0CF911F910F9108950F931F93CF93DF934F
S11339008C01EB018091AA129091AB120E943109B3
S1133910B80180E792E10E94B62B209779F0E0E7A6
S1133920F2E101900020E9F7319780E290E0918381
S11339308083BE0180E792E10E94AB2BE0E7F2E1D5
S1133940DF010D900020E9F711978DE09AE01196C0
S11339509C938E9312961C9201900020E9F7319764
S1133960E057F241AE2F80E792E1AC016A2F8091DB
S1133970AC129091AD1208D4811111C008E215E087
S113398020E030E04DE250E063E373E18091AA125D
S11339909091AB120E94680A83E393E102C080E035
S11339A090E0DF91CF911F910F9108952F923F9254
S11339B04F925F926F927F928F929F92AF92BF923B
S11339C0CF92DF92EF92FF920F931F93CF93DF93E7
S11339D05C01FC0101900020E9F731976F01C81ADE
S11339E0D90A5C2C0F2EFAE58F2EF5E09F2EF02DD0
S11339F0E12CF12C4C2C3701F40101811281E801F6
S1133A0009900020E9F72197C01BD10B3C2EF9E067
S1133A10CF16D10458F0F4012080FEE02F1206C026
S1133A20B801C5010E94862B892B09F5442D351454
S1133A3008F44C2F50E0B801C5010E94BD2B892B1E
S1133A4049F4F301EE0FFF1FE60DF71DE65AFA4F96
S1133A5020800DC08FEFE81AF80AE3E08E0E911C67
S1133A60F1E1EF16F10439F66894222424F8822D4A
S1133A70DF91CF911F910F91FF90EF90DF90CF9046
S1133A80BF90AF909F908F907F906F905F904F907A
S1133A903F902F90089530DF89CF08958091AA1226
S1133AA09091AB120C94310908958F929F92AF922A
S1133AB0CF92EF920F931F93CF93C82F8B0141E0C6
S1133AC060E070E088EC90E00E94FF089093AB12F5
S1133AD08093AA121093A9120093A8120F2EF6E352
S1133AE08F2EFCE19F2EF02D6894AA24A6F86894EA
S1133AF0CC24C6F8E12C00E023E040E051EE60E085
S1133B0070E08C2F71D29093AD128093AC12E7E0E9
S1133B10F1E0808180618083CF911F910F91EF90BC
S1133B20CF90AF909F908F900895882331F0E8E074
S1133B30F1E080818F7E80830895E8E0F1E0808168
S1133B408061808308950F931F93E82FF0E0EE0FB8
S1133B50FF1FEA5AFA4F6081718185E893E09BDF89
S1133B60811114C008E215E020E030E04DE250E09D
S1133B7063E373E18091AA129091AB120E94680AE8
S1133B80882321F083E393E111DF03C083E393E10E
S1133B900DDF1F910F9108950F931F93CF93DF9320
S1133BA01F92CDB7DEB7DB0111969C911197953129
S1133BB008F0B4C0992381F160E070E0272F30E071
S1133BC0462F50E0FD01E40FF51F928192959F70FE
S1133BD09A3010F0995C01C0905DF901EC53FD4EF0
S1133BE090832F5F3F4FFD01E40FF51F92819F707B
S1133BF0492F50E04A30510514F0995C01C0905DA2
S1133C00F901EC53FD4E90837E5F6F5F11969C919A
S1133C101197691798F201C070E0E72FF0E0EC53B8
S1133C20FD4E10824C91811103C08EE893E002C0D6
S1133C3080E993E024EC32E13F932F931F924F935A
S1133C409F938F9384E993E09F938F9386E093E10E
S1133C509F938F930E94052C60E070E086E093E1CF
S1133C601ADF0FB6F894DEBF0FBECDBF811159C065
S1133C7008E215E020E030E04DE250E063E373E158
S1133C808091AA129091AB120E94680A882309F4C9
S1133C9047C083E393E18ADE8E3009F042C087E0B7
S1133CA089838091A8129091A912892BA9F1BE0150
S1133CB06F5F7F4F83E393E13AD08093AE12E98143
S1133CC0F0E0ED5CFC4EDF010D900020E9F7119768
S1133CD0AE1BBF0BAA2391F0BB27CD0101979C011A
S1133CE012F42F5F3F4F359527952093AF12AF0104
S1133CF04F5F5F4F64E180EB92E145D001E010E05B
S1133D0020E030E046E150E06EEA72E18091A812D2
S1133D109091A9120E9461098EE003C084E101C060
S1133D2080E00F90DF91CF911F910F910895DC01F6
S1133D30009729F1FB012081FC0101900020E9F7A3
S1133D403197E81BF90B822F90E0E817F907C8F0C8
S1133D5080E008C0880F382F330F330F830F805350
S1133D60890F2F5FFD01E20FF11D908130ED390FB6
S1133D703A3010F49111EECFFB012083089580E0D6
S1133D80089580E008950F931F93CF93DF93DC0190
S1133D90EA012097E1F1FA0101900020E9F7319757
S1133DA0E41BF50B329710F532C08D01040F151F7B
S1133DB030E0AE01420F531FFA019081913428F094
S1133DC09753592F5295507F03C0592F5295507FC6
S1133DD02C0F3D1FF9019181913410F0975301C0CC
S1133DE09053950FF80190838F5F01C080E0282FD6
S1133DF0220F482F50E0FE0101900020E9F731978F
S1133E00EC1BFD0B4E175F0710F48613CECFDF912A
S1133E10CF911F910F91089580916313860F809322
S1133E20631390916613913079F028F09230A9F0E1
S1133E30933019F108956F3F09F048C0109263134D
S1133E4081E0809366130895663809F03FC01092AC
S1133E50621382E0809366130895E091621381E017
S1133E608E0F80936213F0E0E05AFC4E6083823040
S1133E7069F583E08093661308959091621321E0BD
S1133E80290F20936213963009F581110EC0E0E6E4
S1133E90F3E1808190E0982F88272181820F911D82
S1133EA0909368138093671304C010926813109260
S1133EB0671310926613E0916413F09165133097C1
S1133EC029F08091671390916813199508958F9242
S1133ED09F92AF92CF92EF920F930F2EFCE08F2E12
S1133EE0FFE19F2EF02D6894AA24A4F86894CC24B2
S1133EF0C4F8E12C00E023E040E855E260E070E023
S1133F0073D090936A13809369130F91EF90CF90BD
S1133F10AF909F908F90089590936513809364134E
S1133F200895CF93DF93CDB7DEB729970FB6F894F2
S1133F30DEBF0FBECDBF89E0E2E2F2E09E012F5F5B
S1133F403F4FD90101900D928A95E1F710926813C1
S1133F50109267138091691390916A13009731F05E
S1133F60422F532F69E010D180E001C082E02996EE
S1133F700FB6F894DEBF0FBECDBFDF91CF91089589
S1133F8065360CF064E66C390CF46CE996EF690262
S1133F90B00111246854744F811105C07093290134
S1133FA060932801089570932B0160932A0108956A
S1133FB0EAE0F1E08081886180838FE39CE990935B
S1133FC027018093260160E080E0DADF60E081E091
S1133FD0D7DFE0E2F1E08081826A8083E1E2F1E010
S1133FE080818A61808308952F923F924F925F92DD
S1133FF06F927F928F929F92AF92CF92EF92FF92A5
S11340000F931F93CF93DF93CDB7DEB7F82E2A011A
S11340103B0188E090E00E94512A8C018F2D90E0B2
S1134020FC01EE0FFF1FE559FC4E118300830115BF
S1134030110509F46CC0880F991FFC01E55FFD4F61
S113404080819181D8018D939C938C2D90E0880F71
S1134050991F880F991F0E94512A1C0186E090E045
S11340600E94512A7C014C2DB1010E943F28F80185
S1134070F582E4828A2D90E0880F991F880F991F9A
S11340800E94512A1C0186E090E00E94512A7C0182
S11340904A2DB101F4D7D8011396FC92EE921297EF
S11340A017969C928E921697FFB6F894ED91FC9118
S11340B0119736978081826080838D909C90C30194
S11340C0B2010E94342920E030E040E051E40E9433
S11340D09D299B01AC0160E074E284E79BE40E94AB
S11340E0C22820E030E040E85FE3E5D7BADAF40123
S11340F032976083D801ED91FC911197359788E947
S11341008083ED91FC91349786E08083FFBEC801E3
S1134110DF91CF911F910F91FF90EF90CF90AF90CF
S11341209F908F907F906F905F904F903F902F90D3
S11341300895CF93DF93DC01892B01F11296ED9161
S1134140FC911397938182812581981B922384810A
S11341509817B1F0838126952823C081D181C20F9D
S1134160D11D68838F5F958189238383ED91FC91B1
S1134170359780818062808380E003C081E001C044
S113418082E0DF91CF910895EF92FF920F931F93F6
S1134190CF93DF937C01009709F441C0DC011296B0
S11341A0ED91FC91139793818281981B85819823CB
S11341B08481891B8617A8F1662341F1842F952FEA
S11341C0DC016150462F50E04F5F5F4F480F591F8D
S11341D0E701EA81FB81938182812581981B9223E7
S11341E08481981779F08C91938126952923608195
S11341F071818B01020F111DE80188839F5F858106
S1134200982393831196A417B50711F7D701ED915D
S1134210FC91359780818062808380E003C081E0D7
S113422001C082E0DF91CF911F910F91FF90EF9039
S113423008950097D1F0DC011496ED91FC91159747
S113424093818281981799F092818581869589233B
S1134250A081B181A80FB11D8C91DB018C939F5F6C
S113426085819823928380E0089581E0089583E016
S113427008951F920F920FB60F9211240BB60F924E
S11342802F933F934F935F936F937F938F939F935A
S1134290AF93BF93CF93DF93EF93FF93A0916B13EF
S11342A0B0916C13109711F16091C6001496ED91C2
S11342B0FC911597938182812581981B9223848197
S11342C0981761F0838126952823C081D181C20F7C
S11342D0D11D68838F5F9581892383831696ED9121
S11342E0FC911797309711F0CD011995FF91EF913B
S11342F0DF91CF91BF91AF919F918F917F916F91FA
S11343005F914F913F912F910F900BBE0F900FBE75
S11343100F901F9018951F920F920FB60F921124B1
S11343200BB60F922F938F939F93AF93BF93EF93FB
S1134330FF93E0916B13F0916C133097B9F0028006
S1134340F381E02D938182819817B1F09281858168
S1134350282F26952923A081B181A20FB11D2C916C
S11343609F5F892382832093C6000BC0E1ECF0E0B9
S113437080818F7D808305C0E1ECF0E080818F7DBA
S11343808083FF91EF91BF91AF919F918F912F9176
S11343900F900BBE0F900FBE0F901F9018951F9299
S11343A00F920FB60F9211240BB60F922F933F93D7
S11343B04F935F936F937F938F939F93AF93BF9329
S11343C0CF93DF93EF93FF93A0916D13B0916E138E
S11343D0109711F16091CE001496ED91FC91159710
S11343E0938182812581981B92238481981761F09F
S11343F0838126952823C081D181C20FD11D688372
S11344008F5F9581892383831696ED91FC9117978D
S1134410309711F0CD011995FF91EF91DF91CF9174
S1134420BF91AF919F918F917F916F915F914F91C8
S11344303F912F910F900BBE0F900FBE0F901F90C6
S113444018951F920F920FB60F9211240BB60F926C
S11344502F938F939F93AF93BF93EF93FF93E09129
S11344606D13F0916E133097B9F00280F381E02D53
S1134470938182819817B1F092818581282F2695A6
S11344802923A081B181A20FB11D2C919F5F8923A3
S113449082832093CE000BC0E9ECF0E080818F7D15
S11344A0808305C0E9ECF0E080818F7D8083FF91FB
S11344B0EF91BF91AF919F918F912F910F900BBE70
S11344C00F900FBE0F901F9018951F920F920FB66A
S11344D00F9211240BB60F922F933F934F935F9338
S11344E06F937F938F939F93AF93BF93CF93DF93F8
S11344F0EF93FF93A0916F13B0917013109711F184
S11345006091D6001496ED91FC9115979381828168
S11345102581981B92238481981761F083812695C5
S11345202823C081D181C20FD11D68838F5F9581FB
S1134530892383831696ED91FC911797309711F098
S1134540CD011995FF91EF91DF91CF91BF91AF917B
S11345509F918F917F916F915F914F913F912F9197
S11345600F900BBE0F900FBE0F901F9018951F92C7
S11345700F920FB60F9211240BB60F922F938F93B5
S11345809F93AF93BF93EF93FF93E0916F13F091D9
S113459070133097B9F00280F381E02D938182810A
S11345A09817B1F092818581282F26952923A0811F
S11345B0B181A20FB11D2C919F5F89238283209327
S11345C0D6000BC0E1EDF0E080818F7D808305C0D3
S11345D0E1EDF0E080818F7D8083FF91EF91BF91C9
S11345E0AF919F918F912F910F900BBE0F900FBEA3
S11345F00F901F9018951F920F920FB60F921124CF
S11346000BB60F922F933F934F935F936F937F93C8
S11346108F939F93AF93BF93CF93DF93EF93FF93C6
S1134620A0917113B0917213109711F1609136013A
S11346301496ED91FC911597938182812581981BA5
S113464092238481981761F0838126952823C08161
S1134650D181C20FD11D68838F5F958189238383A4
S11346601696ED91FC911797309711F0CD0119959D
S1134670FF91EF91DF91CF91BF91AF919F918F9176
S11346807F916F915F914F913F912F910F900BBE4E
S11346900F900FBE0F901F9018951F920F920FB698
S11346A00F9211240BB60F922F938F939F93AF9376
S11346B0BF93EF93FF93E0917113F09172133097CE
S11346C0B9F00280F381E02D938182819817B1F0D3
S11346D092818581282F26952923A081B181A20F5B
S11346E0B11D2C919F5F89238283209336010BC0D7
S11346F0E1E3F1E080818F7D808305C0E1E3F1E0B7
S113470080818F7D8083FF91EF91BF91AF919F91C5
S11347108F912F910F900BBE0F900FBE0F901F9093
S11347201895CF93DF931F92CDB7DEB7BE016F5FAD
S11347307F4F80917313909174137BDD8111F6CFB9
S1134740898190E00F90DF91CF910895682F809137
S1134750731390917413EDDC80E090E008958F92D0
S11347609F92AF92CF92EF920F93812C912C6894E9
S1134770AA24A7F86894CC24C7F8E12C00E023E02D
S113478040E051EE60E070E02FDC9093741380936E
S11347907313E0ECF3E183E192E0918380839383EC
S11347A082830F91EF90CF90AF909F908F90089558
S11347B090E0FC01EE0FFF1FE80FF91FEE0FFF1F43
S11347C0EB58FC4E238121111FC09C01220F331F83
S11347D0F901E80FF91FEE0FFF1FEB58FC4EA08103
S11347E0B1814C91F901E80FF91FEE0FFF1FEB584F
S11347F0FC4E81E090E0028002C0880F991F0A9469
S1134800E2F7842B8C930895FC01EE0FFF1FDF0168
S1134810A80FB91FAA0FBB1FAB58BC4E0D90BC917B
S1134820A02D2C91E80FF91FEE0FFF1FEB58FC4E43
S113483081E090E0028002C0880F991F0A94E2F799
S1134840809582238C93089590E0FC01EE0FFF1F66
S1134850E80FF91FEE0FFF1FEB58FC4E23812111C7
S113486020C09C01220F331FF901E80FF91FEE0F3E
S1134870FF1FEB58FC4EA081B1814C91F901E80F68
S1134880F91FEE0FFF1FEB58FC4E81E090E0028011
S113489002C0880F991F0A94E2F7809584238C93B1
S11348A00895FC01EE0FFF1FDF01A80FB91FAA0F27
S11348B0BB1FAB58BC4E0D90BC91A02D2C91E80FA2
S11348C0F91FEE0FFF1FEB58FC4E81E090E00280D1
S11348D002C0880F991F0A94E2F7822B8C930895E3
S11348E0CC24C394D12C6894BB24B2F8C5E7D3E19B
S11348F010E08C81813081F018F1823061F5E8811B
S1134900F9812081C6010A8002C0880F991F0A9488
S1134910E2F7822780831FC08D818F5F8A3010F475
S11349208D8319C01D82E881F9812081C6010A8026
S113493002C0880F991F0A94E2F7822780830BC074
S11349400D81002329F0812F7FDF01500D8303C0E7
S1134950BC82812F2DDF1F5F2696143051F665E04F
S113496070E080E090E00E94A20FC0CFEF92FF922F
S11349700F931F93CF93DF93082F80E487B9C5E784
S1134980D3E10F2EF8E2EF2EF12CF02DF982E8821C
S113499086E08A831B8214E01C8380E009DF80E8C0
S11349A087B9FF82EE8287E0888719861A8781E0BB
S11349B0FFDE80E283BB84E390E09D878C8785E003
S11349C08E871F86188B82E0F3DE80E180930101DD
S11349D082E091E09B8B8A8B1C8B1D8A1E8B83E06B
S11349E0E7DEE12CF12C20E030E040EC50E06DE813
S11349F075E080E794E20E94020DDF91CF911F9150
S1134A000F91FF90EF900895CF93DF9390E0FC0116
S1134A10EE0FFF1FDF01A80FB91FAA0FBB1FAB5872
S1134A20BC4ECD91DC911197488121E030E0129683
S1134A300C90129702C0220F331F0A94E2F7242726
S1134A402883FD0181E08483DF91CF910895E09173
S1134A509513F0919613309709F0199508956450C1
S1134A60623008F03BC020919413223079F018F49E
S1134A70213031F030C0233081F02430A1F02BC03C
S1134A8022E02093941361E00AC20895FA01808120
S1134A908093911382E0DBCF089524E02093941354
S1134AA064E0FDC10895FA01818190E0982F882780
S1134AB02081822B9093901380938F13838190E0B5
S1134AC0982F88272281822B90938E1380938D13A5
S1134AD081E0BDCF089580E0BACF08951092941379
S1134AE086E0B5CF0895209197133091981321153E
S1134AF0310541F0462FBC01C90185D1823021F036
S1134B0080E0089587E0089585E008950F931F934A
S1134B1090939613809395130FE215E220E034E20C
S1134B2044EF50E060E089E21DD1909398138093A4
S1134B309713892B11F080E001C088E01F910F9139
S1134B400895CF93DF931F921F92CDB7DEB780EA0B
S1134B50898383E08A831092941362E0CE010196E4
S1134B60C2DF0F900F90DF91CF910895CF93DF9321
S1134B701F92CDB7DEB784EB898383E080939413CF
S1134B8061E0CE010196AFDF0F90DF91CF910895E0
S1134B902F923F924F925F926F927F928F929F9249
S1134BA0AF92BF92CF92DF92EF92FF920F931F9337
S1134BB0CF93DF93C0918D13D0918E13CF3F2FEFFE
S1134BC0D20741F060918F13709190136F3FEFEF14
S1134BD07E0759F44FEF5FEF6FE77FE7FC014083F7
S1134BE051836283738383E099C01C0180E090E069
S1134BF03BD32B013C01BE0180E090E035D34B0157
S1134C005C018091921390E0019624E6289FB00104
S1134C10299F700D112480919313803269F08033A1
S1134C20A1F08031E1F40F2EC12CD12CF8ECEF2E41
S1134C30F1E4FF2EF02D1BC00F2EC12CD12CF6ED6C
S1134C40EF2EF3E4FF2EF02D12C00F2EC12CF0E551
S1134C50DF2EFAE1EF2EF6E4FF2EF02D08C00F2E22
S1134C60C12CD12CF0E8EF2EFFE3FF2EF02D072E00
S1134C70000C880B990BFAD2A70196015ED320E0B1
S1134C8030E04CEC53E47ED26B017C0125E83BEE32
S1134C9041ED5FE3C501B40150D39B01AC01C301F5
S1134CA0B20109D2A70196016DD2162FD72FC82FB2
S1134CB0092F2DE33AE047E15FE3C301B2013DD39D
S1134CC02B013C0126EF38E24CE55FE3C501B4015A
S1134CD034D39B01AC01C301B201EDD1A70196010C
S1134CE051D2C62ED72EE82EF92E262F372F482F35
S1134CF0592F612F7D2F8C2F902F1BD3181624F042
S1134D001C2DDD2DCE2D0F2D412F5D2F6C2F702FDF
S1134D10F101408351836283738380E0DF91CF91FB
S1134D201F910F91FF90EF90DF90CF90BF90AF90C5
S1134D309F908F907F906F905F904F903F902F90B7
S1134D4008958091A71381110CC08CE08093B80062
S1134D508FEF8093BB0084E08093BC0081E080935C
S1134D60A7130895AF92BF92CF92DF92EF92FF9272
S1134D700F931F93CF93DF93A82EB62E69017A0168
S1134D8084E090E08ED3EC01892B61F1A88281E06C
S1134D90B81212C0C701B60120EA36E841E050E07B
S1134DA056D3DA01C9014097A109B109B695A7956F
S1134DB097958795898311C0C701B60120E83AE128
S1134DC046E050E044D3DA01C9014097A109B10992
S1134DD0B695A7959795879589831B830A838C2F0E
S1134DE09D2F02C080E090E0DF91CF911F910F9141
S1134DF0FF90EF90DF90CF90BF90AF900895809197
S1134E00BC0081700895FF920F931F93CF93DF939B
S1134E100097D1F14A30D0F5F42E8B01EC01EFDF8D
S1134E20811136C080919A1390919B13C817D907AA
S1134E3041F087DF89818093B800D0939B13C0939E
S1134E409A1381E08F0D80939C138881880F80933F
S1134E509D13FF2089F0F801AEE9B3E14FEF4F0D48
S1134E60642F70E0CB010196B801680F791F81911E
S1134E708D93E617F707D9F788EF8093210285EA27
S1134E808093BC0084E005C086E003C087E001C0D5
S1134E9082E0DF91CF911F910F91FF9008951F93AE
S1134EA0CF93DF93009729F16B3028F5162FEC018F
S1134EB0A6DF811122C080919A1390919B13C81789
S1134EC0D90741F03EDF89818093B800D0939B13CA
S1134ED0C0939A1310939C138881880F81608093E8
S1134EE09D1388EF8093210285EA8093BC0085E0BE
S1134EF005C086E003C087E001C082E0DF91CF9166
S1134F001F9108951F920F920FB60F9211240BB6A2
S1134F100F922F933F934F935F936F937F938F934E
S1134F209F93AF93BF93EF93FF93E091B9008E2FBC
S1134F3090E0FC013897E135F10508F075C0882749
S1134F40E458FF4F8F4FA5C210929913E091991323
S1134F5080919C13E81770F481E08E0F809399136D
S1134F60F0E0E356FC4E80818093BB0085E880939B
S1134F70BC0072C084E98093BC0080919A13909124
S1134F809B13DC011296ED91FC911397309709F471
S1134F9063C020E040E050E064E019955DC0E0911A
S1134FA0991381E08E0F809399138091BB00F0E0F8
S1134FB0E356FC4E80838091B900803411F4109242
S1134FC099132091991330E080919C1390E00197FC
S1134FD02817390724F485EC8093BC003DC085E88C
S1134FE08093BC0039C08091BB00E0919913F0E03C
S1134FF0E356FC4E808384E98093BC0080919A132D
S113500090919B13DC011296ED91FC9113973097CC
S113501019F120919C134DE953E165E019951CC0E9
S113502085EA8093BC0018C08091B9008093210266
S113503084E08093BC0080919A1390919B13DC01CF
S11350401296ED91FC911397309731F020E040E0F7
S113505050E0609121021995FF91EF91BF91AF91BA
S11350609F918F917F916F915F914F913F912F917C
S11350700F900BBE0F900FBE0F901F901895FC0160
S1135080411101C02FD3842F90E09C01215031099C
S113509082239323892B09F025D3413808F022D3A6
S11350A0128213824483440F415045837183608389
S11350B080E090E008955058BB27AA270ED028C15D
S11350C019D130F01ED120F031F49F3F11F41EF4B9
S11350D00EC10EF4E095E7FB04C1E92F0E945D1BAD
S11350E078F3BA17620773078407950720F079F4F9
S11350F0A6F50C947F1B0EF4E0950B2EBA2FA02D71
S11351000B01B90190010C01CA01A0011124FF2770
S1135110591B99F0593F50F4503E68F11A16F0406B
S1135120A22F232F342F4427585FF3CF469537956A
S11351302795A795F0405395C9F77EF41F16BA0B2F
S1135140620B730B840BBAF09150A1F0FF0FBB1FDD
S1135150661F771F881FC2F70EC0BA0F621F731F26
S1135160841F48F4879577956795B795F7959E3F83
S113517008F0B1CF9395880F08F09927EE0F979513
S1135180879508950DD0C4C0BCD048F0B3D038F092
S113519021F45F3F21F0A5C051110C94801BA7C0DE
S11351A00E945D1B88F39923B9F35523A1F3951B42
S11351B0550BBB27AA2762177307840738F09F5F34
S11351C05F4F220F331F441FAA1FA9F334D00E2EA2
S11351D03AF0E0E831D091505040E695001CCAF70F
S11351E02AD0FE2F28D0660F771F881FBB1F2617D3
S11351F037074807AB07B0E809F0BB0B802DBF01A8
S1135200FF2793585F4F32F09E3F510570F069C0FD
S11352100C94801B5F3FE4F3983ED4F38695779516
S11352206795B795F7959F5FC9F7880F911D969578
S1135230879597F90895E1E0660F771F881FBB1FD4
S1135240621773078407BA0720F0621B730B840B81
S1135250BA0BEE1F88F7E09508950E94311B6894FD
S1135260B1110C94801B0895E89409C097FB3EF497
S113527090958095709561957F4F8F4F9F4F99239F
S1135280A9F0F92F96E9BB279395F695879577951D
S11352906795B795F111F8CFFAF4BB0F11F460FFDD
S11352A01BC06F5F7F4F8F4F9F4F16C0882311F035
S11352B096E911C0772321F09EE8872F762F05C049
S11352C0662371F096E8862F70E060E02AF09A95E4
S11352D0660F771F881FDAF7880F9695879597F9D9
S11352E0089597F99F6780E870E060E008959FEF64
S11352F080EC089500240A94161617061806090669
S1135300089500240A941216130614060506089537
S1135310092E0394000C11F4882352F0BB0F40F4BF
S1135320BF2B11F460FF04C06F5F7F4F8F4F9F4FFF
S1135330089569D008F48FEF08950CD0E9CFDADF2F
S113534028F0DFDF18F0952309F0CBCFD0CF11245C
S11353500C94801B0E945D1B90F3959FC1F3950FE5
S113536050E0551F629FF001729FBB27F00DB11DE5
S1135370639FAA27F00DB11DAA1F649F6627B00D75
S1135380A11D661F829F2227B00DA11D621F739F5E
S1135390B00DA11D621F839FA00D611D221F749F6C
S11353A03327A00D611D231F849F600D211D822FB3
S11353B0762F6A2F11249F57504092F0E9F08823EA
S11353C04AF0EE0FFF1FBB1F661F771F881F915007
S11353D05040A9F79E3F510578F083CF0C94801B71
S11353E05F3FE4F3983ED4F3869577956795B79538
S11353F0F795E7959F5FC1F7FE2B880F911D969552
S1135400879597F90895990F0008550FAA0BE0E8BE
S1135410FEEF16161706E807F907C0F01216130672
S1135420E407F50798F0621B730B840B950B39F4B2
S11354300A2661F0232B242B252B21F408950A2618
S113544009F4A140A6958FEF811D811D0895A1E265
S11354501A2EAA1BBB1BFD010DC0AA1FBB1FEE1FEA
S1135460FF1FA217B307E407F50720F0A21BB30B35
S1135470E40BF50B661F771F881F991F1A9469F7B1
S113548060957095809590959B01AC01BD01CF010D
S11354900895EE0FFF1F881F8BBF0790F691E02D34
S11354A019940F931F93CF93DF938230910510F4D7
S11354B082E090E0E091BE13F091BF1320E030E071
S11354C0A0E0B0E0309719F140815181028113814D
S11354D048175907C8F08417950769F4109731F0F5
S11354E012960C93129713961C9327C00093BE1325
S11354F01093BF1322C02115310519F04217530729
S113550018F49A01BD01EF01DF01F801DBCF211589
S11355103105F9F0281B390B2430310580F48A81D8
S11355209B816115710521F0FB019383828304C083
S11355309093BF138093BE13FE01329644C0FE01C4
S1135540E20FF31F81939193225031093983288309
S11355503AC02091BC133091BD13232B41F4209108
S11355600202309103023093BD132093BC132091A7
S11355700002309101022115310541F42DB73EB7E7
S11355804091040250910502241B350BE091BC1399
S1135590F091BD13E217F307A0F42E1B3F0B28175D
S11355A0390778F0AC014E5F5F4F2417350748F098
S11355B04E0F5F1F5093BD134093BC13819391937F
S11355C002C0E0E0F0E0CF01DF91CF911F910F9195
S11355D00895CF93DF93009709F481C0FC013297BB
S11355E013821282A091BE13B091BF13109781F45D
S11355F020813181820F931F2091BC133091BD1300
S11356002817390751F5F093BD13E093BC1367C015
S1135610ED0120E030E0CE17DF0740F44A815B81E2
S11356209E0141155105F1F0EA01F5CFD383C28300
S113563040815181840F951FC817D90759F4888177
S11356409981840F951F0296918380838A819B811F
S1135650938382832115310529F4F093BF13E093DA
S1135660BE133DC0E901FB83EA8349915991C40FFC
S1135670D51FEC17FD0761F480819181840F951F7C
S11356800296E90199838883828193819B838A832B
S1135690E0E0F0E012968D919C911397009719F039
S11356A0FD01DC01F7CF8D919C9111979D012E5F37
S11356B03F4F820F931F2091BC133091BD132817C5
S11356C0390769F4309729F41092BF131092BE136E
S11356D002C013821282B093BD13A093BC13DF9156
S11356E0CF91089581E090E0F8946AC3FB01DC0156
S11356F002C001900D9241505040D8F70895DC014A
S113570001C06D9341505040E0F70895FB01519161
S11357105523B1F0BF01DC01052E4D91442369F0FE
S113572010D0D9F7CD010190002049F04D914111DD
S113573008D0C9F3FB014111EECF81E090E001975D
S11357400895402539F0403229F440294B57465EEC
S113575008F018940895FB01DC010D900020E9F78E
S1135760119701900D920020E1F70895FB01DC01EF
S113577001900D920020E1F70895FB01DC014150F6
S1135780504088F08D9181341CF08B350CF4805E90
S1135790619161341CF06B350CF4605E861B611101
S11357A071F3990B0895881BFCCF0F931F93CF932C
S11357B0DF93E091C213F091C313238121FF1BC037
S11357C08C01D0E0C0E0F80181918F016091C21397
S11357D07091C313DB011896ED91FC9119978823FE
S11357E031F01995892B79F3DFEFCFEFECCF8AE015
S11357F01995892B19F08FEF9FEF02C08D2F9C2FE5
S1135800DF91CF911F910F9108950F931F93CF9321
S1135810DF93CDB7DEB72E970FB6F894DEBF0FBE79
S1135820CDBF0E891F8986E08C831A8309838FEF8D
S11358309FE79E838D83AE01465E5F4F688D798DB1
S1135840CE01019610D0EF81F885E00FF11F108290
S11358502E960FB6F894DEBF0FBECDBFDF91CF9169
S11358601F910F9108952F923F924F925F926F92E2
S11358707F928F929F92AF92BF92CF92DF92EF92DC
S1135880FF920F931F93CF93DF93CDB7DEB72B9780
S11358900FB6F894DEBF0FBECDBF6C017B018A0149
S11358A0FC0117821682838181FFBFC1CE0101965C
S11358B03C01F6019381F70193FD859193FF81915A
S11358C07F01882309F4ADC1853239F493FD8591B4
S11358D093FF81917F01853221F4B60190E0D6D106
S11358E0E8CF912C212C312CFFE1F315D8F08B3229
S11358F079F038F4803279F08332A1F4232D2061D9
S11359001DC08D3261F0803369F4232D216016C0EF
S1135910832D8260382EE32DE4603E2E2AC0F32DC1
S1135920F8601DC037FC2DC020ED280F2A3040F050
S11359308E32B9F436FC75C1232D2064322E19C081
S113594036FE06C08AE0989E200D1124922E11C0C6
S1135950EAE02E9E200D1124222EF32DF0623F2E1C
S113596008C08C3621F4832D8068382E02C0883616
S113597041F4F70193FD859193FF81917F0181119A
S1135980B3CF982F9F7D9554933028F40C5F1F4F0D
S11359909FE399830DC0833631F0833771F08335EB
S11359A009F055C020C0F801808189830E5F1F4F24
S11359B088248394912C530112C02801F2E04F0EE5
S11359C0511CF801A080B18036FE03C0692D70E03F
S11359D002C06FEF7FEFC5014ED14C018201F32D60
S11359E0FF773F2E15C0280122E0420E511CF8011A
S11359F0A080B18036FE03C0692D70E002C06FEF55
S1135A007FEFC5012DD14C01F32DF0683F2E8201AB
S1135A1033FC19C0822D90E088169906A0F4B601D3
S1135A2080E290E033D12A94F5CFF50137FC8591DB
S1135A3037FE81915F01B60190E028D121102A94AC
S1135A4021E0821A91088114910479F7E1C0843627
S1135A5011F0893639F5F80137FE07C0608171818C
S1135A60828193810C5F1F4F08C060817181072E72
S1135A70000C880B990B0E5F1F4FF32DFF763F2E02
S1135A8097FF09C090958095709561957F4F8F4FD2
S1135A909F4FF0683F2E2AE030E0A30133D1882ED7
S1135AA0861844C0853731F4232D2F7EB22E2AE088
S1135AB030E025C0932D997FB92E8F36C1F018F4AC
S1135AC0883579F0AEC0803719F0883721F0A9C045
S1135AD0E92FE061BE2EB4FE0DC0FB2DF460BF2E95
S1135AE009C034FE0AC0292F2660B22E06C028E061
S1135AF030E005C020E130E002C020E132E0F801EE
S1135B00B7FE07C060817181828193810C5F1F4F52
S1135B1006C06081718180E090E00E5F1F4FA30199
S1135B20F1D0882E8618FB2DFF773F2E36FE0DC050
S1135B30232D2E7FA22E891458F434FE0BC032FC80
S1135B4009C0832D8E7EA82E05C0B82CA32C03C0BB
S1135B50B82C01C0B92CA4FE0FC0FE01E80DF11D44
S1135B608081803321F49A2D997EA92E09C0A2FE4A
S1135B7006C0B394B39404C08A2D867809F0B39414
S1135B80A3FC10C0A0FE06C0B21480F4280C922C12
S1135B909B180DC0B21458F4B60180E290E076D0A0
S1135BA0B394F8CFB21418F42B1802C0982C212CFB
S1135BB0A4FE0FC0B60180E390E068D0A2FE16C038
S1135BC0A1FC03C088E790E002C088E590E0B6013C
S1135BD00CC08A2D867851F0A1FE02C08BE201C070
S1135BE080E2A7FC8DE2B60190E050D0891430F435
S1135BF0B60180E390E04AD09A94F8CF8A94F301F6
S1135C00E80DF11D8081B60190E040D08110F6CFFF
S1135C10222009F44ECEB60180E290E037D02A94D7
S1135C20F7CFF6018681978102C08FEF9FEF2B9605
S1135C300FB6F894DEBF0FBECDBFDF91CF911F9199
S1135C400F91FF90EF90DF90CF90BF90AF909F9017
S1135C508F907F906F905F904F903F902F9008951A
S1135C60FC010590615070400110D8F78095909523
S1135C708E0F9F1F0895FC01615070400190011028
S1135C80D8F7809590958E0F9F1F08950F931F93BB
S1135C90CF93DF93FB01238121FD03C08FEF9FEF9F
S1135CA02CC022FF16C046815781248135814217BA
S1135CB0530744F4A081B1819D012F5F3F4F31838D
S1135CC020838C93268137812F5F3F4F3783268330
S1135CD014C08B01EC01FB010084F185E02D1995C2
S1135CE0892BE1F6D80116968D919C911797019610
